{
  "address": "0xCf7Ed3AccA5a467e9e704C703E8D87F634fB0Fc9",
  "abi": [
    {
      "inputs": [],
      "stateMutability": "nonpayable",
      "type": "constructor"
    },
    {
      "anonymous": false,
      "inputs": [
        {
          "indexed": false,
          "internalType": "uint256",
          "name": "marketIndex",
          "type": "uint256"
        },
        {
          "indexed": false,
          "internalType": "string",
          "name": "symbolName",
          "type": "string"
        },
        {
          "indexed": false,
          "internalType": "uint256",
          "name": "timestamp",
          "type": "uint256"
        }
      ],
      "name": "LogAddMarket",
      "type": "event"
    },
    {
      "anonymous": false,
      "inputs": [
        {
          "indexed": false,
          "internalType": "uint256",
          "name": "tokenIndex",
          "type": "uint256"
        },
        {
          "indexed": false,
          "internalType": "string",
          "name": "symbolName",
          "type": "string"
        },
        {
          "indexed": false,
          "internalType": "address",
          "name": "EC20TokenAddress",
          "type": "address"
        },
        {
          "indexed": false,
          "internalType": "uint256",
          "name": "timestamp",
          "type": "uint256"
        }
      ],
      "name": "LogAddToken",
      "type": "event"
    },
    {
      "anonymous": false,
      "inputs": [
        {
          "indexed": false,
          "internalType": "string",
          "name": "symbolName1",
          "type": "string"
        },
        {
          "indexed": false,
          "internalType": "string",
          "name": "symbolName2",
          "type": "string"
        },
        {
          "indexed": false,
          "internalType": "uint256",
          "name": "price",
          "type": "uint256"
        },
        {
          "indexed": false,
          "internalType": "uint256",
          "name": "amount",
          "type": "uint256"
        },
        {
          "indexed": false,
          "internalType": "address",
          "name": "buyer",
          "type": "address"
        },
        {
          "indexed": false,
          "internalType": "uint256",
          "name": "timestamp",
          "type": "uint256"
        }
      ],
      "name": "LogBuyToken",
      "type": "event"
    },
    {
      "anonymous": false,
      "inputs": [
        {
          "indexed": false,
          "internalType": "string",
          "name": "symbolName1",
          "type": "string"
        },
        {
          "indexed": false,
          "internalType": "string",
          "name": "symbolName2",
          "type": "string"
        },
        {
          "indexed": false,
          "internalType": "uint256",
          "name": "orderIndex",
          "type": "uint256"
        },
        {
          "indexed": false,
          "internalType": "address",
          "name": "buyer",
          "type": "address"
        },
        {
          "indexed": false,
          "internalType": "uint256",
          "name": "timestamp",
          "type": "uint256"
        }
      ],
      "name": "LogCancelBuyOrder",
      "type": "event"
    },
    {
      "anonymous": false,
      "inputs": [
        {
          "indexed": false,
          "internalType": "string",
          "name": "symbolName1",
          "type": "string"
        },
        {
          "indexed": false,
          "internalType": "string",
          "name": "symbolName2",
          "type": "string"
        },
        {
          "indexed": false,
          "internalType": "uint256",
          "name": "orderIndex",
          "type": "uint256"
        },
        {
          "indexed": false,
          "internalType": "address",
          "name": "seller",
          "type": "address"
        },
        {
          "indexed": false,
          "internalType": "uint256",
          "name": "timestamp",
          "type": "uint256"
        }
      ],
      "name": "LogCancelSellOrder",
      "type": "event"
    },
    {
      "anonymous": false,
      "inputs": [
        {
          "indexed": false,
          "internalType": "string",
          "name": "symbolName1",
          "type": "string"
        },
        {
          "indexed": false,
          "internalType": "string",
          "name": "symbolName2",
          "type": "string"
        },
        {
          "indexed": false,
          "internalType": "uint256",
          "name": "price",
          "type": "uint256"
        },
        {
          "indexed": false,
          "internalType": "uint256",
          "name": "amount",
          "type": "uint256"
        },
        {
          "indexed": false,
          "internalType": "address",
          "name": "buyer",
          "type": "address"
        },
        {
          "indexed": false,
          "internalType": "uint256",
          "name": "timestamp",
          "type": "uint256"
        }
      ],
      "name": "LogCreateBuyOrder",
      "type": "event"
    },
    {
      "anonymous": false,
      "inputs": [
        {
          "indexed": false,
          "internalType": "string",
          "name": "symbolName1",
          "type": "string"
        },
        {
          "indexed": false,
          "internalType": "string",
          "name": "symbolName2",
          "type": "string"
        },
        {
          "indexed": false,
          "internalType": "uint256",
          "name": "price",
          "type": "uint256"
        },
        {
          "indexed": false,
          "internalType": "uint256",
          "name": "amount",
          "type": "uint256"
        },
        {
          "indexed": false,
          "internalType": "address",
          "name": "seller",
          "type": "address"
        },
        {
          "indexed": false,
          "internalType": "uint256",
          "name": "timestamp",
          "type": "uint256"
        }
      ],
      "name": "LogCreateSellOrder",
      "type": "event"
    },
    {
      "anonymous": false,
      "inputs": [
        {
          "indexed": false,
          "internalType": "string",
          "name": "symbolName",
          "type": "string"
        },
        {
          "indexed": false,
          "internalType": "address",
          "name": "accountAddress",
          "type": "address"
        },
        {
          "indexed": false,
          "internalType": "uint256",
          "name": "amount",
          "type": "uint256"
        },
        {
          "indexed": false,
          "internalType": "uint256",
          "name": "timestamp",
          "type": "uint256"
        }
      ],
      "name": "LogDepositToken",
      "type": "event"
    },
    {
      "anonymous": false,
      "inputs": [
        {
          "indexed": false,
          "internalType": "uint8",
          "name": "typeOfOrder",
          "type": "uint8"
        },
        {
          "indexed": false,
          "internalType": "uint8",
          "name": "symbolName1",
          "type": "uint8"
        },
        {
          "indexed": false,
          "internalType": "uint8",
          "name": "symbolName2",
          "type": "uint8"
        },
        {
          "indexed": false,
          "internalType": "uint256",
          "name": "price",
          "type": "uint256"
        },
        {
          "indexed": false,
          "internalType": "uint256",
          "name": "amount",
          "type": "uint256"
        },
        {
          "indexed": false,
          "internalType": "uint256",
          "name": "timestamp",
          "type": "uint256"
        }
      ],
      "name": "LogFulfillOrder",
      "type": "event"
    },
    {
      "anonymous": false,
      "inputs": [
        {
          "indexed": false,
          "internalType": "string",
          "name": "symbolName1",
          "type": "string"
        },
        {
          "indexed": false,
          "internalType": "string",
          "name": "symbolName2",
          "type": "string"
        },
        {
          "indexed": false,
          "internalType": "uint256",
          "name": "price",
          "type": "uint256"
        },
        {
          "indexed": false,
          "internalType": "uint256",
          "name": "amount",
          "type": "uint256"
        },
        {
          "indexed": false,
          "internalType": "address",
          "name": "buyer",
          "type": "address"
        },
        {
          "indexed": false,
          "internalType": "uint256",
          "name": "timestamp",
          "type": "uint256"
        }
      ],
      "name": "LogSellToken",
      "type": "event"
    },
    {
      "anonymous": false,
      "inputs": [
        {
          "indexed": false,
          "internalType": "string",
          "name": "symbolName",
          "type": "string"
        },
        {
          "indexed": false,
          "internalType": "address",
          "name": "accountAddress",
          "type": "address"
        },
        {
          "indexed": false,
          "internalType": "uint256",
          "name": "amount",
          "type": "uint256"
        },
        {
          "indexed": false,
          "internalType": "uint256",
          "name": "timestamp",
          "type": "uint256"
        }
      ],
      "name": "LogWithdrawToken",
      "type": "event"
    },
    {
      "anonymous": false,
      "inputs": [
        {
          "indexed": true,
          "internalType": "address",
          "name": "previousOwner",
          "type": "address"
        },
        {
          "indexed": true,
          "internalType": "address",
          "name": "newOwner",
          "type": "address"
        }
      ],
      "name": "OwnershipTransferred",
      "type": "event"
    },
    {
      "inputs": [
        {
          "internalType": "string",
          "name": "symbolName",
          "type": "string"
        }
      ],
      "name": "addMarket",
      "outputs": [],
      "stateMutability": "nonpayable",
      "type": "function"
    },
    {
      "inputs": [
        {
          "internalType": "string",
          "name": "symbolName",
          "type": "string"
        },
        {
          "internalType": "address",
          "name": "EC20TokenAddress",
          "type": "address"
        }
      ],
      "name": "addToken",
      "outputs": [],
      "stateMutability": "nonpayable",
      "type": "function"
    },
    {
      "inputs": [
        {
          "internalType": "uint8",
          "name": "typeOfOrder",
          "type": "uint8"
        },
        {
          "internalType": "string",
          "name": "buyTokenSymbol",
          "type": "string"
        },
        {
          "internalType": "string",
          "name": "sellTokenSymbol",
          "type": "string"
        },
        {
          "internalType": "uint256",
          "name": "orderIndex",
          "type": "uint256"
        }
      ],
      "name": "cancelOrder",
      "outputs": [],
      "stateMutability": "nonpayable",
      "type": "function"
    },
    {
      "inputs": [
        {
          "internalType": "uint8",
          "name": "typeOfOrder",
          "type": "uint8"
        },
        {
          "internalType": "string",
          "name": "buySymbolName",
          "type": "string"
        },
        {
          "internalType": "string",
          "name": "sellSymbolName",
          "type": "string"
        },
        {
          "internalType": "uint256",
          "name": "price",
          "type": "uint256"
        },
        {
          "internalType": "uint256",
          "name": "quantity",
          "type": "uint256"
        },
        {
          "internalType": "bool",
          "name": "isMarketOrder",
          "type": "bool"
        }
      ],
      "name": "createOrder",
      "outputs": [],
      "stateMutability": "nonpayable",
      "type": "function"
    },
    {
      "inputs": [
        {
          "internalType": "string",
          "name": "symbolName",
          "type": "string"
        },
        {
          "internalType": "uint256",
          "name": "amount",
          "type": "uint256"
        }
      ],
      "name": "depositToken",
      "outputs": [
        {
          "internalType": "uint256",
          "name": "tokenBalance",
          "type": "uint256"
        }
      ],
      "stateMutability": "nonpayable",
      "type": "function"
    },
    {
      "inputs": [],
      "name": "getAllMarkets",
      "outputs": [
        {
          "internalType": "string[]",
          "name": "",
          "type": "string[]"
        },
        {
          "internalType": "string[]",
          "name": "",
          "type": "string[]"
        }
      ],
      "stateMutability": "view",
      "type": "function"
    },
    {
      "inputs": [],
      "name": "getAllTokenBalanceForUser",
      "outputs": [
        {
          "internalType": "string[]",
          "name": "",
          "type": "string[]"
        },
        {
          "internalType": "uint256[]",
          "name": "",
          "type": "uint256[]"
        }
      ],
      "stateMutability": "view",
      "type": "function"
    },
    {
      "inputs": [],
      "name": "getAllTokens",
      "outputs": [
        {
          "internalType": "string[]",
          "name": "",
          "type": "string[]"
        },
        {
          "internalType": "address[]",
          "name": "",
          "type": "address[]"
        }
      ],
      "stateMutability": "view",
      "type": "function"
    },
    {
      "inputs": [
        {
          "internalType": "uint8",
          "name": "buyTokenIndex",
          "type": "uint8"
        },
        {
          "internalType": "uint8",
          "name": "sellTokenIndex",
          "type": "uint8"
        }
      ],
      "name": "getMarketIndex",
      "outputs": [
        {
          "internalType": "uint8",
          "name": "",
          "type": "uint8"
        }
      ],
      "stateMutability": "view",
      "type": "function"
    },
    {
      "inputs": [],
      "name": "getMarketIndex",
      "outputs": [
        {
          "internalType": "uint8",
          "name": "",
          "type": "uint8"
        }
      ],
      "stateMutability": "view",
      "type": "function"
    },
    {
      "inputs": [
        {
          "internalType": "string",
          "name": "buyTokenSymbol",
          "type": "string"
        },
        {
          "internalType": "string",
          "name": "sellTokenSymbol",
          "type": "string"
        }
      ],
      "name": "getMarketIndex",
      "outputs": [
        {
          "internalType": "uint8",
          "name": "",
          "type": "uint8"
        }
      ],
      "stateMutability": "view",
      "type": "function"
    },
    {
      "inputs": [
        {
          "internalType": "uint8",
          "name": "buyTokenIndex",
          "type": "uint8"
        },
        {
          "internalType": "uint8",
          "name": "sellTokenIndex",
          "type": "uint8"
        },
        {
          "internalType": "uint8",
          "name": "type_of_order",
          "type": "uint8"
        }
      ],
      "name": "getOrderBook",
      "outputs": [
        {
          "internalType": "uint256[]",
          "name": "",
          "type": "uint256[]"
        },
        {
          "internalType": "uint256[]",
          "name": "",
          "type": "uint256[]"
        },
        {
          "internalType": "uint256[]",
          "name": "",
          "type": "uint256[]"
        }
      ],
      "stateMutability": "view",
      "type": "function"
    },
    {
      "inputs": [
        {
          "internalType": "string",
          "name": "symbolName",
          "type": "string"
        }
      ],
      "name": "getTokenBalanceForUser",
      "outputs": [
        {
          "internalType": "uint256",
          "name": "",
          "type": "uint256"
        }
      ],
      "stateMutability": "view",
      "type": "function"
    },
    {
      "inputs": [
        {
          "internalType": "string",
          "name": "symbolName",
          "type": "string"
        }
      ],
      "name": "getTokenIndex",
      "outputs": [
        {
          "internalType": "uint8",
          "name": "",
          "type": "uint8"
        }
      ],
      "stateMutability": "view",
      "type": "function"
    },
    {
      "inputs": [
        {
          "internalType": "string",
          "name": "symbolName",
          "type": "string"
        }
      ],
      "name": "hasToken",
      "outputs": [
        {
          "internalType": "bool",
          "name": "",
          "type": "bool"
        }
      ],
      "stateMutability": "view",
      "type": "function"
    },
    {
      "inputs": [],
      "name": "owner",
      "outputs": [
        {
          "internalType": "address",
          "name": "",
          "type": "address"
        }
      ],
      "stateMutability": "view",
      "type": "function"
    },
    {
      "inputs": [],
      "name": "renounceOwnership",
      "outputs": [],
      "stateMutability": "nonpayable",
      "type": "function"
    },
    {
      "inputs": [
        {
          "internalType": "address",
          "name": "newOwner",
          "type": "address"
        }
      ],
      "name": "transferOwnership",
      "outputs": [],
      "stateMutability": "nonpayable",
      "type": "function"
    },
    {
      "inputs": [
        {
          "internalType": "string",
          "name": "symbolName",
          "type": "string"
        },
        {
          "internalType": "uint256",
          "name": "amount",
          "type": "uint256"
        }
      ],
      "name": "withdrawToken",
      "outputs": [
        {
          "internalType": "uint256",
          "name": "tokenBalance",
          "type": "uint256"
        }
      ],
      "stateMutability": "nonpayable",
      "type": "function"
    }
  ],
  "transactionHash": "0x3211628857d8398cba121610137cf9a891b4471699b643521596ad10f48b45da",
  "args": [],
  "numDeployments": 1,
  "solcInputHash": "5bc784d8242ff6ee2ee5350f8905bd6e",
  "bytecode": "0x60806040523480156200001157600080fd5b5062000032620000266200007060201b60201c565b6200007860201b60201c565b6000600560006101000a81548160ff021916908360ff1602179055506000600560016101000a81548160ff021916908360ff1602179055506200013c565b600033905090565b60008060009054906101000a900473ffffffffffffffffffffffffffffffffffffffff169050816000806101000a81548173ffffffffffffffffffffffffffffffffffffffff021916908373ffffffffffffffffffffffffffffffffffffffff1602179055508173ffffffffffffffffffffffffffffffffffffffff168173ffffffffffffffffffffffffffffffffffffffff167f8be0079c531659141344cd1fd0a4f28419497f9722a3daafe3b4186f6b6457e060405160405180910390a35050565b6160c6806200014c6000396000f3fe608060405234801561001057600080fd5b50600436106101215760003560e01c80638da5cb5b116100ad578063cb803ceb11610071578063cb803ceb14610335578063cedd00b114610353578063edb0e9b914610383578063f2fde38b1461039f578063f7499762146103bb57610121565b80638da5cb5b1461027c5780638ea008181461029a578063b0772d0b146102ca578063b0b22c2c146102e9578063c97a413a1461030557610121565b806361a6d43a116100f457806361a6d43a146101c15780636409d48d146101f3578063715018a61461021257806384cde3691461021c5780638883b10c1461024c57610121565b80632a5c792a1461012657806333ad57e41461014557806342fe6695146101755780635f96876714610191575b600080fd5b61012e6103d7565b60405161013c929190614935565b60405180910390f35b61015f600480360381019061015a9190614aeb565b61064b565b60405161016c9190614b56565b60405180910390f35b61018f600480360381019061018a9190614b71565b6108c4565b005b6101ab60048036038101906101a69190614b71565b610b8f565b6040516101b89190614bd6565b60405180910390f35b6101db60048036038101906101d69190614c1d565b610c18565b6040516101ea93929190614d2e565b60405180910390f35b6101fb611091565b604051610209929190614d7a565b60405180910390f35b61021a611432565b005b61023660048036038101906102319190614db1565b611446565b6040516102439190614bd6565b60405180910390f35b61026660048036038101906102619190614b71565b6115c9565b6040516102739190614b56565b60405180910390f35b610284611631565b6040516102919190614e00565b60405180910390f35b6102b460048036038101906102af9190614b71565b61165a565b6040516102c19190614e36565b60405180910390f35b6102d2611714565b6040516102e0929190614e51565b60405180910390f35b61030360048036038101906102fe9190614eb4565b611c31565b005b61031f600480360381019061031a9190614aeb565b611e45565b60405161032c9190614b56565b60405180910390f35b61033d612007565b60405161034a9190614bd6565b60405180910390f35b61036d60048036038101906103689190614f10565b61201e565b60405161037a9190614bd6565b60405180910390f35b61039d60048036038101906103989190614fb4565b612203565b005b6103b960048036038101906103b49190615079565b612757565b005b6103d560048036038101906103d091906150a6565b6127da565b005b6060806000600560009054906101000a900460ff1660ff1667ffffffffffffffff8111156104085761040761498a565b5b60405190808252806020026020018201604052801561043b57816020015b60608152602001906001900390816104265790505b5090506000600560009054906101000a900460ff1660ff1667ffffffffffffffff81111561046c5761046b61498a565b5b60405190808252806020026020018201604052801561049a5781602001602082028036833780820191505090505b5090506000600190505b600560009054906101000a900460ff1660ff168160ff161161063e57600160008260ff1660ff16815260200190815260200160002060010180546104e790615174565b80601f016020809104026020016040519081016040528092919081815260200182805461051390615174565b80156105605780601f1061053557610100808354040283529160200191610560565b820191906000526020600020905b81548152906001019060200180831161054357829003601f168201915b50505050508360018361057391906151d4565b60ff168151811061058757610586615209565b5b6020026020010181905250600160008260ff1660ff16815260200190815260200160002060000160009054906101000a900473ffffffffffffffffffffffffffffffffffffffff16826001836105dd91906151d4565b60ff16815181106105f1576105f0615209565b5b602002602001019073ffffffffffffffffffffffffffffffffffffffff16908173ffffffffffffffffffffffffffffffffffffffff1681525050808061063690615238565b9150506104a4565b5081819350935050509091565b60006106568361165a565b610695576040517f08c379a000000000000000000000000000000000000000000000000000000000815260040161068c906152be565b60405180910390fd5b61069e836115c9565b826106a8856115c9565b6106b291906152de565b10156106f3576040517f08c379a00000000000000000000000000000000000000000000000000000000081526004016106ea9061535e565b60405180910390fd5b60006106fe84610b8f565b905082600260003373ffffffffffffffffffffffffffffffffffffffff1673ffffffffffffffffffffffffffffffffffffffff16815260200190815260200160002060008360ff1660ff168152602001908152602001600020600082825461076691906152de565b925050819055506000600160008360ff1660ff16815260200190815260200160002060000160009054906101000a900473ffffffffffffffffffffffffffffffffffffffff169050600115158173ffffffffffffffffffffffffffffffffffffffff166323b872dd3330886040518463ffffffff1660e01b81526004016107ef9392919061537e565b6020604051808303816000875af115801561080e573d6000803e3d6000fd5b505050506040513d601f19601f8201168201806040525081019061083291906153ca565b151514610874576040517f08c379a000000000000000000000000000000000000000000000000000000000815260040161086b90615443565b60405180910390fd5b7f4dbc01516018d27f28f32ddd20595428f662140f1fff79b754484578ac27fc19853386426040516108a9949392919061549c565b60405180910390a16108ba856115c9565b9250505092915050565b6108cc612cd8565b600560019054906101000a900460ff1660ff166001600560019054906101000a900460ff166108fb91906154e8565b60ff16101561093f576040517f08c379a000000000000000000000000000000000000000000000000000000000815260040161093690615569565b60405180910390fd5b6000600190505b600560009054906101000a900460ff1660ff168160ff161015610af0576109b86040518060400160405280600e81526020017f416464696e67206d61726b657420000000000000000000000000000000000000815250600560009054906101000a900460ff1660ff168360ff16612d56565b6005600181819054906101000a900460ff16809291906109d790615238565b91906101000a81548160ff021916908360ff160217905550506000600267ffffffffffffffff811115610a0d57610a0c61498a565b5b604051908082528060200260200182016040528015610a3b5781602001602082028036833780820191505090505b509050600560009054906101000a900460ff1681600081518110610a6257610a61615209565b5b602002602001019060ff16908160ff16815250508181600181518110610a8b57610a8a615209565b5b602002602001019060ff16908160ff16815250508060036000600560019054906101000a900460ff1660ff1660ff1681526020019081526020016000209080519060200190610adb9291906145e2565b50508080610ae890615238565b915050610946565b50610b426040518060400160405280600e81526020017f546f74616c206d61726b65747320000000000000000000000000000000000000815250600560019054906101000a900460ff1660ff16612df5565b7f8877b3481be0c4a9d298c35f0e291fd2f61a153f7d22354a14c44c8266a5a754600560019054906101000a900460ff168242604051610b84939291906155c4565b60405180910390a150565b600080600190505b600560009054906101000a900460ff1660ff168160ff1611610c0d57600160008260ff1660ff168152602001908152602001600020600101604051610bdc91906156a5565b6040518091039020838051906020012003610bfa5780915050610c13565b8080610c0590615238565b915050610b97565b50600090505b919050565b6060806060610c5b6040518060400160405280600d81526020017f4765744f72646572626f6f6b2000000000000000000000000000000000000000815250612e91565b610c9d6040518060400160405280600d81526020017f747970655f6f665f6f72646572000000000000000000000000000000000000008152508560ff16612df5565b6000610ca98787611446565b90506000600460008360ff1660ff16815260200190815260200160002060000160008760ff1660ff1681526020019081526020016000209050610cee8260ff16612f2a565b6000816002015467ffffffffffffffff811115610d0e57610d0d61498a565b5b604051908082528060200260200182016040528015610d3c5781602001602082028036833780820191505090505b5090506000826002015467ffffffffffffffff811115610d5f57610d5e61498a565b5b604051908082528060200260200182016040528015610d8d5781602001602082028036833780820191505090505b5090506000836002015467ffffffffffffffff811115610db057610daf61498a565b5b604051908082528060200260200182016040528015610dde5781602001602082028036833780820191505090505b509050610e246040518060400160405280601681526020017f6f726465725f626f6f6b2e6f7264657273436f756e74000000000000000000008152508560020154612df5565b6000600190505b8460020154811161107957600085600101600087600301600185610e4f91906156bc565b81548110610e6057610e5f615209565b5b906000526020600020015481526020019081526020016000206040518060800160405290816000820154815260200160018201548152602001600282015481526020016003820160009054906101000a900473ffffffffffffffffffffffffffffffffffffffff1673ffffffffffffffffffffffffffffffffffffffff1673ffffffffffffffffffffffffffffffffffffffff1681525050905085600301600183610f0b91906156bc565b81548110610f1c57610f1b615209565b5b906000526020600020015485600184610f3591906156bc565b81518110610f4657610f45615209565b5b602002602001018181525050806020015184600184610f6591906156bc565b81518110610f7657610f75615209565b5b602002602001018181525050806000015183600184610f9591906156bc565b81518110610fa657610fa5615209565b5b6020026020010181815250506110656040518060400160405280600f81526020017f656e747279206f72646572626f6f6b000000000000000000000000000000000081525086600185610ff991906156bc565b8151811061100a57611009615209565b5b60200260200101518660018661102091906156bc565b8151811061103157611030615209565b5b60200260200101518660018761104791906156bc565b8151811061105857611057615209565b5b6020026020010151612fc3565b508080611071906156f0565b915050610e2b565b50828282975097509750505050505093509350939050565b6060806000600560009054906101000a900460ff1660ff1667ffffffffffffffff8111156110c2576110c161498a565b5b6040519080825280602002602001820160405280156110f557816020015b60608152602001906001900390816110e05790505b5090506000600560009054906101000a900460ff1660ff1667ffffffffffffffff8111156111265761112561498a565b5b6040519080825280602002602001820160405280156111545781602001602082028036833780820191505090505b5090506000600190505b600560009054906101000a900460ff1660ff168160ff1611611425576112656040518060400160405280600881526020017f62616c616e636520000000000000000000000000000000000000000000000000815250611260600160008560ff1660ff16815260200190815260200160002060010180546111dd90615174565b80601f016020809104026020016040519081016040528092919081815260200182805461120990615174565b80156112565780601f1061122b57610100808354040283529160200191611256565b820191906000526020600020905b81548152906001019060200180831161123957829003601f168201915b50505050506115c9565b612df5565b600160008260ff1660ff168152602001908152602001600020600101805461128c90615174565b80601f01602080910402602001604051908101604052809291908181526020018280546112b890615174565b80156113055780601f106112da57610100808354040283529160200191611305565b820191906000526020600020905b8154815290600101906020018083116112e857829003601f168201915b50505050508360018361131891906151d4565b60ff168151811061132c5761132b615209565b5b60200260200101819052506113e4600160008360ff1660ff168152602001908152602001600020600101805461136190615174565b80601f016020809104026020016040519081016040528092919081815260200182805461138d90615174565b80156113da5780601f106113af576101008083540402835291602001916113da565b820191906000526020600020905b8154815290600101906020018083116113bd57829003601f168201915b50505050506115c9565b826001836113f291906151d4565b60ff168151811061140657611405615209565b5b602002602001018181525050808061141d90615238565b91505061115e565b5081819350935050509091565b61143a612cd8565b6114446000613065565b565b600080600190505b600560019054906101000a900460ff1660ff168160ff161161157d57600360008260ff1660ff16815260200190815260200160002060008154811061149657611495615209565b5b90600052602060002090602091828204019190069054906101000a900460ff1660ff168460ff1614801561151a5750600360008260ff1660ff1681526020019081526020016000206001815481106114f1576114f0615209565b5b90600052602060002090602091828204019190069054906101000a900460ff1660ff168360ff16145b1561156a576115616040518060400160405280601781526020017f52657475726e696e67206d61726b657420696e646578200000000000000000008152508260ff16612df5565b809150506115c3565b808061157590615238565b91505061144e565b506115be6040518060400160405280601781526020017f52657475726e696e67206d61726b657420696e646578200000000000000000008152506000612df5565b600090505b92915050565b6000600260003373ffffffffffffffffffffffffffffffffffffffff1673ffffffffffffffffffffffffffffffffffffffff168152602001908152602001600020600061161584610b8f565b60ff1660ff168152602001908152602001600020549050919050565b60008060009054906101000a900473ffffffffffffffffffffffffffffffffffffffff16905090565b600080600190505b600560009054906101000a900460ff1660ff168160ff161161170957600160008260ff1660ff1681526020019081526020016000206001016040516020016116aa91906157db565b60405160208183030381529060405280519060200120836040516020016116d19190615823565b60405160208183030381529060405280519060200120036116f657600191505061170f565b808061170190615238565b915050611662565b50600090505b919050565b6060806000600560019054906101000a900460ff1660ff1667ffffffffffffffff8111156117455761174461498a565b5b60405190808252806020026020018201604052801561177857816020015b60608152602001906001900390816117635790505b5090506000600560019054906101000a900460ff1660ff1667ffffffffffffffff8111156117a9576117a861498a565b5b6040519080825280602002602001820160405280156117dc57816020015b60608152602001906001900390816117c75790505b5090506118306040518060400160405280600f81526020017f6d61726b657473206e756d626572200000000000000000000000000000000000815250600560019054906101000a900460ff1660ff16612df5565b6000600190505b600560019054906101000a900460ff1660ff168160ff1611611c24576119d76040518060400160405280600781526020017f4d61726b6574200000000000000000000000000000000000000000000000000081525060016000600260ff16815260200190815260200160002060010180546118b190615174565b80601f01602080910402602001604051908101604052809291908181526020018280546118dd90615174565b801561192a5780601f106118ff5761010080835404028352916020019161192a565b820191906000526020600020905b81548152906001019060200180831161190d57829003601f168201915b505050505060016000600160ff168152602001908152602001600020600101805461195490615174565b80601f016020809104026020016040519081016040528092919081815260200182805461198090615174565b80156119cd5780601f106119a2576101008083540402835291602001916119cd565b820191906000526020600020905b8154815290600101906020018083116119b057829003601f168201915b5050505050613129565b60016000600360008460ff1660ff168152602001908152602001600020600081548110611a0757611a06615209565b5b90600052602060002090602091828204019190069054906101000a900460ff1660ff1660ff1681526020019081526020016000206001018054611a4990615174565b80601f0160208091040260200160405190810160405280929190818152602001828054611a7590615174565b8015611ac25780601f10611a9757610100808354040283529160200191611ac2565b820191906000526020600020905b815481529060010190602001808311611aa557829003601f168201915b505050505083600183611ad591906151d4565b60ff1681518110611ae957611ae8615209565b5b602002602001018190525060016000600360008460ff1660ff168152602001908152602001600020600181548110611b2457611b23615209565b5b90600052602060002090602091828204019190069054906101000a900460ff1660ff1660ff1681526020019081526020016000206001018054611b6690615174565b80601f0160208091040260200160405190810160405280929190818152602001828054611b9290615174565b8015611bdf5780601f10611bb457610100808354040283529160200191611bdf565b820191906000526020600020905b815481529060010190602001808311611bc257829003601f168201915b505050505082600183611bf291906151d4565b60ff1681518110611c0657611c05615209565b5b60200260200101819052508080611c1c90615238565b915050611837565b5081819350935050509091565b611c39612cd8565b611c428261165a565b15611c82576040517f08c379a0000000000000000000000000000000000000000000000000000000008152600401611c7990615886565b60405180910390fd5b600560009054906101000a900460ff1660ff166001600560009054906101000a900460ff16611cb191906154e8565b60ff161015611cf5576040517f08c379a0000000000000000000000000000000000000000000000000000000008152600401611cec906158f2565b60405180910390fd5b6005600081819054906101000a900460ff1680929190611d1490615238565b91906101000a81548160ff021916908360ff160217905550508160016000600560009054906101000a900460ff1660ff1660ff1681526020019081526020016000206001019081611d659190615a9f565b508060016000600560009054906101000a900460ff1660ff1660ff16815260200190815260200160002060000160006101000a81548173ffffffffffffffffffffffffffffffffffffffff021916908373ffffffffffffffffffffffffffffffffffffffff1602179055506001600560009054906101000a900460ff1660ff161115611df557611df4826108c4565b5b7f1723c709bc871c32c420d3c2d2837cdd4bef40c574088c1d055e1f4f609d2377600560009054906101000a900460ff16838342604051611e399493929190615b71565b60405180910390a15050565b6000611e508361165a565b611e5957600080fd5b611e62836115c9565b821115611e6e57600080fd5b6000611e7984610b8f565b905082600260003373ffffffffffffffffffffffffffffffffffffffff1673ffffffffffffffffffffffffffffffffffffffff16815260200190815260200160002060008360ff1660ff1681526020019081526020016000206000828254611ee191906156bc565b925050819055506000600160008360ff1660ff16815260200190815260200160002060000160009054906101000a900473ffffffffffffffffffffffffffffffffffffffff169050600115158173ffffffffffffffffffffffffffffffffffffffff1663a9059cbb33876040518363ffffffff1660e01b8152600401611f68929190615bbd565b6020604051808303816000875af1158015611f87573d6000803e3d6000fd5b505050506040513d601f19601f82011682018060405250810190611fab91906153ca565b151514611fb757600080fd5b7fc0a144e0d9af86fa328820e6f7f9e66f6e2a7248ff06a92aa13dc1f01e26934f85338642604051611fec949392919061549c565b60405180910390a1611ffd856115c9565b9250505092915050565b6000600560019054906101000a900460ff16905090565b600080600190505b600560019054906101000a900460ff1660ff168160ff16116121b75760016000600360008460ff1660ff16815260200190815260200160002060008154811061207257612071615209565b5b90600052602060002090602091828204019190069054906101000a900460ff1660ff1660ff1681526020019081526020016000206001016040516120b691906156a5565b60405180910390208480519060200120148015612154575060016000600360008460ff1660ff1681526020019081526020016000206001815481106120fe576120fd615209565b5b90600052602060002090602091828204019190069054906101000a900460ff1660ff1660ff16815260200190815260200160002060010160405161214291906156a5565b60405180910390208380519060200120145b156121a45761219b6040518060400160405280601781526020017f52657475726e696e67206d61726b657420696e646578200000000000000000008152508260ff16612df5565b809150506121fd565b80806121af90615238565b915050612026565b506121f86040518060400160405280601781526020017f52657475726e696e67206d61726b657420696e646578200000000000000000008152506000612df5565b600090505b92915050565b6122416040518060400160405280600e81526020017f6372656174696e67206f72646572000000000000000000000000000000000000815250612e91565b61224a8561165a565b612289576040517f08c379a0000000000000000000000000000000000000000000000000000000008152600401612280906152be565b60405180910390fd5b6122928461165a565b6122d1576040517f08c379a00000000000000000000000000000000000000000000000000000000081526004016122c8906152be565b60405180910390fd5b6123136040518060400160405280600e81526020017f6372656174696e67206f726465720000000000000000000000000000000000008152508760ff16612df5565b60008060008085905060008a60ff16036123f85761233089610b8f565b935061233b88610b8f565b9250841580156123ac575085876123529190615be6565b600260003373ffffffffffffffffffffffffffffffffffffffff1673ffffffffffffffffffffffffffffffffffffffff16815260200190815260200160002060008560ff1660ff1681526020019081526020016000205410155b806123b45750845b6123f3576040517f08c379a00000000000000000000000000000000000000000000000000000000081526004016123ea90615c74565b60405180910390fd5b6124c5565b61240188610b8f565b935061240c89610b8f565b92508415801561247d575085876124239190615be6565b600260003373ffffffffffffffffffffffffffffffffffffffff1673ffffffffffffffffffffffffffffffffffffffff16815260200190815260200160002060008660ff1660ff1681526020019081526020016000205410155b806124855750845b6124c4576040517f08c379a00000000000000000000000000000000000000000000000000000000081526004016124bb90615c74565b60405180910390fd5b5b6124cf8484611446565b91506000808b60ff16146124e45760006124e7565b60015b905061252b6040518060400160405280600581526020017f696e6465780000000000000000000000000000000000000000000000000000008152508260ff16612df5565b6000600460008560ff1660ff16815260200190815260200160002060000160008360ff1660ff1681526020019081526020016000206002015411156125b0576125ad81868660405180608001604052808c81526020018d81526020014281526020013373ffffffffffffffffffffffffffffffffffffffff168152508a6131c8565b91505b600082111561260857600060405180608001604052808481526020018a81526020014281526020013373ffffffffffffffffffffffffffffffffffffffff168152509050866126065761260586868e84613d8e565b5b505b60008b60ff160361269057818861261f9190615be6565b600260003373ffffffffffffffffffffffffffffffffffffffff1673ffffffffffffffffffffffffffffffffffffffff16815260200190815260200160002060008660ff1660ff168152602001908152602001600020600082825461268491906156bc565b92505081905550612709565b818861269c9190615be6565b600260003373ffffffffffffffffffffffffffffffffffffffff1673ffffffffffffffffffffffffffffffffffffffff16815260200190815260200160002060008760ff1660ff168152602001908152602001600020600082825461270191906156bc565b925050819055505b7f11340760e313c90226d3979be72d7e5c52ef1aa822d8e8acf10e1c0dc73c0a208a8a8a85334260405161274296959493929190615c94565b60405180910390a15050505050505050505050565b61275f612cd8565b600073ffffffffffffffffffffffffffffffffffffffff168173ffffffffffffffffffffffffffffffffffffffff16036127ce576040517f08c379a00000000000000000000000000000000000000000000000000000000081526004016127c590615d75565b60405180910390fd5b6127d781613065565b50565b6127e38361165a565b6127ec57600080fd5b6127f58261165a565b6127fe57600080fd5b6000806000808760ff16036128285761281686610b8f565b925061282185610b8f565b915061283f565b61283185610b8f565b925061283c86610b8f565b91505b6000600460008360ff1660ff16815260200190815260200160002060000160008960ff1660ff168152602001908152602001600020600201541161288257600080fd5b60008060006001600460008660ff1660ff16815260200190815260200160002060000160008c60ff1660ff168152602001908152602001600020600201546128ca91906156bc565b67ffffffffffffffff8111156128e3576128e261498a565b5b6040519080825280602002602001820160405280156129115781602001602082028036833780820191505090505b50905060008060005b600460008860ff1660ff16815260200190815260200160002060000160008e60ff1660ff16815260200190815260200160002060020154811015612ae857600460008860ff1660ff16815260200190815260200160002060000160008e60ff1660ff16815260200190815260200160002060030181815481106129a05761299f615209565b5b90600052602060002001548a03612a545760019550600460008860ff1660ff16815260200190815260200160002060000160008e60ff1660ff16815260200190815260200160002060010160008b8152602001908152602001600020600101549250600460008860ff1660ff16815260200190815260200160002060000160008e60ff1660ff16815260200190815260200160002060010160008b8152602001908152602001600020600001549150612ad5565b600460008860ff1660ff16815260200190815260200160002060000160008e60ff1660ff1681526020019081526020016000206003018181548110612a9c57612a9b615209565b5b9060005260206000200154848681518110612aba57612ab9615209565b5b6020026020010181815250508480612ad1906156f0565b9550505b8080612ae0906156f0565b91505061291a565b5084612af357600080fd5b600460008760ff1660ff16815260200190815260200160002060000160008d60ff1660ff1681526020019081526020016000206002016000815480929190612b3a90615d95565b919050555082600460008860ff1660ff16815260200190815260200160002060000160008e60ff1660ff1681526020019081526020016000206003019080519060200190612b89929190614689565b5060008c60ff1603612c12578082612ba19190615be6565b600260003373ffffffffffffffffffffffffffffffffffffffff1673ffffffffffffffffffffffffffffffffffffffff16815260200190815260200160002060008960ff1660ff1681526020019081526020016000206000828254612c0691906152de565b92505081905550612c8b565b8082612c1e9190615be6565b600260003373ffffffffffffffffffffffffffffffffffffffff1673ffffffffffffffffffffffffffffffffffffffff16815260200190815260200160002060008a60ff1660ff1681526020019081526020016000206000828254612c8391906152de565b925050819055505b7f9a61c2300d2dd6e5e6c4d4860206d72177034372cf558a91f14cce7c88fb38dc8b8b8b3342604051612cc2959493929190615dbe565b60405180910390a1505050505050505050505050565b612ce061421a565b73ffffffffffffffffffffffffffffffffffffffff16612cfe611631565b73ffffffffffffffffffffffffffffffffffffffff1614612d54576040517f08c379a0000000000000000000000000000000000000000000000000000000008152600401612d4b90615e6b565b60405180910390fd5b565b612df0838383604051602401612d6e93929190615e8b565b6040516020818303038152906040527fca47c4eb000000000000000000000000000000000000000000000000000000007bffffffffffffffffffffffffffffffffffffffffffffffffffffffff19166020820180517bffffffffffffffffffffffffffffffffffffffffffffffffffffffff8381831617835250505050614222565b505050565b612e8d8282604051602401612e0b929190615ec9565b6040516020818303038152906040527fb60e72cc000000000000000000000000000000000000000000000000000000007bffffffffffffffffffffffffffffffffffffffffffffffffffffffff19166020820180517bffffffffffffffffffffffffffffffffffffffffffffffffffffffff8381831617835250505050614222565b5050565b612f2781604051602401612ea59190615ef9565b6040516020818303038152906040527f41304fac000000000000000000000000000000000000000000000000000000007bffffffffffffffffffffffffffffffffffffffffffffffffffffffff19166020820180517bffffffffffffffffffffffffffffffffffffffffffffffffffffffff8381831617835250505050614222565b50565b612fc081604051602401612f3e9190614b56565b6040516020818303038152906040527ff82c50f1000000000000000000000000000000000000000000000000000000007bffffffffffffffffffffffffffffffffffffffffffffffffffffffff19166020820180517bffffffffffffffffffffffffffffffffffffffffffffffffffffffff8381831617835250505050614222565b50565b61305f84848484604051602401612fdd9493929190615f1b565b6040516020818303038152906040527fa7a87853000000000000000000000000000000000000000000000000000000007bffffffffffffffffffffffffffffffffffffffffffffffffffffffff19166020820180517bffffffffffffffffffffffffffffffffffffffffffffffffffffffff8381831617835250505050614222565b50505050565b60008060009054906101000a900473ffffffffffffffffffffffffffffffffffffffff169050816000806101000a81548173ffffffffffffffffffffffffffffffffffffffff021916908373ffffffffffffffffffffffffffffffffffffffff1602179055508173ffffffffffffffffffffffffffffffffffffffff168173ffffffffffffffffffffffffffffffffffffffff167f8be0079c531659141344cd1fd0a4f28419497f9722a3daafe3b4186f6b6457e060405160405180910390a35050565b6131c383838360405160240161314193929190615f67565b6040516020818303038152906040527f2ced7cef000000000000000000000000000000000000000000000000000000007bffffffffffffffffffffffffffffffffffffffffffffffffffffffff19166020820180517bffffffffffffffffffffffffffffffffffffffffffffffffffffffff8381831617835250505050614222565b505050565b60006132086040518060400160405280601081526020017f696e2066756c66696c6c206f7264657200000000000000000000000000000000815250612e91565b60006132148686611446565b90506000600460008360ff1660ff16815260200190815260200160002060000160008960ff1660ff1681526020019081526020016000206002015490506132906040518060400160405280601081526020017f5f637572724f7264657273436f756e740000000000000000000000000000000081525082612df5565b6000805b82811015613d2f57600087600001510315613d2f576000600460008660ff1660ff16815260200190815260200160002060000160008c60ff1660ff16815260200190815260200160002060030182815481106132f3576132f2615209565b5b906000526020600020015490506000600460008760ff1660ff16815260200190815260200160002060000160008d60ff1660ff16815260200190815260200160002060010160008381526020019081526020016000206000015490506000600460008860ff1660ff16815260200190815260200160002060000160008e60ff1660ff168152602001908152602001600020600101600084815260200190815260200160002060030160009054906101000a900473ffffffffffffffffffffffffffffffffffffffff1690506133ff6040518060400160405280600f81526020017f496e2066756c66696c6c4f72646572000000000000000000000000000000000081525084848461424b565b60018d60ff1614801561345f5750600460008860ff1660ff16815260200190815260200160002060000160008e60ff1660ff1681526020019081526020016000206001016000848152602001908152602001600020600101548a60200151105b8015613469575088155b1561347657505050613d2f565b60008d60ff161480156134d65750600460008860ff1660ff16815260200190815260200160002060000160008e60ff1660ff1681526020019081526020016000206001016000848152602001908152602001600020600101548a60200151115b80156134e0575088155b156134ed57505050613d2f565b818a600001511061390257818a60000181815161350a91906156bc565b915081815250506000600460008960ff1660ff16815260200190815260200160002060000160008f60ff1660ff168152602001908152602001600020600101600085815260200190815260200160002060000181905550848061356c906156f0565b9550507f8e0f1287f1f458f620409868b99eada1c8f01cf7a235aa33543d4c29b230bde08d8d8d8d6020015186426040516135ac96959493929190615fb3565b60405180910390a160018d60ff16036137605781600260008373ffffffffffffffffffffffffffffffffffffffff1673ffffffffffffffffffffffffffffffffffffffff16815260200190815260200160002060008d60ff1660ff168152602001908152602001600020600082825461362591906152de565b9250508190555081600460008960ff1660ff16815260200190815260200160002060000160008f60ff1660ff1681526020019081526020016000206001016000858152602001908152602001600020600101546136829190615be6565b600260003373ffffffffffffffffffffffffffffffffffffffff1673ffffffffffffffffffffffffffffffffffffffff16815260200190815260200160002060008e60ff1660ff16815260200190815260200160002060008282546136e791906152de565b9250508190555081600260003373ffffffffffffffffffffffffffffffffffffffff1673ffffffffffffffffffffffffffffffffffffffff16815260200190815260200160002060008d60ff1660ff168152602001908152602001600020600082825461375491906156bc565b925050819055506138fd565b81600260008373ffffffffffffffffffffffffffffffffffffffff1673ffffffffffffffffffffffffffffffffffffffff16815260200190815260200160002060008e60ff1660ff16815260200190815260200160002060008282546137c691906152de565b9250508190555081600460008960ff1660ff16815260200190815260200160002060000160008f60ff1660ff1681526020019081526020016000206001016000858152602001908152602001600020600101546138239190615be6565b600260003373ffffffffffffffffffffffffffffffffffffffff1673ffffffffffffffffffffffffffffffffffffffff16815260200190815260200160002060008d60ff1660ff168152602001908152602001600020600082825461388891906152de565b9250508190555081600260003373ffffffffffffffffffffffffffffffffffffffff1673ffffffffffffffffffffffffffffffffffffffff16815260200190815260200160002060008e60ff1660ff16815260200190815260200160002060008282546138f591906156bc565b925050819055505b613d19565b8960000151600460008960ff1660ff16815260200190815260200160002060000160008f60ff1660ff1681526020019081526020016000206001016000858152602001908152602001600020600001600082825461396091906156bc565b925050819055507f8e0f1287f1f458f620409868b99eada1c8f01cf7a235aa33543d4c29b230bde08d8d8d8d6020015186426040516139a496959493929190615fb3565b60405180910390a160018d60ff1603613b64578960000151600260008373ffffffffffffffffffffffffffffffffffffffff1673ffffffffffffffffffffffffffffffffffffffff16815260200190815260200160002060008d60ff1660ff1681526020019081526020016000206000828254613a2191906152de565b925050819055508960000151600460008960ff1660ff16815260200190815260200160002060000160008f60ff1660ff168152602001908152602001600020600101600085815260200190815260200160002060010154613a829190615be6565b600260003373ffffffffffffffffffffffffffffffffffffffff1673ffffffffffffffffffffffffffffffffffffffff16815260200190815260200160002060008e60ff1660ff1681526020019081526020016000206000828254613ae791906152de565b925050819055508960000151600260008373ffffffffffffffffffffffffffffffffffffffff1673ffffffffffffffffffffffffffffffffffffffff16815260200190815260200160002060008d60ff1660ff1681526020019081526020016000206000828254613b5891906156bc565b92505081905550613d0d565b8960000151600260008373ffffffffffffffffffffffffffffffffffffffff1673ffffffffffffffffffffffffffffffffffffffff16815260200190815260200160002060008e60ff1660ff1681526020019081526020016000206000828254613bce91906152de565b925050819055508960000151600460008960ff1660ff16815260200190815260200160002060000160008f60ff1660ff168152602001908152602001600020600101600085815260200190815260200160002060010154613c2f9190615be6565b600260003373ffffffffffffffffffffffffffffffffffffffff1673ffffffffffffffffffffffffffffffffffffffff16815260200190815260200160002060008d60ff1660ff1681526020019081526020016000206000828254613c9491906152de565b925050819055508960000151600260008373ffffffffffffffffffffffffffffffffffffffff1673ffffffffffffffffffffffffffffffffffffffff16815260200190815260200160002060008e60ff1660ff1681526020019081526020016000206000828254613d0591906156bc565b925050819055505b60008a60000181815250505b5050508080613d27906156f0565b915050613294565b50613d6f6040518060400160405280601181526020017f4f72646572732066756c66696c6c65642000000000000000000000000000000081525082612df5565b613d7b82828b866142ed565b8560000151935050505095945050505050565b613dcc6040518060400160405280600c81526020017f496e20616464206f726465720000000000000000000000000000000000000000815250612e91565b6000613dd9858585610c18565b509150506000613de98686611446565b90506000600460008360ff1660ff16815260200190815260200160002060000160008660ff1660ff16815260200190815260200160002060000160008154613e30906156f0565b919050819055905060008167ffffffffffffffff811115613e5457613e5361498a565b5b604051908082528060200260200182016040528015613e825781602001602082028036833780820191505090505b509050600080600460008660ff1660ff16815260200190815260200160002060000160008960ff1660ff1681526020019081526020016000206002015403613eee578282600081518110613ed957613ed8615209565b5b6020026020010181815250506001905061404b565b6000805b600460008760ff1660ff16815260200190815260200160002060000160008a60ff1660ff168152602001908152602001600020600201548110156140225782158015613f5b5750868181518110613f4c57613f4b615209565b5b60200260200101518860200151115b15613f915784848380613f6d906156f0565b945081518110613f8057613f7f615209565b5b602002602001018181525050600192505b600460008760ff1660ff16815260200190815260200160002060000160008a60ff1660ff1681526020019081526020016000206003018181548110613fd957613fd8615209565b5b9060005260206000200154848380613ff0906156f0565b94508151811061400357614002615209565b5b602002602001018181525050808061401a906156f0565b915050613ef2565b5081614049578383828151811061403c5761403b615209565b5b6020026020010181815250505b505b81600460008660ff1660ff16815260200190815260200160002060000160008960ff1660ff1681526020019081526020016000206003019080519060200190614095929190614689565b50600460008560ff1660ff16815260200190815260200160002060000160008860ff1660ff16815260200190815260200160002060020160008154809291906140dd906156f0565b9190505550604051806080016040528087600001518152602001876020015181526020014281526020013373ffffffffffffffffffffffffffffffffffffffff16815250600460008660ff1660ff16815260200190815260200160002060000160008960ff1660ff168152602001908152602001600020600101600085815260200190815260200160002060008201518160000155602082015181600101556040820151816002015560608201518160030160006101000a81548173ffffffffffffffffffffffffffffffffffffffff021916908373ffffffffffffffffffffffffffffffffffffffff16021790555090505061420f6040518060400160405280600e81526020017f6973206f7264657220616464656400000000000000000000000000000000000081525082614546565b505050505050505050565b600033905090565b60008151905060006a636f6e736f6c652e6c6f679050602083016000808483855afa5050505050565b6142e7848484846040516024016142659493929190616014565b6040516020818303038152906040527fe21de278000000000000000000000000000000000000000000000000000000007bffffffffffffffffffffffffffffffffffffffffffffffffffffffff19166020820180517bffffffffffffffffffffffffffffffffffffffffffffffffffffffff8381831617835250505050614222565b50505050565b61432b6040518060400160405280601381526020017f5570646174696e67206f7264657220626f6f6b00000000000000000000000000815250612e91565b6000838561433991906156bc565b905060008167ffffffffffffffff8111156143575761435661498a565b5b6040519080825280602002602001820160405280156143855781602001602082028036833780820191505090505b50905060005b8281101561447c57600460008560ff1660ff16815260200190815260200160002060000160008660ff1660ff16815260200190815260200160002060030186826143d591906152de565b815481106143e6576143e5615209565b5b906000526020600020015482828151811061440457614403615209565b5b6020026020010181815250506144696040518060400160405280601681526020017f5f6e657753656c6c4f726465727351756575655b695d0000000000000000000081525083838151811061445c5761445b615209565b5b6020026020010151612df5565b8080614474906156f0565b91505061438b565b5081600460008560ff1660ff16815260200190815260200160002060000160008660ff1660ff1681526020019081526020016000206002018190555080600460008560ff1660ff16815260200190815260200160002060000160008660ff1660ff1681526020019081526020016000206003019080519060200190614502929190614689565b5081600460008560ff1660ff16815260200190815260200160002060000160008660ff1660ff16815260200190815260200160002060000181905550505050505050565b6145de828260405160240161455c929190616060565b6040516020818303038152906040527fc3b55635000000000000000000000000000000000000000000000000000000007bffffffffffffffffffffffffffffffffffffffffffffffffffffffff19166020820180517bffffffffffffffffffffffffffffffffffffffffffffffffffffffff8381831617835250505050614222565b5050565b82805482825590600052602060002090601f016020900481019282156146785791602002820160005b8382111561464957835183826101000a81548160ff021916908360ff160217905550926020019260010160208160000104928301926001030261460b565b80156146765782816101000a81549060ff0219169055600101602081600001049283019260010302614649565b505b50905061468591906146d6565b5090565b8280548282559060005260206000209081019282156146c5579160200282015b828111156146c45782518255916020019190600101906146a9565b5b5090506146d291906146d6565b5090565b5b808211156146ef5760008160009055506001016146d7565b5090565b600081519050919050565b600082825260208201905092915050565b6000819050602082019050919050565b600081519050919050565b600082825260208201905092915050565b60005b8381101561475957808201518184015260208101905061473e565b60008484015250505050565b6000601f19601f8301169050919050565b60006147818261471f565b61478b818561472a565b935061479b81856020860161473b565b6147a481614765565b840191505092915050565b60006147bb8383614776565b905092915050565b6000602082019050919050565b60006147db826146f3565b6147e581856146fe565b9350836020820285016147f78561470f565b8060005b85811015614833578484038952815161481485826147af565b945061481f836147c3565b925060208a019950506001810190506147fb565b50829750879550505050505092915050565b600081519050919050565b600082825260208201905092915050565b6000819050602082019050919050565b600073ffffffffffffffffffffffffffffffffffffffff82169050919050565b600061489c82614871565b9050919050565b6148ac81614891565b82525050565b60006148be83836148a3565b60208301905092915050565b6000602082019050919050565b60006148e282614845565b6148ec8185614850565b93506148f783614861565b8060005b8381101561492857815161490f88826148b2565b975061491a836148ca565b9250506001810190506148fb565b5085935050505092915050565b6000604082019050818103600083015261494f81856147d0565b9050818103602083015261496381846148d7565b90509392505050565b6000604051905090565b600080fd5b600080fd5b600080fd5b600080fd5b7f4e487b7100000000000000000000000000000000000000000000000000000000600052604160045260246000fd5b6149c282614765565b810181811067ffffffffffffffff821117156149e1576149e061498a565b5b80604052505050565b60006149f461496c565b9050614a0082826149b9565b919050565b600067ffffffffffffffff821115614a2057614a1f61498a565b5b614a2982614765565b9050602081019050919050565b82818337600083830152505050565b6000614a58614a5384614a05565b6149ea565b905082815260208101848484011115614a7457614a73614985565b5b614a7f848285614a36565b509392505050565b600082601f830112614a9c57614a9b614980565b5b8135614aac848260208601614a45565b91505092915050565b6000819050919050565b614ac881614ab5565b8114614ad357600080fd5b50565b600081359050614ae581614abf565b92915050565b60008060408385031215614b0257614b01614976565b5b600083013567ffffffffffffffff811115614b2057614b1f61497b565b5b614b2c85828601614a87565b9250506020614b3d85828601614ad6565b9150509250929050565b614b5081614ab5565b82525050565b6000602082019050614b6b6000830184614b47565b92915050565b600060208284031215614b8757614b86614976565b5b600082013567ffffffffffffffff811115614ba557614ba461497b565b5b614bb184828501614a87565b91505092915050565b600060ff82169050919050565b614bd081614bba565b82525050565b6000602082019050614beb6000830184614bc7565b92915050565b614bfa81614bba565b8114614c0557600080fd5b50565b600081359050614c1781614bf1565b92915050565b600080600060608486031215614c3657614c35614976565b5b6000614c4486828701614c08565b9350506020614c5586828701614c08565b9250506040614c6686828701614c08565b9150509250925092565b600081519050919050565b600082825260208201905092915050565b6000819050602082019050919050565b614ca581614ab5565b82525050565b6000614cb78383614c9c565b60208301905092915050565b6000602082019050919050565b6000614cdb82614c70565b614ce58185614c7b565b9350614cf083614c8c565b8060005b83811015614d21578151614d088882614cab565b9750614d1383614cc3565b925050600181019050614cf4565b5085935050505092915050565b60006060820190508181036000830152614d488186614cd0565b90508181036020830152614d5c8185614cd0565b90508181036040830152614d708184614cd0565b9050949350505050565b60006040820190508181036000830152614d9481856147d0565b90508181036020830152614da88184614cd0565b90509392505050565b60008060408385031215614dc857614dc7614976565b5b6000614dd685828601614c08565b9250506020614de785828601614c08565b9150509250929050565b614dfa81614891565b82525050565b6000602082019050614e156000830184614df1565b92915050565b60008115159050919050565b614e3081614e1b565b82525050565b6000602082019050614e4b6000830184614e27565b92915050565b60006040820190508181036000830152614e6b81856147d0565b90508181036020830152614e7f81846147d0565b90509392505050565b614e9181614891565b8114614e9c57600080fd5b50565b600081359050614eae81614e88565b92915050565b60008060408385031215614ecb57614eca614976565b5b600083013567ffffffffffffffff811115614ee957614ee861497b565b5b614ef585828601614a87565b9250506020614f0685828601614e9f565b9150509250929050565b60008060408385031215614f2757614f26614976565b5b600083013567ffffffffffffffff811115614f4557614f4461497b565b5b614f5185828601614a87565b925050602083013567ffffffffffffffff811115614f7257614f7161497b565b5b614f7e85828601614a87565b9150509250929050565b614f9181614e1b565b8114614f9c57600080fd5b50565b600081359050614fae81614f88565b92915050565b60008060008060008060c08789031215614fd157614fd0614976565b5b6000614fdf89828a01614c08565b965050602087013567ffffffffffffffff81111561500057614fff61497b565b5b61500c89828a01614a87565b955050604087013567ffffffffffffffff81111561502d5761502c61497b565b5b61503989828a01614a87565b945050606061504a89828a01614ad6565b935050608061505b89828a01614ad6565b92505060a061506c89828a01614f9f565b9150509295509295509295565b60006020828403121561508f5761508e614976565b5b600061509d84828501614e9f565b91505092915050565b600080600080608085870312156150c0576150bf614976565b5b60006150ce87828801614c08565b945050602085013567ffffffffffffffff8111156150ef576150ee61497b565b5b6150fb87828801614a87565b935050604085013567ffffffffffffffff81111561511c5761511b61497b565b5b61512887828801614a87565b925050606061513987828801614ad6565b91505092959194509250565b7f4e487b7100000000000000000000000000000000000000000000000000000000600052602260045260246000fd5b6000600282049050600182168061518c57607f821691505b60208210810361519f5761519e615145565b5b50919050565b7f4e487b7100000000000000000000000000000000000000000000000000000000600052601160045260246000fd5b60006151df82614bba565b91506151ea83614bba565b9250828203905060ff811115615203576152026151a5565b5b92915050565b7f4e487b7100000000000000000000000000000000000000000000000000000000600052603260045260246000fd5b600061524382614bba565b915060ff8203615256576152556151a5565b5b600182019050919050565b600082825260208201905092915050565b7f546f6b656e206e6f742070726573656e74000000000000000000000000000000600082015250565b60006152a8601183615261565b91506152b382615272565b602082019050919050565b600060208201905081810360008301526152d78161529b565b9050919050565b60006152e982614ab5565b91506152f483614ab5565b925082820190508082111561530c5761530b6151a5565b5b92915050565b7f416d6f756e74206f766572666c6f770000000000000000000000000000000000600082015250565b6000615348600f83615261565b915061535382615312565b602082019050919050565b600060208201905081810360008301526153778161533b565b9050919050565b60006060820190506153936000830186614df1565b6153a06020830185614df1565b6153ad6040830184614b47565b949350505050565b6000815190506153c481614f88565b92915050565b6000602082840312156153e0576153df614976565b5b60006153ee848285016153b5565b91505092915050565b7f5472616e7366657220636f756c64206e6f742068617070656e00000000000000600082015250565b600061542d601983615261565b9150615438826153f7565b602082019050919050565b6000602082019050818103600083015261545c81615420565b9050919050565b600061546e8261471f565b6154788185615261565b935061548881856020860161473b565b61549181614765565b840191505092915050565b600060808201905081810360008301526154b68187615463565b90506154c56020830186614df1565b6154d26040830185614b47565b6154df6060830184614b47565b95945050505050565b60006154f382614bba565b91506154fe83614bba565b9250828201905060ff811115615517576155166151a5565b5b92915050565b7f4d61726b657420496e646578206f766572666c6f770000000000000000000000600082015250565b6000615553601583615261565b915061555e8261551d565b602082019050919050565b6000602082019050818103600083015261558281615546565b9050919050565b6000819050919050565b60006155ae6155a96155a484614bba565b615589565b614ab5565b9050919050565b6155be81615593565b82525050565b60006060820190506155d960008301866155b5565b81810360208301526155eb8185615463565b90506155fa6040830184614b47565b949350505050565b600081905092915050565b60008190508160005260206000209050919050565b6000815461562f81615174565b6156398186615602565b9450600182166000811461565457600181146156695761569c565b60ff198316865281151582028601935061569c565b6156728561560d565b60005b8381101561569457815481890152600182019150602081019050615675565b838801955050505b50505092915050565b60006156b18284615622565b915081905092915050565b60006156c782614ab5565b91506156d283614ab5565b92508282039050818111156156ea576156e96151a5565b5b92915050565b60006156fb82614ab5565b91507fffffffffffffffffffffffffffffffffffffffffffffffffffffffffffffffff820361572d5761572c6151a5565b5b600182019050919050565b600081905092915050565b60008190508160005260206000209050919050565b6000815461576581615174565b61576f8186615738565b9450600182166000811461578a576001811461579f576157d2565b60ff19831686528115158202860193506157d2565b6157a885615743565b60005b838110156157ca578154818901526001820191506020810190506157ab565b838801955050505b50505092915050565b60006157e78284615758565b915081905092915050565b60006157fd8261471f565b6158078185615738565b935061581781856020860161473b565b80840191505092915050565b600061582f82846157f2565b915081905092915050565b7f546f6b656e20616c726561647920657869737473000000000000000000000000600082015250565b6000615870601483615261565b915061587b8261583a565b602082019050919050565b6000602082019050818103600083015261589f81615863565b9050919050565b7f546f6b656e20496e646578206f766572666c6f77000000000000000000000000600082015250565b60006158dc601483615261565b91506158e7826158a6565b602082019050919050565b6000602082019050818103600083015261590b816158cf565b9050919050565b60006020601f8301049050919050565b600082821b905092915050565b60006008830261595f7fffffffffffffffffffffffffffffffffffffffffffffffffffffffffffffffff82615922565b6159698683615922565b95508019841693508086168417925050509392505050565b600061599c61599761599284614ab5565b615589565b614ab5565b9050919050565b6000819050919050565b6159b683615981565b6159ca6159c2826159a3565b84845461592f565b825550505050565b600090565b6159df6159d2565b6159ea8184846159ad565b505050565b5b81811015615a0e57615a036000826159d7565b6001810190506159f0565b5050565b601f821115615a5357615a2481615743565b615a2d84615912565b81016020851015615a3c578190505b615a50615a4885615912565b8301826159ef565b50505b505050565b600082821c905092915050565b6000615a7660001984600802615a58565b1980831691505092915050565b6000615a8f8383615a65565b9150826002028217905092915050565b615aa88261471f565b67ffffffffffffffff811115615ac157615ac061498a565b5b615acb8254615174565b615ad6828285615a12565b600060209050601f831160018114615b095760008415615af7578287015190505b615b018582615a83565b865550615b69565b601f198416615b1786615743565b60005b82811015615b3f57848901518255600182019150602085019450602081019050615b1a565b86831015615b5c5784890151615b58601f891682615a65565b8355505b6001600288020188555050505b505050505050565b6000608082019050615b8660008301876155b5565b8181036020830152615b988186615463565b9050615ba76040830185614df1565b615bb46060830184614b47565b95945050505050565b6000604082019050615bd26000830185614df1565b615bdf6020830184614b47565b9392505050565b6000615bf182614ab5565b9150615bfc83614ab5565b9250828202615c0a81614ab5565b91508282048414831517615c2157615c206151a5565b5b5092915050565b7f4e6f7420656e6f7567682066756e647300000000000000000000000000000000600082015250565b6000615c5e601083615261565b9150615c6982615c28565b602082019050919050565b60006020820190508181036000830152615c8d81615c51565b9050919050565b600060c0820190508181036000830152615cae8189615463565b90508181036020830152615cc28188615463565b9050615cd16040830187614b47565b615cde6060830186614b47565b615ceb6080830185614df1565b615cf860a0830184614b47565b979650505050505050565b7f4f776e61626c653a206e6577206f776e657220697320746865207a65726f206160008201527f6464726573730000000000000000000000000000000000000000000000000000602082015250565b6000615d5f602683615261565b9150615d6a82615d03565b604082019050919050565b60006020820190508181036000830152615d8e81615d52565b9050919050565b6000615da082614ab5565b915060008203615db357615db26151a5565b5b600182039050919050565b600060a0820190508181036000830152615dd88188615463565b90508181036020830152615dec8187615463565b9050615dfb6040830186614b47565b615e086060830185614df1565b615e156080830184614b47565b9695505050505050565b7f4f776e61626c653a2063616c6c6572206973206e6f7420746865206f776e6572600082015250565b6000615e55602083615261565b9150615e6082615e1f565b602082019050919050565b60006020820190508181036000830152615e8481615e48565b9050919050565b60006060820190508181036000830152615ea58186615463565b9050615eb46020830185614b47565b615ec16040830184614b47565b949350505050565b60006040820190508181036000830152615ee38185615463565b9050615ef26020830184614b47565b9392505050565b60006020820190508181036000830152615f138184615463565b905092915050565b60006080820190508181036000830152615f358187615463565b9050615f446020830186614b47565b615f516040830185614b47565b615f5e6060830184614b47565b95945050505050565b60006060820190508181036000830152615f818186615463565b90508181036020830152615f958185615463565b90508181036040830152615fa98184615463565b9050949350505050565b600060c082019050615fc86000830189614bc7565b615fd56020830188614bc7565b615fe26040830187614bc7565b615fef6060830186614b47565b615ffc6080830185614b47565b61600960a0830184614b47565b979650505050505050565b6000608082019050818103600083015261602e8187615463565b905061603d6020830186614b47565b61604a6040830185614b47565b6160576060830184614df1565b95945050505050565b6000604082019050818103600083015261607a8185615463565b90506160896020830184614e27565b939250505056fea26469706673582212203b159b04f8add5b6182ac02f8d3fb54b815d1ce169186b4da88b9ee3af0248e064736f6c63430008110033",
  "devdoc": {
    "kind": "dev",
    "methods": {
      "owner()": {
        "details": "Returns the address of the current owner."
      },
      "renounceOwnership()": {
        "details": "Leaves the contract without owner. It will not be possible to call `onlyOwner` functions anymore. Can only be called by the current owner. NOTE: Renouncing ownership will leave the contract without an owner, thereby removing any functionality that is only available to the owner."
      },
      "transferOwnership(address)": {
        "details": "Transfers ownership of the contract to a new account (`newOwner`). Can only be called by the current owner."
      }
    },
    "version": 1
  },
  "userdoc": {
    "kind": "user",
    "methods": {},
    "version": 1
  },
  "storageLayout": {
    "storage": [
      {
        "astId": 7,
        "contract": "contracts/Swap.sol:Swap",
        "label": "_owner",
        "offset": 0,
        "slot": "0",
        "type": "t_address"
      },
      {
        "astId": 260,
        "contract": "contracts/Swap.sol:Swap",
        "label": "tokenInfo",
        "offset": 0,
        "slot": "1",
        "type": "t_mapping(t_uint8,t_struct(Token)227_storage)"
      },
      {
        "astId": 266,
        "contract": "contracts/Swap.sol:Swap",
        "label": "tokenBalanceForAddress",
        "offset": 0,
        "slot": "2",
        "type": "t_mapping(t_address,t_mapping(t_uint8,t_uint256))"
      },
      {
        "astId": 271,
        "contract": "contracts/Swap.sol:Swap",
        "label": "buyToSell",
        "offset": 0,
        "slot": "3",
        "type": "t_mapping(t_uint8,t_array(t_uint8)dyn_storage)"
      },
      {
        "astId": 276,
        "contract": "contracts/Swap.sol:Swap",
        "label": "ExchangeMarket",
        "offset": 0,
        "slot": "4",
        "type": "t_mapping(t_uint8,t_struct(Market)255_storage)"
      },
      {
        "astId": 278,
        "contract": "contracts/Swap.sol:Swap",
        "label": "tokenIndex",
        "offset": 0,
        "slot": "5",
        "type": "t_uint8"
      },
      {
        "astId": 280,
        "contract": "contracts/Swap.sol:Swap",
        "label": "marketIndex",
        "offset": 1,
        "slot": "5",
        "type": "t_uint8"
      }
    ],
    "types": {
      "t_address": {
        "encoding": "inplace",
        "label": "address",
        "numberOfBytes": "20"
      },
      "t_array(t_uint256)dyn_storage": {
        "base": "t_uint256",
        "encoding": "dynamic_array",
        "label": "uint256[]",
        "numberOfBytes": "32"
      },
      "t_array(t_uint8)dyn_storage": {
        "base": "t_uint8",
        "encoding": "dynamic_array",
        "label": "uint8[]",
        "numberOfBytes": "32"
      },
      "t_mapping(t_address,t_mapping(t_uint8,t_uint256))": {
        "encoding": "mapping",
        "key": "t_address",
        "label": "mapping(address => mapping(uint8 => uint256))",
        "numberOfBytes": "32",
        "value": "t_mapping(t_uint8,t_uint256)"
      },
      "t_mapping(t_uint256,t_struct(Order)236_storage)": {
        "encoding": "mapping",
        "key": "t_uint256",
        "label": "mapping(uint256 => struct Swap.Order)",
        "numberOfBytes": "32",
        "value": "t_struct(Order)236_storage"
      },
      "t_mapping(t_uint8,t_array(t_uint8)dyn_storage)": {
        "encoding": "mapping",
        "key": "t_uint8",
        "label": "mapping(uint8 => uint8[])",
        "numberOfBytes": "32",
        "value": "t_array(t_uint8)dyn_storage"
      },
      "t_mapping(t_uint8,t_struct(Market)255_storage)": {
        "encoding": "mapping",
        "key": "t_uint8",
        "label": "mapping(uint8 => struct Swap.Market)",
        "numberOfBytes": "32",
        "value": "t_struct(Market)255_storage"
      },
      "t_mapping(t_uint8,t_struct(OrderBook)249_storage)": {
        "encoding": "mapping",
        "key": "t_uint8",
        "label": "mapping(uint8 => struct Swap.OrderBook)",
        "numberOfBytes": "32",
        "value": "t_struct(OrderBook)249_storage"
      },
      "t_mapping(t_uint8,t_struct(Token)227_storage)": {
        "encoding": "mapping",
        "key": "t_uint8",
        "label": "mapping(uint8 => struct Swap.Token)",
        "numberOfBytes": "32",
        "value": "t_struct(Token)227_storage"
      },
      "t_mapping(t_uint8,t_uint256)": {
        "encoding": "mapping",
        "key": "t_uint8",
        "label": "mapping(uint8 => uint256)",
        "numberOfBytes": "32",
        "value": "t_uint256"
      },
      "t_string_storage": {
        "encoding": "bytes",
        "label": "string",
        "numberOfBytes": "32"
      },
      "t_struct(Market)255_storage": {
        "encoding": "inplace",
        "label": "struct Swap.Market",
        "members": [
          {
            "astId": 254,
            "contract": "contracts/Swap.sol:Swap",
            "label": "Orders",
            "offset": 0,
            "slot": "0",
            "type": "t_mapping(t_uint8,t_struct(OrderBook)249_storage)"
          }
        ],
        "numberOfBytes": "32"
      },
      "t_struct(Order)236_storage": {
        "encoding": "inplace",
        "label": "struct Swap.Order",
        "members": [
          {
            "astId": 229,
            "contract": "contracts/Swap.sol:Swap",
            "label": "quantity",
            "offset": 0,
            "slot": "0",
            "type": "t_uint256"
          },
          {
            "astId": 231,
            "contract": "contracts/Swap.sol:Swap",
            "label": "price",
            "offset": 0,
            "slot": "1",
            "type": "t_uint256"
          },
          {
            "astId": 233,
            "contract": "contracts/Swap.sol:Swap",
            "label": "timestamp",
            "offset": 0,
            "slot": "2",
            "type": "t_uint256"
          },
          {
            "astId": 235,
            "contract": "contracts/Swap.sol:Swap",
            "label": "user",
            "offset": 0,
            "slot": "3",
            "type": "t_address"
          }
        ],
        "numberOfBytes": "128"
      },
      "t_struct(OrderBook)249_storage": {
        "encoding": "inplace",
        "label": "struct Swap.OrderBook",
        "members": [
          {
            "astId": 238,
            "contract": "contracts/Swap.sol:Swap",
            "label": "orderIndex",
            "offset": 0,
            "slot": "0",
            "type": "t_uint256"
          },
          {
            "astId": 243,
            "contract": "contracts/Swap.sol:Swap",
            "label": "orders",
            "offset": 0,
            "slot": "1",
            "type": "t_mapping(t_uint256,t_struct(Order)236_storage)"
          },
          {
            "astId": 245,
            "contract": "contracts/Swap.sol:Swap",
            "label": "ordersCount",
            "offset": 0,
            "slot": "2",
            "type": "t_uint256"
          },
          {
            "astId": 248,
            "contract": "contracts/Swap.sol:Swap",
            "label": "ordersQueue",
            "offset": 0,
            "slot": "3",
            "type": "t_array(t_uint256)dyn_storage"
          }
        ],
        "numberOfBytes": "128"
      },
      "t_struct(Token)227_storage": {
        "encoding": "inplace",
        "label": "struct Swap.Token",
        "members": [
          {
            "astId": 224,
            "contract": "contracts/Swap.sol:Swap",
            "label": "contractAddress",
            "offset": 0,
            "slot": "0",
            "type": "t_address"
          },
          {
            "astId": 226,
            "contract": "contracts/Swap.sol:Swap",
            "label": "symbolName",
            "offset": 0,
            "slot": "1",
            "type": "t_string_storage"
          }
        ],
        "numberOfBytes": "64"
      },
      "t_uint256": {
        "encoding": "inplace",
        "label": "uint256",
        "numberOfBytes": "32"
      },
      "t_uint8": {
        "encoding": "inplace",
        "label": "uint8",
        "numberOfBytes": "1"
      }
    }
  }
}