{
  "address": "0xCf7Ed3AccA5a467e9e704C703E8D87F634fB0Fc9",
  "abi": [
    {
      "inputs": [],
      "stateMutability": "nonpayable",
      "type": "constructor"
    },
    {
      "anonymous": false,
      "inputs": [
        {
          "indexed": false,
          "internalType": "uint256",
          "name": "marketIndex",
          "type": "uint256"
        },
        {
          "indexed": false,
          "internalType": "string",
          "name": "symbolName",
          "type": "string"
        },
        {
          "indexed": false,
          "internalType": "uint256",
          "name": "timestamp",
          "type": "uint256"
        }
      ],
      "name": "LogAddMarket",
      "type": "event"
    },
    {
      "anonymous": false,
      "inputs": [
        {
          "indexed": false,
          "internalType": "uint256",
          "name": "tokenIndex",
          "type": "uint256"
        },
        {
          "indexed": false,
          "internalType": "string",
          "name": "symbolName",
          "type": "string"
        },
        {
          "indexed": false,
          "internalType": "address",
          "name": "EC20TokenAddress",
          "type": "address"
        },
        {
          "indexed": false,
          "internalType": "uint256",
          "name": "timestamp",
          "type": "uint256"
        }
      ],
      "name": "LogAddToken",
      "type": "event"
    },
    {
      "anonymous": false,
      "inputs": [
        {
          "indexed": false,
          "internalType": "string",
          "name": "symbolName1",
          "type": "string"
        },
        {
          "indexed": false,
          "internalType": "string",
          "name": "symbolName2",
          "type": "string"
        },
        {
          "indexed": false,
          "internalType": "uint256",
          "name": "price",
          "type": "uint256"
        },
        {
          "indexed": false,
          "internalType": "uint256",
          "name": "amount",
          "type": "uint256"
        },
        {
          "indexed": false,
          "internalType": "address",
          "name": "buyer",
          "type": "address"
        },
        {
          "indexed": false,
          "internalType": "uint256",
          "name": "timestamp",
          "type": "uint256"
        }
      ],
      "name": "LogBuyToken",
      "type": "event"
    },
    {
      "anonymous": false,
      "inputs": [
        {
          "indexed": false,
          "internalType": "string",
          "name": "symbolName1",
          "type": "string"
        },
        {
          "indexed": false,
          "internalType": "string",
          "name": "symbolName2",
          "type": "string"
        },
        {
          "indexed": false,
          "internalType": "uint256",
          "name": "orderIndex",
          "type": "uint256"
        },
        {
          "indexed": false,
          "internalType": "address",
          "name": "buyer",
          "type": "address"
        },
        {
          "indexed": false,
          "internalType": "uint256",
          "name": "timestamp",
          "type": "uint256"
        }
      ],
      "name": "LogCancelBuyOrder",
      "type": "event"
    },
    {
      "anonymous": false,
      "inputs": [
        {
          "indexed": false,
          "internalType": "string",
          "name": "symbolName1",
          "type": "string"
        },
        {
          "indexed": false,
          "internalType": "string",
          "name": "symbolName2",
          "type": "string"
        },
        {
          "indexed": false,
          "internalType": "uint256",
          "name": "orderIndex",
          "type": "uint256"
        },
        {
          "indexed": false,
          "internalType": "address",
          "name": "seller",
          "type": "address"
        },
        {
          "indexed": false,
          "internalType": "uint256",
          "name": "timestamp",
          "type": "uint256"
        }
      ],
      "name": "LogCancelSellOrder",
      "type": "event"
    },
    {
      "anonymous": false,
      "inputs": [
        {
          "indexed": false,
          "internalType": "string",
          "name": "symbolName1",
          "type": "string"
        },
        {
          "indexed": false,
          "internalType": "string",
          "name": "symbolName2",
          "type": "string"
        },
        {
          "indexed": false,
          "internalType": "uint256",
          "name": "price",
          "type": "uint256"
        },
        {
          "indexed": false,
          "internalType": "uint256",
          "name": "amount",
          "type": "uint256"
        },
        {
          "indexed": false,
          "internalType": "address",
          "name": "buyer",
          "type": "address"
        },
        {
          "indexed": false,
          "internalType": "uint256",
          "name": "timestamp",
          "type": "uint256"
        }
      ],
      "name": "LogCreateBuyOrder",
      "type": "event"
    },
    {
      "anonymous": false,
      "inputs": [
        {
          "indexed": false,
          "internalType": "string",
          "name": "symbolName1",
          "type": "string"
        },
        {
          "indexed": false,
          "internalType": "string",
          "name": "symbolName2",
          "type": "string"
        },
        {
          "indexed": false,
          "internalType": "uint256",
          "name": "price",
          "type": "uint256"
        },
        {
          "indexed": false,
          "internalType": "uint256",
          "name": "amount",
          "type": "uint256"
        },
        {
          "indexed": false,
          "internalType": "address",
          "name": "seller",
          "type": "address"
        },
        {
          "indexed": false,
          "internalType": "uint256",
          "name": "timestamp",
          "type": "uint256"
        }
      ],
      "name": "LogCreateSellOrder",
      "type": "event"
    },
    {
      "anonymous": false,
      "inputs": [
        {
          "indexed": false,
          "internalType": "string",
          "name": "symbolName",
          "type": "string"
        },
        {
          "indexed": false,
          "internalType": "address",
          "name": "accountAddress",
          "type": "address"
        },
        {
          "indexed": false,
          "internalType": "uint256",
          "name": "amount",
          "type": "uint256"
        },
        {
          "indexed": false,
          "internalType": "uint256",
          "name": "timestamp",
          "type": "uint256"
        }
      ],
      "name": "LogDepositToken",
      "type": "event"
    },
    {
      "anonymous": false,
      "inputs": [
        {
          "indexed": false,
          "internalType": "uint8",
          "name": "typeOfOrder",
          "type": "uint8"
        },
        {
          "indexed": false,
          "internalType": "uint8",
          "name": "symbolName1",
          "type": "uint8"
        },
        {
          "indexed": false,
          "internalType": "uint8",
          "name": "symbolName2",
          "type": "uint8"
        },
        {
          "indexed": false,
          "internalType": "uint256",
          "name": "price",
          "type": "uint256"
        },
        {
          "indexed": false,
          "internalType": "uint256",
          "name": "amount",
          "type": "uint256"
        },
        {
          "indexed": false,
          "internalType": "uint256",
          "name": "timestamp",
          "type": "uint256"
        }
      ],
      "name": "LogFulfillOrder",
      "type": "event"
    },
    {
      "anonymous": false,
      "inputs": [
        {
          "indexed": false,
          "internalType": "string",
          "name": "symbolName1",
          "type": "string"
        },
        {
          "indexed": false,
          "internalType": "string",
          "name": "symbolName2",
          "type": "string"
        },
        {
          "indexed": false,
          "internalType": "uint256",
          "name": "price",
          "type": "uint256"
        },
        {
          "indexed": false,
          "internalType": "uint256",
          "name": "amount",
          "type": "uint256"
        },
        {
          "indexed": false,
          "internalType": "address",
          "name": "buyer",
          "type": "address"
        },
        {
          "indexed": false,
          "internalType": "uint256",
          "name": "timestamp",
          "type": "uint256"
        }
      ],
      "name": "LogSellToken",
      "type": "event"
    },
    {
      "anonymous": false,
      "inputs": [
        {
          "indexed": false,
          "internalType": "string",
          "name": "symbolName",
          "type": "string"
        },
        {
          "indexed": false,
          "internalType": "address",
          "name": "accountAddress",
          "type": "address"
        },
        {
          "indexed": false,
          "internalType": "uint256",
          "name": "amount",
          "type": "uint256"
        },
        {
          "indexed": false,
          "internalType": "uint256",
          "name": "timestamp",
          "type": "uint256"
        }
      ],
      "name": "LogWithdrawToken",
      "type": "event"
    },
    {
      "anonymous": false,
      "inputs": [
        {
          "indexed": true,
          "internalType": "address",
          "name": "previousOwner",
          "type": "address"
        },
        {
          "indexed": true,
          "internalType": "address",
          "name": "newOwner",
          "type": "address"
        }
      ],
      "name": "OwnershipTransferred",
      "type": "event"
    },
    {
      "inputs": [
        {
          "internalType": "string",
          "name": "symbolName",
          "type": "string"
        }
      ],
      "name": "addMarket",
      "outputs": [],
      "stateMutability": "nonpayable",
      "type": "function"
    },
    {
      "inputs": [
        {
          "internalType": "string",
          "name": "symbolName",
          "type": "string"
        },
        {
          "internalType": "address",
          "name": "EC20TokenAddress",
          "type": "address"
        }
      ],
      "name": "addToken",
      "outputs": [],
      "stateMutability": "nonpayable",
      "type": "function"
    },
    {
      "inputs": [
        {
          "internalType": "uint8",
          "name": "typeOfOrder",
          "type": "uint8"
        },
        {
          "internalType": "string",
          "name": "buyTokenSymbol",
          "type": "string"
        },
        {
          "internalType": "string",
          "name": "sellTokenSymbol",
          "type": "string"
        },
        {
          "internalType": "uint256",
          "name": "orderIndex",
          "type": "uint256"
        }
      ],
      "name": "cancelOrder",
      "outputs": [],
      "stateMutability": "nonpayable",
      "type": "function"
    },
    {
      "inputs": [
        {
          "internalType": "uint8",
          "name": "typeOfOrder",
          "type": "uint8"
        },
        {
          "internalType": "string",
          "name": "buySymbolName",
          "type": "string"
        },
        {
          "internalType": "string",
          "name": "sellSymbolName",
          "type": "string"
        },
        {
          "internalType": "uint256",
          "name": "price",
          "type": "uint256"
        },
        {
          "internalType": "uint256",
          "name": "quantity",
          "type": "uint256"
        }
      ],
      "name": "createOrder",
      "outputs": [],
      "stateMutability": "nonpayable",
      "type": "function"
    },
    {
      "inputs": [
        {
          "internalType": "string",
          "name": "symbolName",
          "type": "string"
        },
        {
          "internalType": "uint256",
          "name": "amount",
          "type": "uint256"
        }
      ],
      "name": "depositToken",
      "outputs": [
        {
          "internalType": "uint256",
          "name": "tokenBalance",
          "type": "uint256"
        }
      ],
      "stateMutability": "nonpayable",
      "type": "function"
    },
    {
      "inputs": [],
      "name": "getAllMarkets",
      "outputs": [
        {
          "internalType": "string[]",
          "name": "",
          "type": "string[]"
        },
        {
          "internalType": "string[]",
          "name": "",
          "type": "string[]"
        }
      ],
      "stateMutability": "view",
      "type": "function"
    },
    {
      "inputs": [],
      "name": "getAllTokenBalanceForUser",
      "outputs": [
        {
          "internalType": "string[]",
          "name": "",
          "type": "string[]"
        },
        {
          "internalType": "uint256[]",
          "name": "",
          "type": "uint256[]"
        }
      ],
      "stateMutability": "view",
      "type": "function"
    },
    {
      "inputs": [],
      "name": "getAllTokens",
      "outputs": [
        {
          "internalType": "string[]",
          "name": "",
          "type": "string[]"
        },
        {
          "internalType": "address[]",
          "name": "",
          "type": "address[]"
        }
      ],
      "stateMutability": "view",
      "type": "function"
    },
    {
      "inputs": [
        {
          "internalType": "uint8",
          "name": "buyTokenIndex",
          "type": "uint8"
        },
        {
          "internalType": "uint8",
          "name": "sellTokenIndex",
          "type": "uint8"
        }
      ],
      "name": "getMarketIndex",
      "outputs": [
        {
          "internalType": "uint8",
          "name": "",
          "type": "uint8"
        }
      ],
      "stateMutability": "view",
      "type": "function"
    },
    {
      "inputs": [],
      "name": "getMarketIndex",
      "outputs": [
        {
          "internalType": "uint8",
          "name": "",
          "type": "uint8"
        }
      ],
      "stateMutability": "view",
      "type": "function"
    },
    {
      "inputs": [
        {
          "internalType": "string",
          "name": "buyTokenSymbol",
          "type": "string"
        },
        {
          "internalType": "string",
          "name": "sellTokenSymbol",
          "type": "string"
        }
      ],
      "name": "getMarketIndex",
      "outputs": [
        {
          "internalType": "uint8",
          "name": "",
          "type": "uint8"
        }
      ],
      "stateMutability": "view",
      "type": "function"
    },
    {
      "inputs": [
        {
          "internalType": "uint8",
          "name": "buyTokenIndex",
          "type": "uint8"
        },
        {
          "internalType": "uint8",
          "name": "sellTokenIndex",
          "type": "uint8"
        },
        {
          "internalType": "uint8",
          "name": "type_of_order",
          "type": "uint8"
        }
      ],
      "name": "getOrderBook",
      "outputs": [
        {
          "internalType": "uint256[]",
          "name": "",
          "type": "uint256[]"
        },
        {
          "internalType": "uint256[]",
          "name": "",
          "type": "uint256[]"
        },
        {
          "internalType": "uint256[]",
          "name": "",
          "type": "uint256[]"
        }
      ],
      "stateMutability": "view",
      "type": "function"
    },
    {
      "inputs": [
        {
          "internalType": "string",
          "name": "symbolName",
          "type": "string"
        }
      ],
      "name": "getTokenBalanceForUser",
      "outputs": [
        {
          "internalType": "uint256",
          "name": "",
          "type": "uint256"
        }
      ],
      "stateMutability": "view",
      "type": "function"
    },
    {
      "inputs": [
        {
          "internalType": "string",
          "name": "symbolName",
          "type": "string"
        }
      ],
      "name": "getTokenIndex",
      "outputs": [
        {
          "internalType": "uint8",
          "name": "",
          "type": "uint8"
        }
      ],
      "stateMutability": "view",
      "type": "function"
    },
    {
      "inputs": [
        {
          "internalType": "string",
          "name": "symbolName",
          "type": "string"
        }
      ],
      "name": "hasToken",
      "outputs": [
        {
          "internalType": "bool",
          "name": "",
          "type": "bool"
        }
      ],
      "stateMutability": "view",
      "type": "function"
    },
    {
      "inputs": [],
      "name": "owner",
      "outputs": [
        {
          "internalType": "address",
          "name": "",
          "type": "address"
        }
      ],
      "stateMutability": "view",
      "type": "function"
    },
    {
      "inputs": [],
      "name": "renounceOwnership",
      "outputs": [],
      "stateMutability": "nonpayable",
      "type": "function"
    },
    {
      "inputs": [
        {
          "internalType": "address",
          "name": "newOwner",
          "type": "address"
        }
      ],
      "name": "transferOwnership",
      "outputs": [],
      "stateMutability": "nonpayable",
      "type": "function"
    },
    {
      "inputs": [
        {
          "internalType": "string",
          "name": "symbolName",
          "type": "string"
        },
        {
          "internalType": "uint256",
          "name": "amount",
          "type": "uint256"
        }
      ],
      "name": "withdrawToken",
      "outputs": [
        {
          "internalType": "uint256",
          "name": "tokenBalance",
          "type": "uint256"
        }
      ],
      "stateMutability": "nonpayable",
      "type": "function"
    }
  ],
  "transactionHash": "0xca8045f7e9a566198c220101e278856c31fbb277e41427a878f8e7afc52f7804",
  "args": [],
  "numDeployments": 1,
  "solcInputHash": "49a48b4f43eccd015c2423e6b70c7712",
  "bytecode": "0x60806040523480156200001157600080fd5b5062000032620000266200007060201b60201c565b6200007860201b60201c565b6000600560006101000a81548160ff021916908360ff1602179055506000600560016101000a81548160ff021916908360ff1602179055506200013c565b600033905090565b60008060009054906101000a900473ffffffffffffffffffffffffffffffffffffffff169050816000806101000a81548173ffffffffffffffffffffffffffffffffffffffff021916908373ffffffffffffffffffffffffffffffffffffffff1602179055508173ffffffffffffffffffffffffffffffffffffffff168173ffffffffffffffffffffffffffffffffffffffff167f8be0079c531659141344cd1fd0a4f28419497f9722a3daafe3b4186f6b6457e060405160405180910390a35050565b615a37806200014c6000396000f3fe608060405234801561001057600080fd5b50600436106101215760003560e01c80638da5cb5b116100ad578063c97a413a11610071578063c97a413a14610321578063cb803ceb14610351578063cedd00b11461036f578063f2fde38b1461039f578063f7499762146103bb57610121565b80638da5cb5b1461027c5780638ea008181461029a578063b0772d0b146102ca578063b0b22c2c146102e9578063b13bd79d1461030557610121565b806361a6d43a116100f457806361a6d43a146101c15780636409d48d146101f3578063715018a61461021257806384cde3691461021c5780638883b10c1461024c57610121565b80632a5c792a1461012657806333ad57e41461014557806342fe6695146101755780635f96876714610191575b600080fd5b61012e6103d7565b60405161013c9291906143bc565b60405180910390f35b61015f600480360381019061015a9190614572565b61064b565b60405161016c91906145dd565b60405180910390f35b61018f600480360381019061018a91906145f8565b610851565b005b6101ab60048036038101906101a691906145f8565b610b1c565b6040516101b8919061465d565b60405180910390f35b6101db60048036038101906101d691906146a4565b610ba5565b6040516101ea939291906147b5565b60405180910390f35b6101fb610f6b565b604051610209929190614801565b60405180910390f35b61021a61130c565b005b61023660048036038101906102319190614838565b611320565b604051610243919061465d565b60405180910390f35b610266600480360381019061026191906145f8565b6114a3565b60405161027391906145dd565b60405180910390f35b61028461150b565b6040516102919190614887565b60405180910390f35b6102b460048036038101906102af91906145f8565b611534565b6040516102c191906148bd565b60405180910390f35b6102d26115ee565b6040516102e09291906148d8565b60405180910390f35b61030360048036038101906102fe919061493b565b611b0b565b005b61031f600480360381019061031a9190614997565b611d1f565b005b61033b60048036038101906103369190614572565b612247565b60405161034891906145dd565b60405180910390f35b610359612409565b604051610366919061465d565b60405180910390f35b61038960048036038101906103849190614a4a565b612420565b604051610396919061465d565b60405180910390f35b6103b960048036038101906103b49190614ac2565b612605565b005b6103d560048036038101906103d09190614aef565b612688565b005b6060806000600560009054906101000a900460ff1660ff1667ffffffffffffffff81111561040857610407614411565b5b60405190808252806020026020018201604052801561043b57816020015b60608152602001906001900390816104265790505b5090506000600560009054906101000a900460ff1660ff1667ffffffffffffffff81111561046c5761046b614411565b5b60405190808252806020026020018201604052801561049a5781602001602082028036833780820191505090505b5090506000600190505b600560009054906101000a900460ff1660ff168160ff161161063e57600160008260ff1660ff16815260200190815260200160002060010180546104e790614bbd565b80601f016020809104026020016040519081016040528092919081815260200182805461051390614bbd565b80156105605780601f1061053557610100808354040283529160200191610560565b820191906000526020600020905b81548152906001019060200180831161054357829003601f168201915b5050505050836001836105739190614c1d565b60ff168151811061058757610586614c52565b5b6020026020010181905250600160008260ff1660ff16815260200190815260200160002060000160009054906101000a900473ffffffffffffffffffffffffffffffffffffffff16826001836105dd9190614c1d565b60ff16815181106105f1576105f0614c52565b5b602002602001019073ffffffffffffffffffffffffffffffffffffffff16908173ffffffffffffffffffffffffffffffffffffffff1681525050808061063690614c81565b9150506104a4565b5081819350935050509091565b600061065683611534565b610695576040517f08c379a000000000000000000000000000000000000000000000000000000000815260040161068c90614d07565b60405180910390fd5b61069e836114a3565b826106a8856114a3565b6106b29190614d27565b10156106f3576040517f08c379a00000000000000000000000000000000000000000000000000000000081526004016106ea90614da7565b60405180910390fd5b60006106fe84610b1c565b905082600260003373ffffffffffffffffffffffffffffffffffffffff1673ffffffffffffffffffffffffffffffffffffffff16815260200190815260200160002060008360ff1660ff16815260200190815260200160002060008282546107669190614d27565b925050819055506108026040518060400160405280600d81526020017f746f6b656e2062616c616e636500000000000000000000000000000000000000815250600260003373ffffffffffffffffffffffffffffffffffffffff1673ffffffffffffffffffffffffffffffffffffffff16815260200190815260200160002060008460ff1660ff16815260200190815260200160002054612b86565b7f4dbc01516018d27f28f32ddd20595428f662140f1fff79b754484578ac27fc19843385426040516108379493929190614e00565b60405180910390a1610848846114a3565b91505092915050565b610859612c22565b600560019054906101000a900460ff1660ff166001600560019054906101000a900460ff166108889190614e4c565b60ff1610156108cc576040517f08c379a00000000000000000000000000000000000000000000000000000000081526004016108c390614ecd565b60405180910390fd5b6000600190505b600560009054906101000a900460ff1660ff168160ff161015610a7d576109456040518060400160405280600e81526020017f416464696e67206d61726b657420000000000000000000000000000000000000815250600560009054906101000a900460ff1660ff168360ff16612ca0565b6005600181819054906101000a900460ff168092919061096490614c81565b91906101000a81548160ff021916908360ff160217905550506000600267ffffffffffffffff81111561099a57610999614411565b5b6040519080825280602002602001820160405280156109c85781602001602082028036833780820191505090505b509050600560009054906101000a900460ff16816000815181106109ef576109ee614c52565b5b602002602001019060ff16908160ff16815250508181600181518110610a1857610a17614c52565b5b602002602001019060ff16908160ff16815250508060036000600560019054906101000a900460ff1660ff1660ff1681526020019081526020016000209080519060200190610a68929190614069565b50508080610a7590614c81565b9150506108d3565b50610acf6040518060400160405280600e81526020017f546f74616c206d61726b65747320000000000000000000000000000000000000815250600560019054906101000a900460ff1660ff16612b86565b7f8877b3481be0c4a9d298c35f0e291fd2f61a153f7d22354a14c44c8266a5a754600560019054906101000a900460ff168242604051610b1193929190614f28565b60405180910390a150565b600080600190505b600560009054906101000a900460ff1660ff168160ff1611610b9a57600160008260ff1660ff168152602001908152602001600020600101604051610b699190615009565b6040518091039020838051906020012003610b875780915050610ba0565b8080610b9290614c81565b915050610b24565b50600090505b919050565b6060806060610be86040518060400160405280600d81526020017f4765744f72646572626f6f6b2000000000000000000000000000000000000000815250612d3f565b610c2a6040518060400160405280600d81526020017f747970655f6f665f6f72646572000000000000000000000000000000000000008152508560ff16612b86565b6000610c368787611320565b90506000600460008360ff1660ff16815260200190815260200160002060000160008760ff1660ff1681526020019081526020016000209050610c7b8260ff16612dd8565b6000816002015467ffffffffffffffff811115610c9b57610c9a614411565b5b604051908082528060200260200182016040528015610cc95781602001602082028036833780820191505090505b5090506000826002015467ffffffffffffffff811115610cec57610ceb614411565b5b604051908082528060200260200182016040528015610d1a5781602001602082028036833780820191505090505b5090506000836002015467ffffffffffffffff811115610d3d57610d3c614411565b5b604051908082528060200260200182016040528015610d6b5781602001602082028036833780820191505090505b509050610db16040518060400160405280601681526020017f6f726465725f626f6f6b2e6f7264657273436f756e74000000000000000000008152508560020154612b86565b6000600190505b84600201548111610f5357600085600101600087600301600185610ddc9190615020565b81548110610ded57610dec614c52565b5b906000526020600020015481526020019081526020016000206040518060800160405290816000820154815260200160018201548152602001600282015481526020016003820160009054906101000a900473ffffffffffffffffffffffffffffffffffffffff1673ffffffffffffffffffffffffffffffffffffffff1673ffffffffffffffffffffffffffffffffffffffff1681525050905085600301600183610e989190615020565b81548110610ea957610ea8614c52565b5b906000526020600020015485600184610ec29190615020565b81518110610ed357610ed2614c52565b5b602002602001018181525050806020015184600184610ef29190615020565b81518110610f0357610f02614c52565b5b602002602001018181525050806000015183600184610f229190615020565b81518110610f3357610f32614c52565b5b602002602001018181525050508080610f4b90615054565b915050610db8565b50828282975097509750505050505093509350939050565b6060806000600560009054906101000a900460ff1660ff1667ffffffffffffffff811115610f9c57610f9b614411565b5b604051908082528060200260200182016040528015610fcf57816020015b6060815260200190600190039081610fba5790505b5090506000600560009054906101000a900460ff1660ff1667ffffffffffffffff81111561100057610fff614411565b5b60405190808252806020026020018201604052801561102e5781602001602082028036833780820191505090505b5090506000600190505b600560009054906101000a900460ff1660ff168160ff16116112ff5761113f6040518060400160405280600881526020017f62616c616e63652000000000000000000000000000000000000000000000000081525061113a600160008560ff1660ff16815260200190815260200160002060010180546110b790614bbd565b80601f01602080910402602001604051908101604052809291908181526020018280546110e390614bbd565b80156111305780601f1061110557610100808354040283529160200191611130565b820191906000526020600020905b81548152906001019060200180831161111357829003601f168201915b50505050506114a3565b612b86565b600160008260ff1660ff168152602001908152602001600020600101805461116690614bbd565b80601f016020809104026020016040519081016040528092919081815260200182805461119290614bbd565b80156111df5780601f106111b4576101008083540402835291602001916111df565b820191906000526020600020905b8154815290600101906020018083116111c257829003601f168201915b5050505050836001836111f29190614c1d565b60ff168151811061120657611205614c52565b5b60200260200101819052506112be600160008360ff1660ff168152602001908152602001600020600101805461123b90614bbd565b80601f016020809104026020016040519081016040528092919081815260200182805461126790614bbd565b80156112b45780601f10611289576101008083540402835291602001916112b4565b820191906000526020600020905b81548152906001019060200180831161129757829003601f168201915b50505050506114a3565b826001836112cc9190614c1d565b60ff16815181106112e0576112df614c52565b5b60200260200101818152505080806112f790614c81565b915050611038565b5081819350935050509091565b611314612c22565b61131e6000612e71565b565b600080600190505b600560019054906101000a900460ff1660ff168160ff161161145757600360008260ff1660ff1681526020019081526020016000206000815481106113705761136f614c52565b5b90600052602060002090602091828204019190069054906101000a900460ff1660ff168460ff161480156113f45750600360008260ff1660ff1681526020019081526020016000206001815481106113cb576113ca614c52565b5b90600052602060002090602091828204019190069054906101000a900460ff1660ff168360ff16145b156114445761143b6040518060400160405280601781526020017f52657475726e696e67206d61726b657420696e646578200000000000000000008152508260ff16612b86565b8091505061149d565b808061144f90614c81565b915050611328565b506114986040518060400160405280601781526020017f52657475726e696e67206d61726b657420696e646578200000000000000000008152506000612b86565b600090505b92915050565b6000600260003373ffffffffffffffffffffffffffffffffffffffff1673ffffffffffffffffffffffffffffffffffffffff16815260200190815260200160002060006114ef84610b1c565b60ff1660ff168152602001908152602001600020549050919050565b60008060009054906101000a900473ffffffffffffffffffffffffffffffffffffffff16905090565b600080600190505b600560009054906101000a900460ff1660ff168160ff16116115e357600160008260ff1660ff168152602001908152602001600020600101604051602001611584919061513f565b60405160208183030381529060405280519060200120836040516020016115ab9190615187565b60405160208183030381529060405280519060200120036115d05760019150506115e9565b80806115db90614c81565b91505061153c565b50600090505b919050565b6060806000600560019054906101000a900460ff1660ff1667ffffffffffffffff81111561161f5761161e614411565b5b60405190808252806020026020018201604052801561165257816020015b606081526020019060019003908161163d5790505b5090506000600560019054906101000a900460ff1660ff1667ffffffffffffffff81111561168357611682614411565b5b6040519080825280602002602001820160405280156116b657816020015b60608152602001906001900390816116a15790505b50905061170a6040518060400160405280600f81526020017f6d61726b657473206e756d626572200000000000000000000000000000000000815250600560019054906101000a900460ff1660ff16612b86565b6000600190505b600560019054906101000a900460ff1660ff168160ff1611611afe576118b16040518060400160405280600781526020017f4d61726b6574200000000000000000000000000000000000000000000000000081525060016000600260ff168152602001908152602001600020600101805461178b90614bbd565b80601f01602080910402602001604051908101604052809291908181526020018280546117b790614bbd565b80156118045780601f106117d957610100808354040283529160200191611804565b820191906000526020600020905b8154815290600101906020018083116117e757829003601f168201915b505050505060016000600160ff168152602001908152602001600020600101805461182e90614bbd565b80601f016020809104026020016040519081016040528092919081815260200182805461185a90614bbd565b80156118a75780601f1061187c576101008083540402835291602001916118a7565b820191906000526020600020905b81548152906001019060200180831161188a57829003601f168201915b5050505050612f35565b60016000600360008460ff1660ff1681526020019081526020016000206000815481106118e1576118e0614c52565b5b90600052602060002090602091828204019190069054906101000a900460ff1660ff1660ff168152602001908152602001600020600101805461192390614bbd565b80601f016020809104026020016040519081016040528092919081815260200182805461194f90614bbd565b801561199c5780601f106119715761010080835404028352916020019161199c565b820191906000526020600020905b81548152906001019060200180831161197f57829003601f168201915b5050505050836001836119af9190614c1d565b60ff16815181106119c3576119c2614c52565b5b602002602001018190525060016000600360008460ff1660ff1681526020019081526020016000206001815481106119fe576119fd614c52565b5b90600052602060002090602091828204019190069054906101000a900460ff1660ff1660ff1681526020019081526020016000206001018054611a4090614bbd565b80601f0160208091040260200160405190810160405280929190818152602001828054611a6c90614bbd565b8015611ab95780601f10611a8e57610100808354040283529160200191611ab9565b820191906000526020600020905b815481529060010190602001808311611a9c57829003601f168201915b505050505082600183611acc9190614c1d565b60ff1681518110611ae057611adf614c52565b5b60200260200101819052508080611af690614c81565b915050611711565b5081819350935050509091565b611b13612c22565b611b1c82611534565b15611b5c576040517f08c379a0000000000000000000000000000000000000000000000000000000008152600401611b53906151ea565b60405180910390fd5b600560009054906101000a900460ff1660ff166001600560009054906101000a900460ff16611b8b9190614e4c565b60ff161015611bcf576040517f08c379a0000000000000000000000000000000000000000000000000000000008152600401611bc690615256565b60405180910390fd5b6005600081819054906101000a900460ff1680929190611bee90614c81565b91906101000a81548160ff021916908360ff160217905550508160016000600560009054906101000a900460ff1660ff1660ff1681526020019081526020016000206001019081611c3f9190615403565b508060016000600560009054906101000a900460ff1660ff1660ff16815260200190815260200160002060000160006101000a81548173ffffffffffffffffffffffffffffffffffffffff021916908373ffffffffffffffffffffffffffffffffffffffff1602179055506001600560009054906101000a900460ff1660ff161115611ccf57611cce82610851565b5b7f1723c709bc871c32c420d3c2d2837cdd4bef40c574088c1d055e1f4f609d2377600560009054906101000a900460ff16838342604051611d1394939291906154d5565b60405180910390a15050565b611d5d6040518060400160405280600e81526020017f6372656174696e67206f72646572000000000000000000000000000000000000815250612d3f565b611d6684611534565b611da5576040517f08c379a0000000000000000000000000000000000000000000000000000000008152600401611d9c90614d07565b60405180910390fd5b611dae83611534565b611ded576040517f08c379a0000000000000000000000000000000000000000000000000000000008152600401611de490614d07565b60405180910390fd5b611e2f6040518060400160405280600e81526020017f6372656174696e67206f726465720000000000000000000000000000000000008152508660ff16612b86565b60008060008084905060008960ff1603611f0257611e4c88610b1c565b9350611e5787610b1c565b92508486611e659190615521565b600260003373ffffffffffffffffffffffffffffffffffffffff1673ffffffffffffffffffffffffffffffffffffffff16815260200190815260200160002060008560ff1660ff168152602001908152602001600020541015611efd576040517f08c379a0000000000000000000000000000000000000000000000000000000008152600401611ef4906155af565b60405180910390fd5b611fbd565b611f0b87610b1c565b9350611f1688610b1c565b92508486611f249190615521565b600260003373ffffffffffffffffffffffffffffffffffffffff1673ffffffffffffffffffffffffffffffffffffffff16815260200190815260200160002060008660ff1660ff168152602001908152602001600020541015611fbc576040517f08c379a0000000000000000000000000000000000000000000000000000000008152600401611fb3906155af565b60405180910390fd5b5b611fc78484611320565b91506000808a60ff1614611fdc576000611fdf565b60015b90506120236040518060400160405280600581526020017f696e6465780000000000000000000000000000000000000000000000000000008152508260ff16612b86565b6000600460008560ff1660ff16815260200190815260200160002060000160008360ff1660ff1681526020019081526020016000206002015411156120a7576120a481868660405180608001604052808b81526020018c81526020014281526020013373ffffffffffffffffffffffffffffffffffffffff16815250612fd4565b91505b60008211156120f957600060405180608001604052808481526020018981526020014281526020013373ffffffffffffffffffffffffffffffffffffffff1681525090506120f786868d846138a9565b505b60008a60ff16036121815785876121109190615521565b600260003373ffffffffffffffffffffffffffffffffffffffff1673ffffffffffffffffffffffffffffffffffffffff16815260200190815260200160002060008660ff1660ff16815260200190815260200160002060008282546121759190615020565b925050819055506121fa565b858761218d9190615521565b600260003373ffffffffffffffffffffffffffffffffffffffff1673ffffffffffffffffffffffffffffffffffffffff16815260200190815260200160002060008760ff1660ff16815260200190815260200160002060008282546121f29190615020565b925050819055505b7f11340760e313c90226d3979be72d7e5c52ef1aa822d8e8acf10e1c0dc73c0a20898989853342604051612233969594939291906155cf565b60405180910390a150505050505050505050565b600061225283611534565b61225b57600080fd5b612264836114a3565b82111561227057600080fd5b600061227b84610b1c565b905082600260003373ffffffffffffffffffffffffffffffffffffffff1673ffffffffffffffffffffffffffffffffffffffff16815260200190815260200160002060008360ff1660ff16815260200190815260200160002060008282546122e39190615020565b925050819055506000600160008360ff1660ff16815260200190815260200160002060000160009054906101000a900473ffffffffffffffffffffffffffffffffffffffff169050600115158173ffffffffffffffffffffffffffffffffffffffff1663a9059cbb33876040518363ffffffff1660e01b815260040161236a92919061563e565b6020604051808303816000875af1158015612389573d6000803e3d6000fd5b505050506040513d601f19601f820116820180604052508101906123ad9190615693565b1515146123b957600080fd5b7fc0a144e0d9af86fa328820e6f7f9e66f6e2a7248ff06a92aa13dc1f01e26934f853386426040516123ee9493929190614e00565b60405180910390a16123ff856114a3565b9250505092915050565b6000600560019054906101000a900460ff16905090565b600080600190505b600560019054906101000a900460ff1660ff168160ff16116125b95760016000600360008460ff1660ff16815260200190815260200160002060008154811061247457612473614c52565b5b90600052602060002090602091828204019190069054906101000a900460ff1660ff1660ff1681526020019081526020016000206001016040516124b89190615009565b60405180910390208480519060200120148015612556575060016000600360008460ff1660ff168152602001908152602001600020600181548110612500576124ff614c52565b5b90600052602060002090602091828204019190069054906101000a900460ff1660ff1660ff1681526020019081526020016000206001016040516125449190615009565b60405180910390208380519060200120145b156125a65761259d6040518060400160405280601781526020017f52657475726e696e67206d61726b657420696e646578200000000000000000008152508260ff16612b86565b809150506125ff565b80806125b190614c81565b915050612428565b506125fa6040518060400160405280601781526020017f52657475726e696e67206d61726b657420696e646578200000000000000000008152506000612b86565b600090505b92915050565b61260d612c22565b600073ffffffffffffffffffffffffffffffffffffffff168173ffffffffffffffffffffffffffffffffffffffff160361267c576040517f08c379a000000000000000000000000000000000000000000000000000000000815260040161267390615732565b60405180910390fd5b61268581612e71565b50565b61269183611534565b61269a57600080fd5b6126a382611534565b6126ac57600080fd5b6000806000808760ff16036126d6576126c486610b1c565b92506126cf85610b1c565b91506126ed565b6126df85610b1c565b92506126ea86610b1c565b91505b6000600460008360ff1660ff16815260200190815260200160002060000160008960ff1660ff168152602001908152602001600020600201541161273057600080fd5b60008060006001600460008660ff1660ff16815260200190815260200160002060000160008c60ff1660ff168152602001908152602001600020600201546127789190615020565b67ffffffffffffffff81111561279157612790614411565b5b6040519080825280602002602001820160405280156127bf5781602001602082028036833780820191505090505b50905060008060005b600460008860ff1660ff16815260200190815260200160002060000160008e60ff1660ff1681526020019081526020016000206002015481101561299657600460008860ff1660ff16815260200190815260200160002060000160008e60ff1660ff168152602001908152602001600020600301818154811061284e5761284d614c52565b5b90600052602060002001548a036129025760019550600460008860ff1660ff16815260200190815260200160002060000160008e60ff1660ff16815260200190815260200160002060010160008b8152602001908152602001600020600101549250600460008860ff1660ff16815260200190815260200160002060000160008e60ff1660ff16815260200190815260200160002060010160008b8152602001908152602001600020600001549150612983565b600460008860ff1660ff16815260200190815260200160002060000160008e60ff1660ff168152602001908152602001600020600301818154811061294a57612949614c52565b5b906000526020600020015484868151811061296857612967614c52565b5b602002602001018181525050848061297f90615054565b9550505b808061298e90615054565b9150506127c8565b50846129a157600080fd5b600460008760ff1660ff16815260200190815260200160002060000160008d60ff1660ff16815260200190815260200160002060020160008154809291906129e890615752565b919050555082600460008860ff1660ff16815260200190815260200160002060000160008e60ff1660ff1681526020019081526020016000206003019080519060200190612a37929190614110565b5060008c60ff1603612ac0578082612a4f9190615521565b600260003373ffffffffffffffffffffffffffffffffffffffff1673ffffffffffffffffffffffffffffffffffffffff16815260200190815260200160002060008960ff1660ff1681526020019081526020016000206000828254612ab49190614d27565b92505081905550612b39565b8082612acc9190615521565b600260003373ffffffffffffffffffffffffffffffffffffffff1673ffffffffffffffffffffffffffffffffffffffff16815260200190815260200160002060008a60ff1660ff1681526020019081526020016000206000828254612b319190614d27565b925050819055505b7f9a61c2300d2dd6e5e6c4d4860206d72177034372cf558a91f14cce7c88fb38dc8b8b8b3342604051612b7095949392919061577b565b60405180910390a1505050505050505050505050565b612c1e8282604051602401612b9c9291906157dc565b6040516020818303038152906040527fb60e72cc000000000000000000000000000000000000000000000000000000007bffffffffffffffffffffffffffffffffffffffffffffffffffffffff19166020820180517bffffffffffffffffffffffffffffffffffffffffffffffffffffffff8381831617835250505050613d35565b5050565b612c2a613d5e565b73ffffffffffffffffffffffffffffffffffffffff16612c4861150b565b73ffffffffffffffffffffffffffffffffffffffff1614612c9e576040517f08c379a0000000000000000000000000000000000000000000000000000000008152600401612c9590615858565b60405180910390fd5b565b612d3a838383604051602401612cb893929190615878565b6040516020818303038152906040527fca47c4eb000000000000000000000000000000000000000000000000000000007bffffffffffffffffffffffffffffffffffffffffffffffffffffffff19166020820180517bffffffffffffffffffffffffffffffffffffffffffffffffffffffff8381831617835250505050613d35565b505050565b612dd581604051602401612d5391906158b6565b6040516020818303038152906040527f41304fac000000000000000000000000000000000000000000000000000000007bffffffffffffffffffffffffffffffffffffffffffffffffffffffff19166020820180517bffffffffffffffffffffffffffffffffffffffffffffffffffffffff8381831617835250505050613d35565b50565b612e6e81604051602401612dec91906145dd565b6040516020818303038152906040527ff82c50f1000000000000000000000000000000000000000000000000000000007bffffffffffffffffffffffffffffffffffffffffffffffffffffffff19166020820180517bffffffffffffffffffffffffffffffffffffffffffffffffffffffff8381831617835250505050613d35565b50565b60008060009054906101000a900473ffffffffffffffffffffffffffffffffffffffff169050816000806101000a81548173ffffffffffffffffffffffffffffffffffffffff021916908373ffffffffffffffffffffffffffffffffffffffff1602179055508173ffffffffffffffffffffffffffffffffffffffff168173ffffffffffffffffffffffffffffffffffffffff167f8be0079c531659141344cd1fd0a4f28419497f9722a3daafe3b4186f6b6457e060405160405180910390a35050565b612fcf838383604051602401612f4d939291906158d8565b6040516020818303038152906040527f2ced7cef000000000000000000000000000000000000000000000000000000007bffffffffffffffffffffffffffffffffffffffffffffffffffffffff19166020820180517bffffffffffffffffffffffffffffffffffffffffffffffffffffffff8381831617835250505050613d35565b505050565b60006130146040518060400160405280601081526020017f696e2066756c66696c6c206f7264657200000000000000000000000000000000815250612d3f565b60006130208585611320565b90506000600460008360ff1660ff16815260200190815260200160002060000160008860ff1660ff16815260200190815260200160002060020154905061309c6040518060400160405280601081526020017f5f637572724f7264657273436f756e740000000000000000000000000000000081525082612b86565b6000805b8281101561384b5760008660000151031561384b576000600460008660ff1660ff16815260200190815260200160002060000160008b60ff1660ff16815260200190815260200160002060030182815481106130ff576130fe614c52565b5b906000526020600020015490506000600460008760ff1660ff16815260200190815260200160002060000160008c60ff1660ff16815260200190815260200160002060010160008381526020019081526020016000206000015490506000600460008860ff1660ff16815260200190815260200160002060000160008d60ff1660ff168152602001908152602001600020600101600084815260200190815260200160002060030160009054906101000a900473ffffffffffffffffffffffffffffffffffffffff16905061320b6040518060400160405280600f81526020017f496e2066756c66696c6c4f726465720000000000000000000000000000000000815250848484613d66565b60018c60ff1614801561326b5750600460008860ff1660ff16815260200190815260200160002060000160008d60ff1660ff1681526020019081526020016000206001016000848152602001908152602001600020600101548960200151105b156132785750505061384b565b60008c60ff161480156132d85750600460008860ff1660ff16815260200190815260200160002060000160008d60ff1660ff1681526020019081526020016000206001016000848152602001908152602001600020600101548960200151115b156132e55750505061384b565b818960000151106135945781896000018181516133029190615020565b915081815250506000600460008960ff1660ff16815260200190815260200160002060000160008e60ff1660ff168152602001908152602001600020600101600085815260200190815260200160002060000181905550848061336490615054565b9550507f8e0f1287f1f458f620409868b99eada1c8f01cf7a235aa33543d4c29b230bde08c8c8c8c6020015186426040516133a496959493929190615924565b60405180910390a160018c60ff16036134a5578189602001516133c79190615521565b600260008373ffffffffffffffffffffffffffffffffffffffff1673ffffffffffffffffffffffffffffffffffffffff16815260200190815260200160002060008d60ff1660ff168152602001908152602001600020600082825461342c9190614d27565b9250508190555081600260003373ffffffffffffffffffffffffffffffffffffffff1673ffffffffffffffffffffffffffffffffffffffff16815260200190815260200160002060008c60ff1660ff16815260200190815260200160002060008282546134999190614d27565b9250508190555061358f565b8189602001516134b59190615521565b600260008373ffffffffffffffffffffffffffffffffffffffff1673ffffffffffffffffffffffffffffffffffffffff16815260200190815260200160002060008c60ff1660ff168152602001908152602001600020600082825461351a9190614d27565b9250508190555081600260003373ffffffffffffffffffffffffffffffffffffffff1673ffffffffffffffffffffffffffffffffffffffff16815260200190815260200160002060008d60ff1660ff16815260200190815260200160002060008282546135879190614d27565b925050819055505b613835565b8860000151600460008960ff1660ff16815260200190815260200160002060000160008e60ff1660ff168152602001908152602001600020600101600085815260200190815260200160002060000160008282546135f29190615020565b925050819055507f8e0f1287f1f458f620409868b99eada1c8f01cf7a235aa33543d4c29b230bde08c8c8c8c60200151864260405161363696959493929190615924565b60405180910390a160018c60ff160361373b578860000151896020015161365d9190615521565b600260008373ffffffffffffffffffffffffffffffffffffffff1673ffffffffffffffffffffffffffffffffffffffff16815260200190815260200160002060008d60ff1660ff16815260200190815260200160002060008282546136c29190614d27565b9250508190555081600260003373ffffffffffffffffffffffffffffffffffffffff1673ffffffffffffffffffffffffffffffffffffffff16815260200190815260200160002060008c60ff1660ff168152602001908152602001600020600082825461372f9190614d27565b92505081905550613829565b8860000151896020015161374f9190615521565b600260008373ffffffffffffffffffffffffffffffffffffffff1673ffffffffffffffffffffffffffffffffffffffff16815260200190815260200160002060008c60ff1660ff16815260200190815260200160002060008282546137b49190614d27565b9250508190555081600260003373ffffffffffffffffffffffffffffffffffffffff1673ffffffffffffffffffffffffffffffffffffffff16815260200190815260200160002060008d60ff1660ff16815260200190815260200160002060008282546138219190614d27565b925050819055505b60008960000181815250505b505050808061384390615054565b9150506130a0565b5061388b6040518060400160405280601181526020017f4f72646572732066756c66696c6c65642000000000000000000000000000000081525082612b86565b61389782828a86613e08565b84600001519350505050949350505050565b6138e76040518060400160405280600c81526020017f496e20616464206f726465720000000000000000000000000000000000000000815250612d3f565b60006138f4858585610ba5565b5091505060006139048686611320565b90506000600460008360ff1660ff16815260200190815260200160002060000160008660ff1660ff1681526020019081526020016000206000016000815461394b90615054565b919050819055905060008167ffffffffffffffff81111561396f5761396e614411565b5b60405190808252806020026020018201604052801561399d5781602001602082028036833780820191505090505b509050600080600460008660ff1660ff16815260200190815260200160002060000160008960ff1660ff1681526020019081526020016000206002015403613a095782826000815181106139f4576139f3614c52565b5b60200260200101818152505060019050613b66565b6000805b600460008760ff1660ff16815260200190815260200160002060000160008a60ff1660ff16815260200190815260200160002060020154811015613b3d5782158015613a765750868181518110613a6757613a66614c52565b5b60200260200101518860200151115b15613aac5784848380613a8890615054565b945081518110613a9b57613a9a614c52565b5b602002602001018181525050600192505b600460008760ff1660ff16815260200190815260200160002060000160008a60ff1660ff1681526020019081526020016000206003018181548110613af457613af3614c52565b5b9060005260206000200154848380613b0b90615054565b945081518110613b1e57613b1d614c52565b5b6020026020010181815250508080613b3590615054565b915050613a0d565b5081613b645783838281518110613b5757613b56614c52565b5b6020026020010181815250505b505b81600460008660ff1660ff16815260200190815260200160002060000160008960ff1660ff1681526020019081526020016000206003019080519060200190613bb0929190614110565b50600460008560ff1660ff16815260200190815260200160002060000160008860ff1660ff1681526020019081526020016000206002016000815480929190613bf890615054565b9190505550604051806080016040528087600001518152602001876020015181526020014281526020013373ffffffffffffffffffffffffffffffffffffffff16815250600460008660ff1660ff16815260200190815260200160002060000160008960ff1660ff168152602001908152602001600020600101600085815260200190815260200160002060008201518160000155602082015181600101556040820151816002015560608201518160030160006101000a81548173ffffffffffffffffffffffffffffffffffffffff021916908373ffffffffffffffffffffffffffffffffffffffff160217905550905050613d2a6040518060400160405280600e81526020017f6973206f7264657220616464656400000000000000000000000000000000000081525082613fcd565b505050505050505050565b60008151905060006a636f6e736f6c652e6c6f679050602083016000808483855afa5050505050565b600033905090565b613e0284848484604051602401613d809493929190615985565b6040516020818303038152906040527fe21de278000000000000000000000000000000000000000000000000000000007bffffffffffffffffffffffffffffffffffffffffffffffffffffffff19166020820180517bffffffffffffffffffffffffffffffffffffffffffffffffffffffff8381831617835250505050613d35565b50505050565b613e466040518060400160405280601381526020017f5570646174696e67206f7264657220626f6f6b00000000000000000000000000815250612d3f565b60008385613e549190615020565b905060008167ffffffffffffffff811115613e7257613e71614411565b5b604051908082528060200260200182016040528015613ea05781602001602082028036833780820191505090505b50905060005b82811015613f3e57600460008560ff1660ff16815260200190815260200160002060000160008660ff1660ff1681526020019081526020016000206003018682613ef09190614d27565b81548110613f0157613f00614c52565b5b9060005260206000200154828281518110613f1f57613f1e614c52565b5b6020026020010181815250508080613f3690615054565b915050613ea6565b5081600460008560ff1660ff16815260200190815260200160002060000160008660ff1660ff1681526020019081526020016000206002018190555080600460008560ff1660ff16815260200190815260200160002060000160008660ff1660ff1681526020019081526020016000206003019080519060200190613fc4929190614110565b50505050505050565b6140658282604051602401613fe39291906159d1565b6040516020818303038152906040527fc3b55635000000000000000000000000000000000000000000000000000000007bffffffffffffffffffffffffffffffffffffffffffffffffffffffff19166020820180517bffffffffffffffffffffffffffffffffffffffffffffffffffffffff8381831617835250505050613d35565b5050565b82805482825590600052602060002090601f016020900481019282156140ff5791602002820160005b838211156140d057835183826101000a81548160ff021916908360ff1602179055509260200192600101602081600001049283019260010302614092565b80156140fd5782816101000a81549060ff02191690556001016020816000010492830192600103026140d0565b505b50905061410c919061415d565b5090565b82805482825590600052602060002090810192821561414c579160200282015b8281111561414b578251825591602001919060010190614130565b5b509050614159919061415d565b5090565b5b8082111561417657600081600090555060010161415e565b5090565b600081519050919050565b600082825260208201905092915050565b6000819050602082019050919050565b600081519050919050565b600082825260208201905092915050565b60005b838110156141e05780820151818401526020810190506141c5565b60008484015250505050565b6000601f19601f8301169050919050565b6000614208826141a6565b61421281856141b1565b93506142228185602086016141c2565b61422b816141ec565b840191505092915050565b600061424283836141fd565b905092915050565b6000602082019050919050565b60006142628261417a565b61426c8185614185565b93508360208202850161427e85614196565b8060005b858110156142ba578484038952815161429b8582614236565b94506142a68361424a565b925060208a01995050600181019050614282565b50829750879550505050505092915050565b600081519050919050565b600082825260208201905092915050565b6000819050602082019050919050565b600073ffffffffffffffffffffffffffffffffffffffff82169050919050565b6000614323826142f8565b9050919050565b61433381614318565b82525050565b6000614345838361432a565b60208301905092915050565b6000602082019050919050565b6000614369826142cc565b61437381856142d7565b935061437e836142e8565b8060005b838110156143af5781516143968882614339565b97506143a183614351565b925050600181019050614382565b5085935050505092915050565b600060408201905081810360008301526143d68185614257565b905081810360208301526143ea818461435e565b90509392505050565b6000604051905090565b600080fd5b600080fd5b600080fd5b600080fd5b7f4e487b7100000000000000000000000000000000000000000000000000000000600052604160045260246000fd5b614449826141ec565b810181811067ffffffffffffffff8211171561446857614467614411565b5b80604052505050565b600061447b6143f3565b90506144878282614440565b919050565b600067ffffffffffffffff8211156144a7576144a6614411565b5b6144b0826141ec565b9050602081019050919050565b82818337600083830152505050565b60006144df6144da8461448c565b614471565b9050828152602081018484840111156144fb576144fa61440c565b5b6145068482856144bd565b509392505050565b600082601f83011261452357614522614407565b5b81356145338482602086016144cc565b91505092915050565b6000819050919050565b61454f8161453c565b811461455a57600080fd5b50565b60008135905061456c81614546565b92915050565b60008060408385031215614589576145886143fd565b5b600083013567ffffffffffffffff8111156145a7576145a6614402565b5b6145b38582860161450e565b92505060206145c48582860161455d565b9150509250929050565b6145d78161453c565b82525050565b60006020820190506145f260008301846145ce565b92915050565b60006020828403121561460e5761460d6143fd565b5b600082013567ffffffffffffffff81111561462c5761462b614402565b5b6146388482850161450e565b91505092915050565b600060ff82169050919050565b61465781614641565b82525050565b6000602082019050614672600083018461464e565b92915050565b61468181614641565b811461468c57600080fd5b50565b60008135905061469e81614678565b92915050565b6000806000606084860312156146bd576146bc6143fd565b5b60006146cb8682870161468f565b93505060206146dc8682870161468f565b92505060406146ed8682870161468f565b9150509250925092565b600081519050919050565b600082825260208201905092915050565b6000819050602082019050919050565b61472c8161453c565b82525050565b600061473e8383614723565b60208301905092915050565b6000602082019050919050565b6000614762826146f7565b61476c8185614702565b935061477783614713565b8060005b838110156147a857815161478f8882614732565b975061479a8361474a565b92505060018101905061477b565b5085935050505092915050565b600060608201905081810360008301526147cf8186614757565b905081810360208301526147e38185614757565b905081810360408301526147f78184614757565b9050949350505050565b6000604082019050818103600083015261481b8185614257565b9050818103602083015261482f8184614757565b90509392505050565b6000806040838503121561484f5761484e6143fd565b5b600061485d8582860161468f565b925050602061486e8582860161468f565b9150509250929050565b61488181614318565b82525050565b600060208201905061489c6000830184614878565b92915050565b60008115159050919050565b6148b7816148a2565b82525050565b60006020820190506148d260008301846148ae565b92915050565b600060408201905081810360008301526148f28185614257565b905081810360208301526149068184614257565b90509392505050565b61491881614318565b811461492357600080fd5b50565b6000813590506149358161490f565b92915050565b60008060408385031215614952576149516143fd565b5b600083013567ffffffffffffffff8111156149705761496f614402565b5b61497c8582860161450e565b925050602061498d85828601614926565b9150509250929050565b600080600080600060a086880312156149b3576149b26143fd565b5b60006149c18882890161468f565b955050602086013567ffffffffffffffff8111156149e2576149e1614402565b5b6149ee8882890161450e565b945050604086013567ffffffffffffffff811115614a0f57614a0e614402565b5b614a1b8882890161450e565b9350506060614a2c8882890161455d565b9250506080614a3d8882890161455d565b9150509295509295909350565b60008060408385031215614a6157614a606143fd565b5b600083013567ffffffffffffffff811115614a7f57614a7e614402565b5b614a8b8582860161450e565b925050602083013567ffffffffffffffff811115614aac57614aab614402565b5b614ab88582860161450e565b9150509250929050565b600060208284031215614ad857614ad76143fd565b5b6000614ae684828501614926565b91505092915050565b60008060008060808587031215614b0957614b086143fd565b5b6000614b178782880161468f565b945050602085013567ffffffffffffffff811115614b3857614b37614402565b5b614b448782880161450e565b935050604085013567ffffffffffffffff811115614b6557614b64614402565b5b614b718782880161450e565b9250506060614b828782880161455d565b91505092959194509250565b7f4e487b7100000000000000000000000000000000000000000000000000000000600052602260045260246000fd5b60006002820490506001821680614bd557607f821691505b602082108103614be857614be7614b8e565b5b50919050565b7f4e487b7100000000000000000000000000000000000000000000000000000000600052601160045260246000fd5b6000614c2882614641565b9150614c3383614641565b9250828203905060ff811115614c4c57614c4b614bee565b5b92915050565b7f4e487b7100000000000000000000000000000000000000000000000000000000600052603260045260246000fd5b6000614c8c82614641565b915060ff8203614c9f57614c9e614bee565b5b600182019050919050565b600082825260208201905092915050565b7f546f6b656e206e6f742070726573656e74000000000000000000000000000000600082015250565b6000614cf1601183614caa565b9150614cfc82614cbb565b602082019050919050565b60006020820190508181036000830152614d2081614ce4565b9050919050565b6000614d328261453c565b9150614d3d8361453c565b9250828201905080821115614d5557614d54614bee565b5b92915050565b7f416d6f756e74206f766572666c6f770000000000000000000000000000000000600082015250565b6000614d91600f83614caa565b9150614d9c82614d5b565b602082019050919050565b60006020820190508181036000830152614dc081614d84565b9050919050565b6000614dd2826141a6565b614ddc8185614caa565b9350614dec8185602086016141c2565b614df5816141ec565b840191505092915050565b60006080820190508181036000830152614e1a8187614dc7565b9050614e296020830186614878565b614e3660408301856145ce565b614e4360608301846145ce565b95945050505050565b6000614e5782614641565b9150614e6283614641565b9250828201905060ff811115614e7b57614e7a614bee565b5b92915050565b7f4d61726b657420496e646578206f766572666c6f770000000000000000000000600082015250565b6000614eb7601583614caa565b9150614ec282614e81565b602082019050919050565b60006020820190508181036000830152614ee681614eaa565b9050919050565b6000819050919050565b6000614f12614f0d614f0884614641565b614eed565b61453c565b9050919050565b614f2281614ef7565b82525050565b6000606082019050614f3d6000830186614f19565b8181036020830152614f4f8185614dc7565b9050614f5e60408301846145ce565b949350505050565b600081905092915050565b60008190508160005260206000209050919050565b60008154614f9381614bbd565b614f9d8186614f66565b94506001821660008114614fb85760018114614fcd57615000565b60ff1983168652811515820286019350615000565b614fd685614f71565b60005b83811015614ff857815481890152600182019150602081019050614fd9565b838801955050505b50505092915050565b60006150158284614f86565b915081905092915050565b600061502b8261453c565b91506150368361453c565b925082820390508181111561504e5761504d614bee565b5b92915050565b600061505f8261453c565b91507fffffffffffffffffffffffffffffffffffffffffffffffffffffffffffffffff820361509157615090614bee565b5b600182019050919050565b600081905092915050565b60008190508160005260206000209050919050565b600081546150c981614bbd565b6150d3818661509c565b945060018216600081146150ee576001811461510357615136565b60ff1983168652811515820286019350615136565b61510c856150a7565b60005b8381101561512e5781548189015260018201915060208101905061510f565b838801955050505b50505092915050565b600061514b82846150bc565b915081905092915050565b6000615161826141a6565b61516b818561509c565b935061517b8185602086016141c2565b80840191505092915050565b60006151938284615156565b915081905092915050565b7f546f6b656e20616c726561647920657869737473000000000000000000000000600082015250565b60006151d4601483614caa565b91506151df8261519e565b602082019050919050565b60006020820190508181036000830152615203816151c7565b9050919050565b7f546f6b656e20496e646578206f766572666c6f77000000000000000000000000600082015250565b6000615240601483614caa565b915061524b8261520a565b602082019050919050565b6000602082019050818103600083015261526f81615233565b9050919050565b60006020601f8301049050919050565b600082821b905092915050565b6000600883026152c37fffffffffffffffffffffffffffffffffffffffffffffffffffffffffffffffff82615286565b6152cd8683615286565b95508019841693508086168417925050509392505050565b60006153006152fb6152f68461453c565b614eed565b61453c565b9050919050565b6000819050919050565b61531a836152e5565b61532e61532682615307565b848454615293565b825550505050565b600090565b615343615336565b61534e818484615311565b505050565b5b818110156153725761536760008261533b565b600181019050615354565b5050565b601f8211156153b757615388816150a7565b61539184615276565b810160208510156153a0578190505b6153b46153ac85615276565b830182615353565b50505b505050565b600082821c905092915050565b60006153da600019846008026153bc565b1980831691505092915050565b60006153f383836153c9565b9150826002028217905092915050565b61540c826141a6565b67ffffffffffffffff81111561542557615424614411565b5b61542f8254614bbd565b61543a828285615376565b600060209050601f83116001811461546d576000841561545b578287015190505b61546585826153e7565b8655506154cd565b601f19841661547b866150a7565b60005b828110156154a35784890151825560018201915060208501945060208101905061547e565b868310156154c057848901516154bc601f8916826153c9565b8355505b6001600288020188555050505b505050505050565b60006080820190506154ea6000830187614f19565b81810360208301526154fc8186614dc7565b905061550b6040830185614878565b61551860608301846145ce565b95945050505050565b600061552c8261453c565b91506155378361453c565b92508282026155458161453c565b9150828204841483151761555c5761555b614bee565b5b5092915050565b7f4e6f7420656e6f7567682066756e647300000000000000000000000000000000600082015250565b6000615599601083614caa565b91506155a482615563565b602082019050919050565b600060208201905081810360008301526155c88161558c565b9050919050565b600060c08201905081810360008301526155e98189614dc7565b905081810360208301526155fd8188614dc7565b905061560c60408301876145ce565b61561960608301866145ce565b6156266080830185614878565b61563360a08301846145ce565b979650505050505050565b60006040820190506156536000830185614878565b61566060208301846145ce565b9392505050565b615670816148a2565b811461567b57600080fd5b50565b60008151905061568d81615667565b92915050565b6000602082840312156156a9576156a86143fd565b5b60006156b78482850161567e565b91505092915050565b7f4f776e61626c653a206e6577206f776e657220697320746865207a65726f206160008201527f6464726573730000000000000000000000000000000000000000000000000000602082015250565b600061571c602683614caa565b9150615727826156c0565b604082019050919050565b6000602082019050818103600083015261574b8161570f565b9050919050565b600061575d8261453c565b9150600082036157705761576f614bee565b5b600182039050919050565b600060a08201905081810360008301526157958188614dc7565b905081810360208301526157a98187614dc7565b90506157b860408301866145ce565b6157c56060830185614878565b6157d260808301846145ce565b9695505050505050565b600060408201905081810360008301526157f68185614dc7565b905061580560208301846145ce565b9392505050565b7f4f776e61626c653a2063616c6c6572206973206e6f7420746865206f776e6572600082015250565b6000615842602083614caa565b915061584d8261580c565b602082019050919050565b6000602082019050818103600083015261587181615835565b9050919050565b600060608201905081810360008301526158928186614dc7565b90506158a160208301856145ce565b6158ae60408301846145ce565b949350505050565b600060208201905081810360008301526158d08184614dc7565b905092915050565b600060608201905081810360008301526158f28186614dc7565b905081810360208301526159068185614dc7565b9050818103604083015261591a8184614dc7565b9050949350505050565b600060c082019050615939600083018961464e565b615946602083018861464e565b615953604083018761464e565b61596060608301866145ce565b61596d60808301856145ce565b61597a60a08301846145ce565b979650505050505050565b6000608082019050818103600083015261599f8187614dc7565b90506159ae60208301866145ce565b6159bb60408301856145ce565b6159c86060830184614878565b95945050505050565b600060408201905081810360008301526159eb8185614dc7565b90506159fa60208301846148ae565b939250505056fea26469706673582212206c1fea857bd5073efd02e4de18d8cff9fbc0496c117861fe3bea29e3c795fde164736f6c63430008110033",
  "devdoc": {
    "kind": "dev",
    "methods": {
      "owner()": {
        "details": "Returns the address of the current owner."
      },
      "renounceOwnership()": {
        "details": "Leaves the contract without owner. It will not be possible to call `onlyOwner` functions anymore. Can only be called by the current owner. NOTE: Renouncing ownership will leave the contract without an owner, thereby removing any functionality that is only available to the owner."
      },
      "transferOwnership(address)": {
        "details": "Transfers ownership of the contract to a new account (`newOwner`). Can only be called by the current owner."
      }
    },
    "version": 1
  },
  "userdoc": {
    "kind": "user",
    "methods": {},
    "version": 1
  },
  "storageLayout": {
    "storage": [
      {
        "astId": 7,
        "contract": "contracts/Swap.sol:Swap",
        "label": "_owner",
        "offset": 0,
        "slot": "0",
        "type": "t_address"
      },
      {
        "astId": 260,
        "contract": "contracts/Swap.sol:Swap",
        "label": "tokenInfo",
        "offset": 0,
        "slot": "1",
        "type": "t_mapping(t_uint8,t_struct(Token)227_storage)"
      },
      {
        "astId": 266,
        "contract": "contracts/Swap.sol:Swap",
        "label": "tokenBalanceForAddress",
        "offset": 0,
        "slot": "2",
        "type": "t_mapping(t_address,t_mapping(t_uint8,t_uint256))"
      },
      {
        "astId": 271,
        "contract": "contracts/Swap.sol:Swap",
        "label": "buyToSell",
        "offset": 0,
        "slot": "3",
        "type": "t_mapping(t_uint8,t_array(t_uint8)dyn_storage)"
      },
      {
        "astId": 276,
        "contract": "contracts/Swap.sol:Swap",
        "label": "ExchangeMarket",
        "offset": 0,
        "slot": "4",
        "type": "t_mapping(t_uint8,t_struct(Market)255_storage)"
      },
      {
        "astId": 278,
        "contract": "contracts/Swap.sol:Swap",
        "label": "tokenIndex",
        "offset": 0,
        "slot": "5",
        "type": "t_uint8"
      },
      {
        "astId": 280,
        "contract": "contracts/Swap.sol:Swap",
        "label": "marketIndex",
        "offset": 1,
        "slot": "5",
        "type": "t_uint8"
      }
    ],
    "types": {
      "t_address": {
        "encoding": "inplace",
        "label": "address",
        "numberOfBytes": "20"
      },
      "t_array(t_uint256)dyn_storage": {
        "base": "t_uint256",
        "encoding": "dynamic_array",
        "label": "uint256[]",
        "numberOfBytes": "32"
      },
      "t_array(t_uint8)dyn_storage": {
        "base": "t_uint8",
        "encoding": "dynamic_array",
        "label": "uint8[]",
        "numberOfBytes": "32"
      },
      "t_mapping(t_address,t_mapping(t_uint8,t_uint256))": {
        "encoding": "mapping",
        "key": "t_address",
        "label": "mapping(address => mapping(uint8 => uint256))",
        "numberOfBytes": "32",
        "value": "t_mapping(t_uint8,t_uint256)"
      },
      "t_mapping(t_uint256,t_struct(Order)236_storage)": {
        "encoding": "mapping",
        "key": "t_uint256",
        "label": "mapping(uint256 => struct Swap.Order)",
        "numberOfBytes": "32",
        "value": "t_struct(Order)236_storage"
      },
      "t_mapping(t_uint8,t_array(t_uint8)dyn_storage)": {
        "encoding": "mapping",
        "key": "t_uint8",
        "label": "mapping(uint8 => uint8[])",
        "numberOfBytes": "32",
        "value": "t_array(t_uint8)dyn_storage"
      },
      "t_mapping(t_uint8,t_struct(Market)255_storage)": {
        "encoding": "mapping",
        "key": "t_uint8",
        "label": "mapping(uint8 => struct Swap.Market)",
        "numberOfBytes": "32",
        "value": "t_struct(Market)255_storage"
      },
      "t_mapping(t_uint8,t_struct(OrderBook)249_storage)": {
        "encoding": "mapping",
        "key": "t_uint8",
        "label": "mapping(uint8 => struct Swap.OrderBook)",
        "numberOfBytes": "32",
        "value": "t_struct(OrderBook)249_storage"
      },
      "t_mapping(t_uint8,t_struct(Token)227_storage)": {
        "encoding": "mapping",
        "key": "t_uint8",
        "label": "mapping(uint8 => struct Swap.Token)",
        "numberOfBytes": "32",
        "value": "t_struct(Token)227_storage"
      },
      "t_mapping(t_uint8,t_uint256)": {
        "encoding": "mapping",
        "key": "t_uint8",
        "label": "mapping(uint8 => uint256)",
        "numberOfBytes": "32",
        "value": "t_uint256"
      },
      "t_string_storage": {
        "encoding": "bytes",
        "label": "string",
        "numberOfBytes": "32"
      },
      "t_struct(Market)255_storage": {
        "encoding": "inplace",
        "label": "struct Swap.Market",
        "members": [
          {
            "astId": 254,
            "contract": "contracts/Swap.sol:Swap",
            "label": "Orders",
            "offset": 0,
            "slot": "0",
            "type": "t_mapping(t_uint8,t_struct(OrderBook)249_storage)"
          }
        ],
        "numberOfBytes": "32"
      },
      "t_struct(Order)236_storage": {
        "encoding": "inplace",
        "label": "struct Swap.Order",
        "members": [
          {
            "astId": 229,
            "contract": "contracts/Swap.sol:Swap",
            "label": "quantity",
            "offset": 0,
            "slot": "0",
            "type": "t_uint256"
          },
          {
            "astId": 231,
            "contract": "contracts/Swap.sol:Swap",
            "label": "price",
            "offset": 0,
            "slot": "1",
            "type": "t_uint256"
          },
          {
            "astId": 233,
            "contract": "contracts/Swap.sol:Swap",
            "label": "timestamp",
            "offset": 0,
            "slot": "2",
            "type": "t_uint256"
          },
          {
            "astId": 235,
            "contract": "contracts/Swap.sol:Swap",
            "label": "user",
            "offset": 0,
            "slot": "3",
            "type": "t_address"
          }
        ],
        "numberOfBytes": "128"
      },
      "t_struct(OrderBook)249_storage": {
        "encoding": "inplace",
        "label": "struct Swap.OrderBook",
        "members": [
          {
            "astId": 238,
            "contract": "contracts/Swap.sol:Swap",
            "label": "orderIndex",
            "offset": 0,
            "slot": "0",
            "type": "t_uint256"
          },
          {
            "astId": 243,
            "contract": "contracts/Swap.sol:Swap",
            "label": "orders",
            "offset": 0,
            "slot": "1",
            "type": "t_mapping(t_uint256,t_struct(Order)236_storage)"
          },
          {
            "astId": 245,
            "contract": "contracts/Swap.sol:Swap",
            "label": "ordersCount",
            "offset": 0,
            "slot": "2",
            "type": "t_uint256"
          },
          {
            "astId": 248,
            "contract": "contracts/Swap.sol:Swap",
            "label": "ordersQueue",
            "offset": 0,
            "slot": "3",
            "type": "t_array(t_uint256)dyn_storage"
          }
        ],
        "numberOfBytes": "128"
      },
      "t_struct(Token)227_storage": {
        "encoding": "inplace",
        "label": "struct Swap.Token",
        "members": [
          {
            "astId": 224,
            "contract": "contracts/Swap.sol:Swap",
            "label": "contractAddress",
            "offset": 0,
            "slot": "0",
            "type": "t_address"
          },
          {
            "astId": 226,
            "contract": "contracts/Swap.sol:Swap",
            "label": "symbolName",
            "offset": 0,
            "slot": "1",
            "type": "t_string_storage"
          }
        ],
        "numberOfBytes": "64"
      },
      "t_uint256": {
        "encoding": "inplace",
        "label": "uint256",
        "numberOfBytes": "32"
      },
      "t_uint8": {
        "encoding": "inplace",
        "label": "uint8",
        "numberOfBytes": "1"
      }
    }
  }
}