{
  "address": "0xCf7Ed3AccA5a467e9e704C703E8D87F634fB0Fc9",
  "abi": [
    {
      "inputs": [],
      "stateMutability": "nonpayable",
      "type": "constructor"
    },
    {
      "anonymous": false,
      "inputs": [
        {
          "indexed": false,
          "internalType": "uint256",
          "name": "marketIndex",
          "type": "uint256"
        },
        {
          "indexed": false,
          "internalType": "string",
          "name": "symbolName",
          "type": "string"
        },
        {
          "indexed": false,
          "internalType": "uint256",
          "name": "timestamp",
          "type": "uint256"
        }
      ],
      "name": "LogAddMarket",
      "type": "event"
    },
    {
      "anonymous": false,
      "inputs": [
        {
          "indexed": false,
          "internalType": "uint256",
          "name": "tokenIndex",
          "type": "uint256"
        },
        {
          "indexed": false,
          "internalType": "string",
          "name": "symbolName",
          "type": "string"
        },
        {
          "indexed": false,
          "internalType": "address",
          "name": "EC20TokenAddress",
          "type": "address"
        },
        {
          "indexed": false,
          "internalType": "uint256",
          "name": "timestamp",
          "type": "uint256"
        }
      ],
      "name": "LogAddToken",
      "type": "event"
    },
    {
      "anonymous": false,
      "inputs": [
        {
          "indexed": false,
          "internalType": "string",
          "name": "symbolName1",
          "type": "string"
        },
        {
          "indexed": false,
          "internalType": "string",
          "name": "symbolName2",
          "type": "string"
        },
        {
          "indexed": false,
          "internalType": "uint256",
          "name": "price",
          "type": "uint256"
        },
        {
          "indexed": false,
          "internalType": "uint256",
          "name": "amount",
          "type": "uint256"
        },
        {
          "indexed": false,
          "internalType": "address",
          "name": "buyer",
          "type": "address"
        },
        {
          "indexed": false,
          "internalType": "uint256",
          "name": "timestamp",
          "type": "uint256"
        }
      ],
      "name": "LogBuyToken",
      "type": "event"
    },
    {
      "anonymous": false,
      "inputs": [
        {
          "indexed": false,
          "internalType": "string",
          "name": "symbolName1",
          "type": "string"
        },
        {
          "indexed": false,
          "internalType": "string",
          "name": "symbolName2",
          "type": "string"
        },
        {
          "indexed": false,
          "internalType": "uint256",
          "name": "orderIndex",
          "type": "uint256"
        },
        {
          "indexed": false,
          "internalType": "address",
          "name": "buyer",
          "type": "address"
        },
        {
          "indexed": false,
          "internalType": "uint256",
          "name": "timestamp",
          "type": "uint256"
        }
      ],
      "name": "LogCancelBuyOrder",
      "type": "event"
    },
    {
      "anonymous": false,
      "inputs": [
        {
          "indexed": false,
          "internalType": "string",
          "name": "symbolName1",
          "type": "string"
        },
        {
          "indexed": false,
          "internalType": "string",
          "name": "symbolName2",
          "type": "string"
        },
        {
          "indexed": false,
          "internalType": "uint256",
          "name": "orderIndex",
          "type": "uint256"
        },
        {
          "indexed": false,
          "internalType": "address",
          "name": "seller",
          "type": "address"
        },
        {
          "indexed": false,
          "internalType": "uint256",
          "name": "timestamp",
          "type": "uint256"
        }
      ],
      "name": "LogCancelSellOrder",
      "type": "event"
    },
    {
      "anonymous": false,
      "inputs": [
        {
          "indexed": false,
          "internalType": "string",
          "name": "symbolName1",
          "type": "string"
        },
        {
          "indexed": false,
          "internalType": "string",
          "name": "symbolName2",
          "type": "string"
        },
        {
          "indexed": false,
          "internalType": "uint256",
          "name": "price",
          "type": "uint256"
        },
        {
          "indexed": false,
          "internalType": "uint256",
          "name": "amount",
          "type": "uint256"
        },
        {
          "indexed": false,
          "internalType": "address",
          "name": "buyer",
          "type": "address"
        },
        {
          "indexed": false,
          "internalType": "uint256",
          "name": "timestamp",
          "type": "uint256"
        }
      ],
      "name": "LogCreateBuyOrder",
      "type": "event"
    },
    {
      "anonymous": false,
      "inputs": [
        {
          "indexed": false,
          "internalType": "string",
          "name": "symbolName1",
          "type": "string"
        },
        {
          "indexed": false,
          "internalType": "string",
          "name": "symbolName2",
          "type": "string"
        },
        {
          "indexed": false,
          "internalType": "uint256",
          "name": "price",
          "type": "uint256"
        },
        {
          "indexed": false,
          "internalType": "uint256",
          "name": "amount",
          "type": "uint256"
        },
        {
          "indexed": false,
          "internalType": "address",
          "name": "seller",
          "type": "address"
        },
        {
          "indexed": false,
          "internalType": "uint256",
          "name": "timestamp",
          "type": "uint256"
        }
      ],
      "name": "LogCreateSellOrder",
      "type": "event"
    },
    {
      "anonymous": false,
      "inputs": [
        {
          "indexed": false,
          "internalType": "string",
          "name": "symbolName",
          "type": "string"
        },
        {
          "indexed": false,
          "internalType": "address",
          "name": "accountAddress",
          "type": "address"
        },
        {
          "indexed": false,
          "internalType": "uint256",
          "name": "amount",
          "type": "uint256"
        },
        {
          "indexed": false,
          "internalType": "uint256",
          "name": "timestamp",
          "type": "uint256"
        }
      ],
      "name": "LogDepositToken",
      "type": "event"
    },
    {
      "anonymous": false,
      "inputs": [
        {
          "indexed": false,
          "internalType": "uint8",
          "name": "typeOfOrder",
          "type": "uint8"
        },
        {
          "indexed": false,
          "internalType": "uint8",
          "name": "symbolName1",
          "type": "uint8"
        },
        {
          "indexed": false,
          "internalType": "uint8",
          "name": "symbolName2",
          "type": "uint8"
        },
        {
          "indexed": false,
          "internalType": "uint256",
          "name": "price",
          "type": "uint256"
        },
        {
          "indexed": false,
          "internalType": "uint256",
          "name": "amount",
          "type": "uint256"
        },
        {
          "indexed": false,
          "internalType": "uint256",
          "name": "timestamp",
          "type": "uint256"
        }
      ],
      "name": "LogFulfillOrder",
      "type": "event"
    },
    {
      "anonymous": false,
      "inputs": [
        {
          "indexed": false,
          "internalType": "string",
          "name": "symbolName1",
          "type": "string"
        },
        {
          "indexed": false,
          "internalType": "string",
          "name": "symbolName2",
          "type": "string"
        },
        {
          "indexed": false,
          "internalType": "uint256",
          "name": "price",
          "type": "uint256"
        },
        {
          "indexed": false,
          "internalType": "uint256",
          "name": "amount",
          "type": "uint256"
        },
        {
          "indexed": false,
          "internalType": "address",
          "name": "buyer",
          "type": "address"
        },
        {
          "indexed": false,
          "internalType": "uint256",
          "name": "timestamp",
          "type": "uint256"
        }
      ],
      "name": "LogSellToken",
      "type": "event"
    },
    {
      "anonymous": false,
      "inputs": [
        {
          "indexed": false,
          "internalType": "string",
          "name": "symbolName",
          "type": "string"
        },
        {
          "indexed": false,
          "internalType": "address",
          "name": "accountAddress",
          "type": "address"
        },
        {
          "indexed": false,
          "internalType": "uint256",
          "name": "amount",
          "type": "uint256"
        },
        {
          "indexed": false,
          "internalType": "uint256",
          "name": "timestamp",
          "type": "uint256"
        }
      ],
      "name": "LogWithdrawToken",
      "type": "event"
    },
    {
      "anonymous": false,
      "inputs": [
        {
          "indexed": true,
          "internalType": "address",
          "name": "previousOwner",
          "type": "address"
        },
        {
          "indexed": true,
          "internalType": "address",
          "name": "newOwner",
          "type": "address"
        }
      ],
      "name": "OwnershipTransferred",
      "type": "event"
    },
    {
      "inputs": [
        {
          "internalType": "string",
          "name": "symbolName",
          "type": "string"
        }
      ],
      "name": "addMarket",
      "outputs": [],
      "stateMutability": "nonpayable",
      "type": "function"
    },
    {
      "inputs": [
        {
          "internalType": "string",
          "name": "symbolName",
          "type": "string"
        },
        {
          "internalType": "address",
          "name": "EC20TokenAddress",
          "type": "address"
        }
      ],
      "name": "addToken",
      "outputs": [],
      "stateMutability": "nonpayable",
      "type": "function"
    },
    {
      "inputs": [
        {
          "internalType": "uint8",
          "name": "typeOfOrder",
          "type": "uint8"
        },
        {
          "internalType": "string",
          "name": "buyTokenSymbol",
          "type": "string"
        },
        {
          "internalType": "string",
          "name": "sellTokenSymbol",
          "type": "string"
        },
        {
          "internalType": "uint256",
          "name": "orderIndex",
          "type": "uint256"
        }
      ],
      "name": "cancelOrder",
      "outputs": [],
      "stateMutability": "nonpayable",
      "type": "function"
    },
    {
      "inputs": [
        {
          "internalType": "uint8",
          "name": "typeOfOrder",
          "type": "uint8"
        },
        {
          "internalType": "string",
          "name": "buySymbolName",
          "type": "string"
        },
        {
          "internalType": "string",
          "name": "sellSymbolName",
          "type": "string"
        },
        {
          "internalType": "uint256",
          "name": "price",
          "type": "uint256"
        },
        {
          "internalType": "uint256",
          "name": "quantity",
          "type": "uint256"
        }
      ],
      "name": "createOrder",
      "outputs": [],
      "stateMutability": "nonpayable",
      "type": "function"
    },
    {
      "inputs": [
        {
          "internalType": "string",
          "name": "symbolName",
          "type": "string"
        },
        {
          "internalType": "uint256",
          "name": "amount",
          "type": "uint256"
        }
      ],
      "name": "depositToken",
      "outputs": [
        {
          "internalType": "uint256",
          "name": "tokenBalance",
          "type": "uint256"
        }
      ],
      "stateMutability": "nonpayable",
      "type": "function"
    },
    {
      "inputs": [],
      "name": "getAllMarkets",
      "outputs": [
        {
          "internalType": "string[]",
          "name": "",
          "type": "string[]"
        },
        {
          "internalType": "string[]",
          "name": "",
          "type": "string[]"
        }
      ],
      "stateMutability": "view",
      "type": "function"
    },
    {
      "inputs": [],
      "name": "getAllTokenBalanceForUser",
      "outputs": [
        {
          "internalType": "string[]",
          "name": "",
          "type": "string[]"
        },
        {
          "internalType": "uint256[]",
          "name": "",
          "type": "uint256[]"
        }
      ],
      "stateMutability": "view",
      "type": "function"
    },
    {
      "inputs": [],
      "name": "getAllTokens",
      "outputs": [
        {
          "internalType": "string[]",
          "name": "",
          "type": "string[]"
        },
        {
          "internalType": "address[]",
          "name": "",
          "type": "address[]"
        }
      ],
      "stateMutability": "view",
      "type": "function"
    },
    {
      "inputs": [
        {
          "internalType": "uint8",
          "name": "buyTokenIndex",
          "type": "uint8"
        },
        {
          "internalType": "uint8",
          "name": "sellTokenIndex",
          "type": "uint8"
        }
      ],
      "name": "getMarketIndex",
      "outputs": [
        {
          "internalType": "uint8",
          "name": "",
          "type": "uint8"
        }
      ],
      "stateMutability": "view",
      "type": "function"
    },
    {
      "inputs": [],
      "name": "getMarketIndex",
      "outputs": [
        {
          "internalType": "uint8",
          "name": "",
          "type": "uint8"
        }
      ],
      "stateMutability": "view",
      "type": "function"
    },
    {
      "inputs": [
        {
          "internalType": "string",
          "name": "buyTokenSymbol",
          "type": "string"
        },
        {
          "internalType": "string",
          "name": "sellTokenSymbol",
          "type": "string"
        }
      ],
      "name": "getMarketIndex",
      "outputs": [
        {
          "internalType": "uint8",
          "name": "",
          "type": "uint8"
        }
      ],
      "stateMutability": "view",
      "type": "function"
    },
    {
      "inputs": [
        {
          "internalType": "uint8",
          "name": "buyTokenIndex",
          "type": "uint8"
        },
        {
          "internalType": "uint8",
          "name": "sellTokenIndex",
          "type": "uint8"
        },
        {
          "internalType": "uint8",
          "name": "type_of_order",
          "type": "uint8"
        }
      ],
      "name": "getOrderBook",
      "outputs": [
        {
          "internalType": "uint256[]",
          "name": "",
          "type": "uint256[]"
        },
        {
          "internalType": "uint256[]",
          "name": "",
          "type": "uint256[]"
        },
        {
          "internalType": "uint256[]",
          "name": "",
          "type": "uint256[]"
        }
      ],
      "stateMutability": "view",
      "type": "function"
    },
    {
      "inputs": [
        {
          "internalType": "string",
          "name": "symbolName",
          "type": "string"
        }
      ],
      "name": "getTokenBalanceForUser",
      "outputs": [
        {
          "internalType": "uint256",
          "name": "",
          "type": "uint256"
        }
      ],
      "stateMutability": "view",
      "type": "function"
    },
    {
      "inputs": [
        {
          "internalType": "string",
          "name": "symbolName",
          "type": "string"
        }
      ],
      "name": "getTokenIndex",
      "outputs": [
        {
          "internalType": "uint8",
          "name": "",
          "type": "uint8"
        }
      ],
      "stateMutability": "view",
      "type": "function"
    },
    {
      "inputs": [
        {
          "internalType": "string",
          "name": "symbolName",
          "type": "string"
        }
      ],
      "name": "hasToken",
      "outputs": [
        {
          "internalType": "bool",
          "name": "",
          "type": "bool"
        }
      ],
      "stateMutability": "view",
      "type": "function"
    },
    {
      "inputs": [],
      "name": "owner",
      "outputs": [
        {
          "internalType": "address",
          "name": "",
          "type": "address"
        }
      ],
      "stateMutability": "view",
      "type": "function"
    },
    {
      "inputs": [],
      "name": "renounceOwnership",
      "outputs": [],
      "stateMutability": "nonpayable",
      "type": "function"
    },
    {
      "inputs": [
        {
          "internalType": "address",
          "name": "newOwner",
          "type": "address"
        }
      ],
      "name": "transferOwnership",
      "outputs": [],
      "stateMutability": "nonpayable",
      "type": "function"
    },
    {
      "inputs": [
        {
          "internalType": "string",
          "name": "symbolName",
          "type": "string"
        },
        {
          "internalType": "uint256",
          "name": "amount",
          "type": "uint256"
        }
      ],
      "name": "withdrawToken",
      "outputs": [
        {
          "internalType": "uint256",
          "name": "tokenBalance",
          "type": "uint256"
        }
      ],
      "stateMutability": "nonpayable",
      "type": "function"
    }
  ],
  "transactionHash": "0xe09b5bfc8f30eaf0d594f11675e49def0e1acc8a2cc7a0b8bd31b0ad482b3573",
  "args": [],
  "numDeployments": 1,
  "solcInputHash": "fdd5624a0d4f98668f4f3d53ded46f48",
  "bytecode": "0x60806040523480156200001157600080fd5b5062000032620000266200007060201b60201c565b6200007860201b60201c565b6000600560006101000a81548160ff021916908360ff1602179055506000600560016101000a81548160ff021916908360ff1602179055506200013c565b600033905090565b60008060009054906101000a900473ffffffffffffffffffffffffffffffffffffffff169050816000806101000a81548173ffffffffffffffffffffffffffffffffffffffff021916908373ffffffffffffffffffffffffffffffffffffffff1602179055508173ffffffffffffffffffffffffffffffffffffffff168173ffffffffffffffffffffffffffffffffffffffff167f8be0079c531659141344cd1fd0a4f28419497f9722a3daafe3b4186f6b6457e060405160405180910390a35050565b6158d0806200014c6000396000f3fe608060405234801561001057600080fd5b50600436106101215760003560e01c80638da5cb5b116100ad578063c97a413a11610071578063c97a413a14610321578063cb803ceb14610351578063cedd00b11461036f578063f2fde38b1461039f578063f7499762146103bb57610121565b80638da5cb5b1461027c5780638ea008181461029a578063b0772d0b146102ca578063b0b22c2c146102e9578063b13bd79d1461030557610121565b806361a6d43a116100f457806361a6d43a146101c15780636409d48d146101f3578063715018a61461021257806384cde3691461021c5780638883b10c1461024c57610121565b80632a5c792a1461012657806333ad57e41461014557806342fe6695146101755780635f96876714610191575b600080fd5b61012e6103d7565b60405161013c9291906142a1565b60405180910390f35b61015f600480360381019061015a9190614457565b61064b565b60405161016c91906144c2565b60405180910390f35b61018f600480360381019061018a91906144dd565b610851565b005b6101ab60048036038101906101a691906144dd565b610b1c565b6040516101b89190614542565b60405180910390f35b6101db60048036038101906101d69190614589565b610ba5565b6040516101ea9392919061469a565b60405180910390f35b6101fb610f6b565b6040516102099291906146e6565b60405180910390f35b61021a61130c565b005b6102366004803603810190610231919061471d565b611320565b6040516102439190614542565b60405180910390f35b610266600480360381019061026191906144dd565b6114a3565b60405161027391906144c2565b60405180910390f35b61028461150b565b604051610291919061476c565b60405180910390f35b6102b460048036038101906102af91906144dd565b611534565b6040516102c191906147a2565b60405180910390f35b6102d26115ee565b6040516102e09291906147bd565b60405180910390f35b61030360048036038101906102fe9190614820565b611b0b565b005b61031f600480360381019061031a919061487c565b611d1f565b005b61033b60048036038101906103369190614457565b612201565b60405161034891906144c2565b60405180910390f35b6103596123c3565b6040516103669190614542565b60405180910390f35b6103896004803603810190610384919061492f565b6123da565b6040516103969190614542565b60405180910390f35b6103b960048036038101906103b491906149a7565b6125bf565b005b6103d560048036038101906103d091906149d4565b612642565b005b6060806000600560009054906101000a900460ff1660ff1667ffffffffffffffff811115610408576104076142f6565b5b60405190808252806020026020018201604052801561043b57816020015b60608152602001906001900390816104265790505b5090506000600560009054906101000a900460ff1660ff1667ffffffffffffffff81111561046c5761046b6142f6565b5b60405190808252806020026020018201604052801561049a5781602001602082028036833780820191505090505b5090506000600190505b600560009054906101000a900460ff1660ff168160ff161161063e57600160008260ff1660ff16815260200190815260200160002060010180546104e790614aa2565b80601f016020809104026020016040519081016040528092919081815260200182805461051390614aa2565b80156105605780601f1061053557610100808354040283529160200191610560565b820191906000526020600020905b81548152906001019060200180831161054357829003601f168201915b5050505050836001836105739190614b02565b60ff168151811061058757610586614b37565b5b6020026020010181905250600160008260ff1660ff16815260200190815260200160002060000160009054906101000a900473ffffffffffffffffffffffffffffffffffffffff16826001836105dd9190614b02565b60ff16815181106105f1576105f0614b37565b5b602002602001019073ffffffffffffffffffffffffffffffffffffffff16908173ffffffffffffffffffffffffffffffffffffffff1681525050808061063690614b66565b9150506104a4565b5081819350935050509091565b600061065683611534565b610695576040517f08c379a000000000000000000000000000000000000000000000000000000000815260040161068c90614bec565b60405180910390fd5b61069e836114a3565b826106a8856114a3565b6106b29190614c0c565b10156106f3576040517f08c379a00000000000000000000000000000000000000000000000000000000081526004016106ea90614c8c565b60405180910390fd5b60006106fe84610b1c565b905082600260003373ffffffffffffffffffffffffffffffffffffffff1673ffffffffffffffffffffffffffffffffffffffff16815260200190815260200160002060008360ff1660ff16815260200190815260200160002060008282546107669190614c0c565b925050819055506108026040518060400160405280600d81526020017f746f6b656e2062616c616e636500000000000000000000000000000000000000815250600260003373ffffffffffffffffffffffffffffffffffffffff1673ffffffffffffffffffffffffffffffffffffffff16815260200190815260200160002060008460ff1660ff16815260200190815260200160002054612b40565b7f4dbc01516018d27f28f32ddd20595428f662140f1fff79b754484578ac27fc19843385426040516108379493929190614ce5565b60405180910390a1610848846114a3565b91505092915050565b610859612bdc565b600560019054906101000a900460ff1660ff166001600560019054906101000a900460ff166108889190614d31565b60ff1610156108cc576040517f08c379a00000000000000000000000000000000000000000000000000000000081526004016108c390614db2565b60405180910390fd5b6000600190505b600560009054906101000a900460ff1660ff168160ff161015610a7d576109456040518060400160405280600e81526020017f416464696e67206d61726b657420000000000000000000000000000000000000815250600560009054906101000a900460ff1660ff168360ff16612c5a565b6005600181819054906101000a900460ff168092919061096490614b66565b91906101000a81548160ff021916908360ff160217905550506000600267ffffffffffffffff81111561099a576109996142f6565b5b6040519080825280602002602001820160405280156109c85781602001602082028036833780820191505090505b509050600560009054906101000a900460ff16816000815181106109ef576109ee614b37565b5b602002602001019060ff16908160ff16815250508181600181518110610a1857610a17614b37565b5b602002602001019060ff16908160ff16815250508060036000600560019054906101000a900460ff1660ff1660ff1681526020019081526020016000209080519060200190610a68929190613f4e565b50508080610a7590614b66565b9150506108d3565b50610acf6040518060400160405280600e81526020017f546f74616c206d61726b65747320000000000000000000000000000000000000815250600560019054906101000a900460ff1660ff16612b40565b7f8877b3481be0c4a9d298c35f0e291fd2f61a153f7d22354a14c44c8266a5a754600560019054906101000a900460ff168242604051610b1193929190614e0d565b60405180910390a150565b600080600190505b600560009054906101000a900460ff1660ff168160ff1611610b9a57600160008260ff1660ff168152602001908152602001600020600101604051610b699190614eee565b6040518091039020838051906020012003610b875780915050610ba0565b8080610b9290614b66565b915050610b24565b50600090505b919050565b6060806060610be86040518060400160405280600d81526020017f4765744f72646572626f6f6b2000000000000000000000000000000000000000815250612cf9565b610c2a6040518060400160405280600d81526020017f747970655f6f665f6f72646572000000000000000000000000000000000000008152508560ff16612b40565b6000610c368787611320565b90506000600460008360ff1660ff16815260200190815260200160002060000160008760ff1660ff1681526020019081526020016000209050610c7b8260ff16612d92565b6000816002015467ffffffffffffffff811115610c9b57610c9a6142f6565b5b604051908082528060200260200182016040528015610cc95781602001602082028036833780820191505090505b5090506000826002015467ffffffffffffffff811115610cec57610ceb6142f6565b5b604051908082528060200260200182016040528015610d1a5781602001602082028036833780820191505090505b5090506000836002015467ffffffffffffffff811115610d3d57610d3c6142f6565b5b604051908082528060200260200182016040528015610d6b5781602001602082028036833780820191505090505b509050610db16040518060400160405280601681526020017f6f726465725f626f6f6b2e6f7264657273436f756e74000000000000000000008152508560020154612b40565b6000600190505b84600201548111610f5357600085600101600087600301600185610ddc9190614f05565b81548110610ded57610dec614b37565b5b906000526020600020015481526020019081526020016000206040518060800160405290816000820154815260200160018201548152602001600282015481526020016003820160009054906101000a900473ffffffffffffffffffffffffffffffffffffffff1673ffffffffffffffffffffffffffffffffffffffff1673ffffffffffffffffffffffffffffffffffffffff1681525050905085600301600183610e989190614f05565b81548110610ea957610ea8614b37565b5b906000526020600020015485600184610ec29190614f05565b81518110610ed357610ed2614b37565b5b602002602001018181525050806020015184600184610ef29190614f05565b81518110610f0357610f02614b37565b5b602002602001018181525050806000015183600184610f229190614f05565b81518110610f3357610f32614b37565b5b602002602001018181525050508080610f4b90614f39565b915050610db8565b50828282975097509750505050505093509350939050565b6060806000600560009054906101000a900460ff1660ff1667ffffffffffffffff811115610f9c57610f9b6142f6565b5b604051908082528060200260200182016040528015610fcf57816020015b6060815260200190600190039081610fba5790505b5090506000600560009054906101000a900460ff1660ff1667ffffffffffffffff81111561100057610fff6142f6565b5b60405190808252806020026020018201604052801561102e5781602001602082028036833780820191505090505b5090506000600190505b600560009054906101000a900460ff1660ff168160ff16116112ff5761113f6040518060400160405280600881526020017f62616c616e63652000000000000000000000000000000000000000000000000081525061113a600160008560ff1660ff16815260200190815260200160002060010180546110b790614aa2565b80601f01602080910402602001604051908101604052809291908181526020018280546110e390614aa2565b80156111305780601f1061110557610100808354040283529160200191611130565b820191906000526020600020905b81548152906001019060200180831161111357829003601f168201915b50505050506114a3565b612b40565b600160008260ff1660ff168152602001908152602001600020600101805461116690614aa2565b80601f016020809104026020016040519081016040528092919081815260200182805461119290614aa2565b80156111df5780601f106111b4576101008083540402835291602001916111df565b820191906000526020600020905b8154815290600101906020018083116111c257829003601f168201915b5050505050836001836111f29190614b02565b60ff168151811061120657611205614b37565b5b60200260200101819052506112be600160008360ff1660ff168152602001908152602001600020600101805461123b90614aa2565b80601f016020809104026020016040519081016040528092919081815260200182805461126790614aa2565b80156112b45780601f10611289576101008083540402835291602001916112b4565b820191906000526020600020905b81548152906001019060200180831161129757829003601f168201915b50505050506114a3565b826001836112cc9190614b02565b60ff16815181106112e0576112df614b37565b5b60200260200101818152505080806112f790614b66565b915050611038565b5081819350935050509091565b611314612bdc565b61131e6000612e2b565b565b600080600190505b600560019054906101000a900460ff1660ff168160ff161161145757600360008260ff1660ff1681526020019081526020016000206000815481106113705761136f614b37565b5b90600052602060002090602091828204019190069054906101000a900460ff1660ff168460ff161480156113f45750600360008260ff1660ff1681526020019081526020016000206001815481106113cb576113ca614b37565b5b90600052602060002090602091828204019190069054906101000a900460ff1660ff168360ff16145b156114445761143b6040518060400160405280601781526020017f52657475726e696e67206d61726b657420696e646578200000000000000000008152508260ff16612b40565b8091505061149d565b808061144f90614b66565b915050611328565b506114986040518060400160405280601781526020017f52657475726e696e67206d61726b657420696e646578200000000000000000008152506000612b40565b600090505b92915050565b6000600260003373ffffffffffffffffffffffffffffffffffffffff1673ffffffffffffffffffffffffffffffffffffffff16815260200190815260200160002060006114ef84610b1c565b60ff1660ff168152602001908152602001600020549050919050565b60008060009054906101000a900473ffffffffffffffffffffffffffffffffffffffff16905090565b600080600190505b600560009054906101000a900460ff1660ff168160ff16116115e357600160008260ff1660ff1681526020019081526020016000206001016040516020016115849190615024565b60405160208183030381529060405280519060200120836040516020016115ab919061506c565b60405160208183030381529060405280519060200120036115d05760019150506115e9565b80806115db90614b66565b91505061153c565b50600090505b919050565b6060806000600560019054906101000a900460ff1660ff1667ffffffffffffffff81111561161f5761161e6142f6565b5b60405190808252806020026020018201604052801561165257816020015b606081526020019060019003908161163d5790505b5090506000600560019054906101000a900460ff1660ff1667ffffffffffffffff811115611683576116826142f6565b5b6040519080825280602002602001820160405280156116b657816020015b60608152602001906001900390816116a15790505b50905061170a6040518060400160405280600f81526020017f6d61726b657473206e756d626572200000000000000000000000000000000000815250600560019054906101000a900460ff1660ff16612b40565b6000600190505b600560019054906101000a900460ff1660ff168160ff1611611afe576118b16040518060400160405280600781526020017f4d61726b6574200000000000000000000000000000000000000000000000000081525060016000600260ff168152602001908152602001600020600101805461178b90614aa2565b80601f01602080910402602001604051908101604052809291908181526020018280546117b790614aa2565b80156118045780601f106117d957610100808354040283529160200191611804565b820191906000526020600020905b8154815290600101906020018083116117e757829003601f168201915b505050505060016000600160ff168152602001908152602001600020600101805461182e90614aa2565b80601f016020809104026020016040519081016040528092919081815260200182805461185a90614aa2565b80156118a75780601f1061187c576101008083540402835291602001916118a7565b820191906000526020600020905b81548152906001019060200180831161188a57829003601f168201915b5050505050612eef565b60016000600360008460ff1660ff1681526020019081526020016000206000815481106118e1576118e0614b37565b5b90600052602060002090602091828204019190069054906101000a900460ff1660ff1660ff168152602001908152602001600020600101805461192390614aa2565b80601f016020809104026020016040519081016040528092919081815260200182805461194f90614aa2565b801561199c5780601f106119715761010080835404028352916020019161199c565b820191906000526020600020905b81548152906001019060200180831161197f57829003601f168201915b5050505050836001836119af9190614b02565b60ff16815181106119c3576119c2614b37565b5b602002602001018190525060016000600360008460ff1660ff1681526020019081526020016000206001815481106119fe576119fd614b37565b5b90600052602060002090602091828204019190069054906101000a900460ff1660ff1660ff1681526020019081526020016000206001018054611a4090614aa2565b80601f0160208091040260200160405190810160405280929190818152602001828054611a6c90614aa2565b8015611ab95780601f10611a8e57610100808354040283529160200191611ab9565b820191906000526020600020905b815481529060010190602001808311611a9c57829003601f168201915b505050505082600183611acc9190614b02565b60ff1681518110611ae057611adf614b37565b5b60200260200101819052508080611af690614b66565b915050611711565b5081819350935050509091565b611b13612bdc565b611b1c82611534565b15611b5c576040517f08c379a0000000000000000000000000000000000000000000000000000000008152600401611b53906150cf565b60405180910390fd5b600560009054906101000a900460ff1660ff166001600560009054906101000a900460ff16611b8b9190614d31565b60ff161015611bcf576040517f08c379a0000000000000000000000000000000000000000000000000000000008152600401611bc69061513b565b60405180910390fd5b6005600081819054906101000a900460ff1680929190611bee90614b66565b91906101000a81548160ff021916908360ff160217905550508160016000600560009054906101000a900460ff1660ff1660ff1681526020019081526020016000206001019081611c3f91906152e8565b508060016000600560009054906101000a900460ff1660ff1660ff16815260200190815260200160002060000160006101000a81548173ffffffffffffffffffffffffffffffffffffffff021916908373ffffffffffffffffffffffffffffffffffffffff1602179055506001600560009054906101000a900460ff1660ff161115611ccf57611cce82610851565b5b7f1723c709bc871c32c420d3c2d2837cdd4bef40c574088c1d055e1f4f609d2377600560009054906101000a900460ff16838342604051611d1394939291906153ba565b60405180910390a15050565b611d5d6040518060400160405280600e81526020017f6372656174696e67206f72646572000000000000000000000000000000000000815250612cf9565b611d6684611534565b611da5576040517f08c379a0000000000000000000000000000000000000000000000000000000008152600401611d9c90614bec565b60405180910390fd5b611dae83611534565b611ded576040517f08c379a0000000000000000000000000000000000000000000000000000000008152600401611de490614bec565b60405180910390fd5b611e2b6040518060400160405280601281526020017f6372656174696e6720627579206f726465720000000000000000000000000000815250612cf9565b60008060008084905060008960ff1603611efe57611e4888610b1c565b9350611e5387610b1c565b92508486611e619190615406565b600260003373ffffffffffffffffffffffffffffffffffffffff1673ffffffffffffffffffffffffffffffffffffffff16815260200190815260200160002060008560ff1660ff168152602001908152602001600020541015611ef9576040517f08c379a0000000000000000000000000000000000000000000000000000000008152600401611ef090615494565b60405180910390fd5b611fb9565b611f0787610b1c565b9350611f1288610b1c565b92508486611f209190615406565b600260003373ffffffffffffffffffffffffffffffffffffffff1673ffffffffffffffffffffffffffffffffffffffff16815260200190815260200160002060008660ff1660ff168152602001908152602001600020541015611fb8576040517f08c379a0000000000000000000000000000000000000000000000000000000008152600401611faf90615494565b60405180910390fd5b5b611fc38484611320565b91506000808a60ff1614611fd8576000611fdb565b60015b90506000600460008560ff1660ff16815260200190815260200160002060000160008360ff1660ff1681526020019081526020016000206002015411156120615761205e8a868660405180608001604052808b81526020018c81526020014281526020013373ffffffffffffffffffffffffffffffffffffffff16815250612f8e565b91505b60008211156120b357600060405180608001604052808481526020018981526020014281526020013373ffffffffffffffffffffffffffffffffffffffff1681525090506120b186868d846137d6565b505b60008a60ff160361213b5781876120ca9190615406565b600260003373ffffffffffffffffffffffffffffffffffffffff1673ffffffffffffffffffffffffffffffffffffffff16815260200190815260200160002060008760ff1660ff168152602001908152602001600020600082825461212f9190614f05565b925050819055506121b4565b81876121479190615406565b600260003373ffffffffffffffffffffffffffffffffffffffff1673ffffffffffffffffffffffffffffffffffffffff16815260200190815260200160002060008660ff1660ff16815260200190815260200160002060008282546121ac9190614f05565b925050819055505b7f11340760e313c90226d3979be72d7e5c52ef1aa822d8e8acf10e1c0dc73c0a208989898533426040516121ed969594939291906154b4565b60405180910390a150505050505050505050565b600061220c83611534565b61221557600080fd5b61221e836114a3565b82111561222a57600080fd5b600061223584610b1c565b905082600260003373ffffffffffffffffffffffffffffffffffffffff1673ffffffffffffffffffffffffffffffffffffffff16815260200190815260200160002060008360ff1660ff168152602001908152602001600020600082825461229d9190614f05565b925050819055506000600160008360ff1660ff16815260200190815260200160002060000160009054906101000a900473ffffffffffffffffffffffffffffffffffffffff169050600115158173ffffffffffffffffffffffffffffffffffffffff1663a9059cbb33876040518363ffffffff1660e01b8152600401612324929190615523565b6020604051808303816000875af1158015612343573d6000803e3d6000fd5b505050506040513d601f19601f820116820180604052508101906123679190615578565b15151461237357600080fd5b7fc0a144e0d9af86fa328820e6f7f9e66f6e2a7248ff06a92aa13dc1f01e26934f853386426040516123a89493929190614ce5565b60405180910390a16123b9856114a3565b9250505092915050565b6000600560019054906101000a900460ff16905090565b600080600190505b600560019054906101000a900460ff1660ff168160ff16116125735760016000600360008460ff1660ff16815260200190815260200160002060008154811061242e5761242d614b37565b5b90600052602060002090602091828204019190069054906101000a900460ff1660ff1660ff1681526020019081526020016000206001016040516124729190614eee565b60405180910390208480519060200120148015612510575060016000600360008460ff1660ff1681526020019081526020016000206001815481106124ba576124b9614b37565b5b90600052602060002090602091828204019190069054906101000a900460ff1660ff1660ff1681526020019081526020016000206001016040516124fe9190614eee565b60405180910390208380519060200120145b15612560576125576040518060400160405280601781526020017f52657475726e696e67206d61726b657420696e646578200000000000000000008152508260ff16612b40565b809150506125b9565b808061256b90614b66565b9150506123e2565b506125b46040518060400160405280601781526020017f52657475726e696e67206d61726b657420696e646578200000000000000000008152506000612b40565b600090505b92915050565b6125c7612bdc565b600073ffffffffffffffffffffffffffffffffffffffff168173ffffffffffffffffffffffffffffffffffffffff1603612636576040517f08c379a000000000000000000000000000000000000000000000000000000000815260040161262d90615617565b60405180910390fd5b61263f81612e2b565b50565b61264b83611534565b61265457600080fd5b61265d82611534565b61266657600080fd5b6000806000808760ff16036126905761267e86610b1c565b925061268985610b1c565b91506126a7565b61269985610b1c565b92506126a486610b1c565b91505b6000600460008360ff1660ff16815260200190815260200160002060000160008960ff1660ff16815260200190815260200160002060020154116126ea57600080fd5b60008060006001600460008660ff1660ff16815260200190815260200160002060000160008c60ff1660ff168152602001908152602001600020600201546127329190614f05565b67ffffffffffffffff81111561274b5761274a6142f6565b5b6040519080825280602002602001820160405280156127795781602001602082028036833780820191505090505b50905060008060005b600460008860ff1660ff16815260200190815260200160002060000160008e60ff1660ff1681526020019081526020016000206002015481101561295057600460008860ff1660ff16815260200190815260200160002060000160008e60ff1660ff168152602001908152602001600020600301818154811061280857612807614b37565b5b90600052602060002001548a036128bc5760019550600460008860ff1660ff16815260200190815260200160002060000160008e60ff1660ff16815260200190815260200160002060010160008b8152602001908152602001600020600101549250600460008860ff1660ff16815260200190815260200160002060000160008e60ff1660ff16815260200190815260200160002060010160008b815260200190815260200160002060000154915061293d565b600460008860ff1660ff16815260200190815260200160002060000160008e60ff1660ff168152602001908152602001600020600301818154811061290457612903614b37565b5b906000526020600020015484868151811061292257612921614b37565b5b602002602001018181525050848061293990614f39565b9550505b808061294890614f39565b915050612782565b508461295b57600080fd5b600460008760ff1660ff16815260200190815260200160002060000160008d60ff1660ff16815260200190815260200160002060020160008154809291906129a290615637565b919050555082600460008860ff1660ff16815260200190815260200160002060000160008e60ff1660ff16815260200190815260200160002060030190805190602001906129f1929190613ff5565b5060008c60ff1603612a7a578082612a099190615406565b600260003373ffffffffffffffffffffffffffffffffffffffff1673ffffffffffffffffffffffffffffffffffffffff16815260200190815260200160002060008960ff1660ff1681526020019081526020016000206000828254612a6e9190614c0c565b92505081905550612af3565b8082612a869190615406565b600260003373ffffffffffffffffffffffffffffffffffffffff1673ffffffffffffffffffffffffffffffffffffffff16815260200190815260200160002060008a60ff1660ff1681526020019081526020016000206000828254612aeb9190614c0c565b925050819055505b7f9a61c2300d2dd6e5e6c4d4860206d72177034372cf558a91f14cce7c88fb38dc8b8b8b3342604051612b2a959493929190615660565b60405180910390a1505050505050505050505050565b612bd88282604051602401612b569291906156c1565b6040516020818303038152906040527fb60e72cc000000000000000000000000000000000000000000000000000000007bffffffffffffffffffffffffffffffffffffffffffffffffffffffff19166020820180517bffffffffffffffffffffffffffffffffffffffffffffffffffffffff8381831617835250505050613c62565b5050565b612be4613c8b565b73ffffffffffffffffffffffffffffffffffffffff16612c0261150b565b73ffffffffffffffffffffffffffffffffffffffff1614612c58576040517f08c379a0000000000000000000000000000000000000000000000000000000008152600401612c4f9061573d565b60405180910390fd5b565b612cf4838383604051602401612c729392919061575d565b6040516020818303038152906040527fca47c4eb000000000000000000000000000000000000000000000000000000007bffffffffffffffffffffffffffffffffffffffffffffffffffffffff19166020820180517bffffffffffffffffffffffffffffffffffffffffffffffffffffffff8381831617835250505050613c62565b505050565b612d8f81604051602401612d0d919061579b565b6040516020818303038152906040527f41304fac000000000000000000000000000000000000000000000000000000007bffffffffffffffffffffffffffffffffffffffffffffffffffffffff19166020820180517bffffffffffffffffffffffffffffffffffffffffffffffffffffffff8381831617835250505050613c62565b50565b612e2881604051602401612da691906144c2565b6040516020818303038152906040527ff82c50f1000000000000000000000000000000000000000000000000000000007bffffffffffffffffffffffffffffffffffffffffffffffffffffffff19166020820180517bffffffffffffffffffffffffffffffffffffffffffffffffffffffff8381831617835250505050613c62565b50565b60008060009054906101000a900473ffffffffffffffffffffffffffffffffffffffff169050816000806101000a81548173ffffffffffffffffffffffffffffffffffffffff021916908373ffffffffffffffffffffffffffffffffffffffff1602179055508173ffffffffffffffffffffffffffffffffffffffff168173ffffffffffffffffffffffffffffffffffffffff167f8be0079c531659141344cd1fd0a4f28419497f9722a3daafe3b4186f6b6457e060405160405180910390a35050565b612f89838383604051602401612f07939291906157bd565b6040516020818303038152906040527f2ced7cef000000000000000000000000000000000000000000000000000000007bffffffffffffffffffffffffffffffffffffffffffffffffffffffff19166020820180517bffffffffffffffffffffffffffffffffffffffffffffffffffffffff8381831617835250505050613c62565b505050565b6000612fce6040518060400160405280601081526020017f696e2066756c66696c6c206f7264657200000000000000000000000000000000815250612cf9565b600080600460008360ff1660ff16815260200190815260200160002060000160008860ff1660ff1681526020019081526020016000206002015490506000805b8281101561377857600086600001510315613778576000600460008660ff1660ff16815260200190815260200160002060000160008b60ff1660ff168152602001908152602001600020600301828154811061306d5761306c614b37565b5b906000526020600020015490506000600460008760ff1660ff16815260200190815260200160002060000160008c60ff1660ff16815260200190815260200160002060010160008381526020019081526020016000206000015490506000600460008860ff1660ff16815260200190815260200160002060000160008d60ff1660ff168152602001908152602001600020600101600084815260200190815260200160002060030160009054906101000a900473ffffffffffffffffffffffffffffffffffffffff16905060008c60ff161480156131985750600460008860ff1660ff16815260200190815260200160002060000160008d60ff1660ff1681526020019081526020016000206001016000848152602001908152602001600020600101548960200151105b156131a557505050613778565b60018c60ff161480156132055750600460008860ff1660ff16815260200190815260200160002060000160008d60ff1660ff1681526020019081526020016000206001016000848152602001908152602001600020600101548960200151115b1561321257505050613778565b818960000151106134c157818960000181815161322f9190614f05565b915081815250506000600460008960ff1660ff16815260200190815260200160002060000160008e60ff1660ff168152602001908152602001600020600101600085815260200190815260200160002060000181905550848061329190614f39565b9550507f8e0f1287f1f458f620409868b99eada1c8f01cf7a235aa33543d4c29b230bde08c8c8c8c6020015186426040516132d196959493929190615809565b60405180910390a160008c60ff16036133d2578189602001516132f49190615406565b600260008373ffffffffffffffffffffffffffffffffffffffff1673ffffffffffffffffffffffffffffffffffffffff16815260200190815260200160002060008c60ff1660ff16815260200190815260200160002060008282546133599190614c0c565b9250508190555081600260003373ffffffffffffffffffffffffffffffffffffffff1673ffffffffffffffffffffffffffffffffffffffff16815260200190815260200160002060008d60ff1660ff16815260200190815260200160002060008282546133c69190614c0c565b925050819055506134bc565b8189602001516133e29190615406565b600260008373ffffffffffffffffffffffffffffffffffffffff1673ffffffffffffffffffffffffffffffffffffffff16815260200190815260200160002060008d60ff1660ff16815260200190815260200160002060008282546134479190614c0c565b9250508190555081600260003373ffffffffffffffffffffffffffffffffffffffff1673ffffffffffffffffffffffffffffffffffffffff16815260200190815260200160002060008c60ff1660ff16815260200190815260200160002060008282546134b49190614c0c565b925050819055505b613762565b8860000151600460008960ff1660ff16815260200190815260200160002060000160008e60ff1660ff1681526020019081526020016000206001016000858152602001908152602001600020600001600082825461351f9190614f05565b925050819055507f8e0f1287f1f458f620409868b99eada1c8f01cf7a235aa33543d4c29b230bde08c8c8c8c60200151864260405161356396959493929190615809565b60405180910390a160008c60ff1603613668578860000151896020015161358a9190615406565b600260008373ffffffffffffffffffffffffffffffffffffffff1673ffffffffffffffffffffffffffffffffffffffff16815260200190815260200160002060008c60ff1660ff16815260200190815260200160002060008282546135ef9190614c0c565b9250508190555081600260003373ffffffffffffffffffffffffffffffffffffffff1673ffffffffffffffffffffffffffffffffffffffff16815260200190815260200160002060008d60ff1660ff168152602001908152602001600020600082825461365c9190614c0c565b92505081905550613756565b8860000151896020015161367c9190615406565b600260008373ffffffffffffffffffffffffffffffffffffffff1673ffffffffffffffffffffffffffffffffffffffff16815260200190815260200160002060008d60ff1660ff16815260200190815260200160002060008282546136e19190614c0c565b9250508190555081600260003373ffffffffffffffffffffffffffffffffffffffff1673ffffffffffffffffffffffffffffffffffffffff16815260200190815260200160002060008c60ff1660ff168152602001908152602001600020600082825461374e9190614c0c565b925050819055505b60008960000181815250505b505050808061377090614f39565b91505061300e565b506137b86040518060400160405280601181526020017f4f72646572732066756c66696c6c65642000000000000000000000000000000081525082612b40565b6137c482828a86613c93565b84600001519350505050949350505050565b6138146040518060400160405280600c81526020017f496e20616464206f726465720000000000000000000000000000000000000000815250612cf9565b6000613821858585610ba5565b5091505060006138318686611320565b90506000600460008360ff1660ff16815260200190815260200160002060000160008660ff1660ff1681526020019081526020016000206000016000815461387890614f39565b919050819055905060008167ffffffffffffffff81111561389c5761389b6142f6565b5b6040519080825280602002602001820160405280156138ca5781602001602082028036833780820191505090505b509050600080600460008660ff1660ff16815260200190815260200160002060000160008960ff1660ff168152602001908152602001600020600201540361393657828260008151811061392157613920614b37565b5b60200260200101818152505060019050613a93565b6000805b600460008760ff1660ff16815260200190815260200160002060000160008a60ff1660ff16815260200190815260200160002060020154811015613a6a57821580156139a3575086818151811061399457613993614b37565b5b60200260200101518860200151115b156139d957848483806139b590614f39565b9450815181106139c8576139c7614b37565b5b602002602001018181525050600192505b600460008760ff1660ff16815260200190815260200160002060000160008a60ff1660ff1681526020019081526020016000206003018181548110613a2157613a20614b37565b5b9060005260206000200154848380613a3890614f39565b945081518110613a4b57613a4a614b37565b5b6020026020010181815250508080613a6290614f39565b91505061393a565b5081613a915783838281518110613a8457613a83614b37565b5b6020026020010181815250505b505b81600460008660ff1660ff16815260200190815260200160002060000160008960ff1660ff1681526020019081526020016000206003019080519060200190613add929190613ff5565b50600460008560ff1660ff16815260200190815260200160002060000160008860ff1660ff1681526020019081526020016000206002016000815480929190613b2590614f39565b9190505550604051806080016040528087600001518152602001876020015181526020014281526020013373ffffffffffffffffffffffffffffffffffffffff16815250600460008660ff1660ff16815260200190815260200160002060000160008960ff1660ff168152602001908152602001600020600101600085815260200190815260200160002060008201518160000155602082015181600101556040820151816002015560608201518160030160006101000a81548173ffffffffffffffffffffffffffffffffffffffff021916908373ffffffffffffffffffffffffffffffffffffffff160217905550905050613c576040518060400160405280600e81526020017f6973206f7264657220616464656400000000000000000000000000000000000081525082613eb2565b505050505050505050565b60008151905060006a636f6e736f6c652e6c6f679050602083016000808483855afa5050505050565b600033905090565b613cd16040518060400160405280601381526020017f5570646174696e67206f7264657220626f6f6b00000000000000000000000000815250612cf9565b60008385613cdf9190614f05565b905060008167ffffffffffffffff811115613cfd57613cfc6142f6565b5b604051908082528060200260200182016040528015613d2b5781602001602082028036833780820191505090505b50905060005b82811015613dc957600460008560ff1660ff16815260200190815260200160002060000160008660ff1660ff1681526020019081526020016000206003018682613d7b9190614c0c565b81548110613d8c57613d8b614b37565b5b9060005260206000200154828281518110613daa57613da9614b37565b5b6020026020010181815250508080613dc190614f39565b915050613d31565b5081600460008560ff1660ff16815260200190815260200160002060000160008660ff1660ff1681526020019081526020016000206002018190555080600460008560ff1660ff16815260200190815260200160002060000160008660ff1660ff1681526020019081526020016000206003019080519060200190613e4f929190613ff5565b50613eaa6040518060400160405280601481526020017f5f6e657753656c6c4f726465727351756575652000000000000000000000000081525082600081518110613e9d57613e9c614b37565b5b6020026020010151612b40565b505050505050565b613f4a8282604051602401613ec892919061586a565b6040516020818303038152906040527fc3b55635000000000000000000000000000000000000000000000000000000007bffffffffffffffffffffffffffffffffffffffffffffffffffffffff19166020820180517bffffffffffffffffffffffffffffffffffffffffffffffffffffffff8381831617835250505050613c62565b5050565b82805482825590600052602060002090601f01602090048101928215613fe45791602002820160005b83821115613fb557835183826101000a81548160ff021916908360ff1602179055509260200192600101602081600001049283019260010302613f77565b8015613fe25782816101000a81549060ff0219169055600101602081600001049283019260010302613fb5565b505b509050613ff19190614042565b5090565b828054828255906000526020600020908101928215614031579160200282015b82811115614030578251825591602001919060010190614015565b5b50905061403e9190614042565b5090565b5b8082111561405b576000816000905550600101614043565b5090565b600081519050919050565b600082825260208201905092915050565b6000819050602082019050919050565b600081519050919050565b600082825260208201905092915050565b60005b838110156140c55780820151818401526020810190506140aa565b60008484015250505050565b6000601f19601f8301169050919050565b60006140ed8261408b565b6140f78185614096565b93506141078185602086016140a7565b614110816140d1565b840191505092915050565b600061412783836140e2565b905092915050565b6000602082019050919050565b60006141478261405f565b614151818561406a565b9350836020820285016141638561407b565b8060005b8581101561419f5784840389528151614180858261411b565b945061418b8361412f565b925060208a01995050600181019050614167565b50829750879550505050505092915050565b600081519050919050565b600082825260208201905092915050565b6000819050602082019050919050565b600073ffffffffffffffffffffffffffffffffffffffff82169050919050565b6000614208826141dd565b9050919050565b614218816141fd565b82525050565b600061422a838361420f565b60208301905092915050565b6000602082019050919050565b600061424e826141b1565b61425881856141bc565b9350614263836141cd565b8060005b8381101561429457815161427b888261421e565b975061428683614236565b925050600181019050614267565b5085935050505092915050565b600060408201905081810360008301526142bb818561413c565b905081810360208301526142cf8184614243565b90509392505050565b6000604051905090565b600080fd5b600080fd5b600080fd5b600080fd5b7f4e487b7100000000000000000000000000000000000000000000000000000000600052604160045260246000fd5b61432e826140d1565b810181811067ffffffffffffffff8211171561434d5761434c6142f6565b5b80604052505050565b60006143606142d8565b905061436c8282614325565b919050565b600067ffffffffffffffff82111561438c5761438b6142f6565b5b614395826140d1565b9050602081019050919050565b82818337600083830152505050565b60006143c46143bf84614371565b614356565b9050828152602081018484840111156143e0576143df6142f1565b5b6143eb8482856143a2565b509392505050565b600082601f830112614408576144076142ec565b5b81356144188482602086016143b1565b91505092915050565b6000819050919050565b61443481614421565b811461443f57600080fd5b50565b6000813590506144518161442b565b92915050565b6000806040838503121561446e5761446d6142e2565b5b600083013567ffffffffffffffff81111561448c5761448b6142e7565b5b614498858286016143f3565b92505060206144a985828601614442565b9150509250929050565b6144bc81614421565b82525050565b60006020820190506144d760008301846144b3565b92915050565b6000602082840312156144f3576144f26142e2565b5b600082013567ffffffffffffffff811115614511576145106142e7565b5b61451d848285016143f3565b91505092915050565b600060ff82169050919050565b61453c81614526565b82525050565b60006020820190506145576000830184614533565b92915050565b61456681614526565b811461457157600080fd5b50565b6000813590506145838161455d565b92915050565b6000806000606084860312156145a2576145a16142e2565b5b60006145b086828701614574565b93505060206145c186828701614574565b92505060406145d286828701614574565b9150509250925092565b600081519050919050565b600082825260208201905092915050565b6000819050602082019050919050565b61461181614421565b82525050565b60006146238383614608565b60208301905092915050565b6000602082019050919050565b6000614647826145dc565b61465181856145e7565b935061465c836145f8565b8060005b8381101561468d5781516146748882614617565b975061467f8361462f565b925050600181019050614660565b5085935050505092915050565b600060608201905081810360008301526146b4818661463c565b905081810360208301526146c8818561463c565b905081810360408301526146dc818461463c565b9050949350505050565b60006040820190508181036000830152614700818561413c565b90508181036020830152614714818461463c565b90509392505050565b60008060408385031215614734576147336142e2565b5b600061474285828601614574565b925050602061475385828601614574565b9150509250929050565b614766816141fd565b82525050565b6000602082019050614781600083018461475d565b92915050565b60008115159050919050565b61479c81614787565b82525050565b60006020820190506147b76000830184614793565b92915050565b600060408201905081810360008301526147d7818561413c565b905081810360208301526147eb818461413c565b90509392505050565b6147fd816141fd565b811461480857600080fd5b50565b60008135905061481a816147f4565b92915050565b60008060408385031215614837576148366142e2565b5b600083013567ffffffffffffffff811115614855576148546142e7565b5b614861858286016143f3565b92505060206148728582860161480b565b9150509250929050565b600080600080600060a08688031215614898576148976142e2565b5b60006148a688828901614574565b955050602086013567ffffffffffffffff8111156148c7576148c66142e7565b5b6148d3888289016143f3565b945050604086013567ffffffffffffffff8111156148f4576148f36142e7565b5b614900888289016143f3565b935050606061491188828901614442565b925050608061492288828901614442565b9150509295509295909350565b60008060408385031215614946576149456142e2565b5b600083013567ffffffffffffffff811115614964576149636142e7565b5b614970858286016143f3565b925050602083013567ffffffffffffffff811115614991576149906142e7565b5b61499d858286016143f3565b9150509250929050565b6000602082840312156149bd576149bc6142e2565b5b60006149cb8482850161480b565b91505092915050565b600080600080608085870312156149ee576149ed6142e2565b5b60006149fc87828801614574565b945050602085013567ffffffffffffffff811115614a1d57614a1c6142e7565b5b614a29878288016143f3565b935050604085013567ffffffffffffffff811115614a4a57614a496142e7565b5b614a56878288016143f3565b9250506060614a6787828801614442565b91505092959194509250565b7f4e487b7100000000000000000000000000000000000000000000000000000000600052602260045260246000fd5b60006002820490506001821680614aba57607f821691505b602082108103614acd57614acc614a73565b5b50919050565b7f4e487b7100000000000000000000000000000000000000000000000000000000600052601160045260246000fd5b6000614b0d82614526565b9150614b1883614526565b9250828203905060ff811115614b3157614b30614ad3565b5b92915050565b7f4e487b7100000000000000000000000000000000000000000000000000000000600052603260045260246000fd5b6000614b7182614526565b915060ff8203614b8457614b83614ad3565b5b600182019050919050565b600082825260208201905092915050565b7f546f6b656e206e6f742070726573656e74000000000000000000000000000000600082015250565b6000614bd6601183614b8f565b9150614be182614ba0565b602082019050919050565b60006020820190508181036000830152614c0581614bc9565b9050919050565b6000614c1782614421565b9150614c2283614421565b9250828201905080821115614c3a57614c39614ad3565b5b92915050565b7f416d6f756e74206f766572666c6f770000000000000000000000000000000000600082015250565b6000614c76600f83614b8f565b9150614c8182614c40565b602082019050919050565b60006020820190508181036000830152614ca581614c69565b9050919050565b6000614cb78261408b565b614cc18185614b8f565b9350614cd18185602086016140a7565b614cda816140d1565b840191505092915050565b60006080820190508181036000830152614cff8187614cac565b9050614d0e602083018661475d565b614d1b60408301856144b3565b614d2860608301846144b3565b95945050505050565b6000614d3c82614526565b9150614d4783614526565b9250828201905060ff811115614d6057614d5f614ad3565b5b92915050565b7f4d61726b657420496e646578206f766572666c6f770000000000000000000000600082015250565b6000614d9c601583614b8f565b9150614da782614d66565b602082019050919050565b60006020820190508181036000830152614dcb81614d8f565b9050919050565b6000819050919050565b6000614df7614df2614ded84614526565b614dd2565b614421565b9050919050565b614e0781614ddc565b82525050565b6000606082019050614e226000830186614dfe565b8181036020830152614e348185614cac565b9050614e4360408301846144b3565b949350505050565b600081905092915050565b60008190508160005260206000209050919050565b60008154614e7881614aa2565b614e828186614e4b565b94506001821660008114614e9d5760018114614eb257614ee5565b60ff1983168652811515820286019350614ee5565b614ebb85614e56565b60005b83811015614edd57815481890152600182019150602081019050614ebe565b838801955050505b50505092915050565b6000614efa8284614e6b565b915081905092915050565b6000614f1082614421565b9150614f1b83614421565b9250828203905081811115614f3357614f32614ad3565b5b92915050565b6000614f4482614421565b91507fffffffffffffffffffffffffffffffffffffffffffffffffffffffffffffffff8203614f7657614f75614ad3565b5b600182019050919050565b600081905092915050565b60008190508160005260206000209050919050565b60008154614fae81614aa2565b614fb88186614f81565b94506001821660008114614fd35760018114614fe85761501b565b60ff198316865281151582028601935061501b565b614ff185614f8c565b60005b8381101561501357815481890152600182019150602081019050614ff4565b838801955050505b50505092915050565b60006150308284614fa1565b915081905092915050565b60006150468261408b565b6150508185614f81565b93506150608185602086016140a7565b80840191505092915050565b6000615078828461503b565b915081905092915050565b7f546f6b656e20616c726561647920657869737473000000000000000000000000600082015250565b60006150b9601483614b8f565b91506150c482615083565b602082019050919050565b600060208201905081810360008301526150e8816150ac565b9050919050565b7f546f6b656e20496e646578206f766572666c6f77000000000000000000000000600082015250565b6000615125601483614b8f565b9150615130826150ef565b602082019050919050565b6000602082019050818103600083015261515481615118565b9050919050565b60006020601f8301049050919050565b600082821b905092915050565b6000600883026151a87fffffffffffffffffffffffffffffffffffffffffffffffffffffffffffffffff8261516b565b6151b2868361516b565b95508019841693508086168417925050509392505050565b60006151e56151e06151db84614421565b614dd2565b614421565b9050919050565b6000819050919050565b6151ff836151ca565b61521361520b826151ec565b848454615178565b825550505050565b600090565b61522861521b565b6152338184846151f6565b505050565b5b818110156152575761524c600082615220565b600181019050615239565b5050565b601f82111561529c5761526d81614f8c565b6152768461515b565b81016020851015615285578190505b6152996152918561515b565b830182615238565b50505b505050565b600082821c905092915050565b60006152bf600019846008026152a1565b1980831691505092915050565b60006152d883836152ae565b9150826002028217905092915050565b6152f18261408b565b67ffffffffffffffff81111561530a576153096142f6565b5b6153148254614aa2565b61531f82828561525b565b600060209050601f8311600181146153525760008415615340578287015190505b61534a85826152cc565b8655506153b2565b601f19841661536086614f8c565b60005b8281101561538857848901518255600182019150602085019450602081019050615363565b868310156153a557848901516153a1601f8916826152ae565b8355505b6001600288020188555050505b505050505050565b60006080820190506153cf6000830187614dfe565b81810360208301526153e18186614cac565b90506153f0604083018561475d565b6153fd60608301846144b3565b95945050505050565b600061541182614421565b915061541c83614421565b925082820261542a81614421565b9150828204841483151761544157615440614ad3565b5b5092915050565b7f4e6f7420656e6f7567682066756e647300000000000000000000000000000000600082015250565b600061547e601083614b8f565b915061548982615448565b602082019050919050565b600060208201905081810360008301526154ad81615471565b9050919050565b600060c08201905081810360008301526154ce8189614cac565b905081810360208301526154e28188614cac565b90506154f160408301876144b3565b6154fe60608301866144b3565b61550b608083018561475d565b61551860a08301846144b3565b979650505050505050565b6000604082019050615538600083018561475d565b61554560208301846144b3565b9392505050565b61555581614787565b811461556057600080fd5b50565b6000815190506155728161554c565b92915050565b60006020828403121561558e5761558d6142e2565b5b600061559c84828501615563565b91505092915050565b7f4f776e61626c653a206e6577206f776e657220697320746865207a65726f206160008201527f6464726573730000000000000000000000000000000000000000000000000000602082015250565b6000615601602683614b8f565b915061560c826155a5565b604082019050919050565b60006020820190508181036000830152615630816155f4565b9050919050565b600061564282614421565b91506000820361565557615654614ad3565b5b600182039050919050565b600060a082019050818103600083015261567a8188614cac565b9050818103602083015261568e8187614cac565b905061569d60408301866144b3565b6156aa606083018561475d565b6156b760808301846144b3565b9695505050505050565b600060408201905081810360008301526156db8185614cac565b90506156ea60208301846144b3565b9392505050565b7f4f776e61626c653a2063616c6c6572206973206e6f7420746865206f776e6572600082015250565b6000615727602083614b8f565b9150615732826156f1565b602082019050919050565b600060208201905081810360008301526157568161571a565b9050919050565b600060608201905081810360008301526157778186614cac565b905061578660208301856144b3565b61579360408301846144b3565b949350505050565b600060208201905081810360008301526157b58184614cac565b905092915050565b600060608201905081810360008301526157d78186614cac565b905081810360208301526157eb8185614cac565b905081810360408301526157ff8184614cac565b9050949350505050565b600060c08201905061581e6000830189614533565b61582b6020830188614533565b6158386040830187614533565b61584560608301866144b3565b61585260808301856144b3565b61585f60a08301846144b3565b979650505050505050565b600060408201905081810360008301526158848185614cac565b90506158936020830184614793565b939250505056fea2646970667358221220da9d1fed03df951d9b3039cf70cf7ee4a1db50bdb6194123868e4ec9c485d93464736f6c63430008110033",
  "devdoc": {
    "kind": "dev",
    "methods": {
      "owner()": {
        "details": "Returns the address of the current owner."
      },
      "renounceOwnership()": {
        "details": "Leaves the contract without owner. It will not be possible to call `onlyOwner` functions anymore. Can only be called by the current owner. NOTE: Renouncing ownership will leave the contract without an owner, thereby removing any functionality that is only available to the owner."
      },
      "transferOwnership(address)": {
        "details": "Transfers ownership of the contract to a new account (`newOwner`). Can only be called by the current owner."
      }
    },
    "version": 1
  },
  "userdoc": {
    "kind": "user",
    "methods": {},
    "version": 1
  },
  "storageLayout": {
    "storage": [
      {
        "astId": 7,
        "contract": "contracts/Swap.sol:Swap",
        "label": "_owner",
        "offset": 0,
        "slot": "0",
        "type": "t_address"
      },
      {
        "astId": 260,
        "contract": "contracts/Swap.sol:Swap",
        "label": "tokenInfo",
        "offset": 0,
        "slot": "1",
        "type": "t_mapping(t_uint8,t_struct(Token)227_storage)"
      },
      {
        "astId": 266,
        "contract": "contracts/Swap.sol:Swap",
        "label": "tokenBalanceForAddress",
        "offset": 0,
        "slot": "2",
        "type": "t_mapping(t_address,t_mapping(t_uint8,t_uint256))"
      },
      {
        "astId": 271,
        "contract": "contracts/Swap.sol:Swap",
        "label": "buyToSell",
        "offset": 0,
        "slot": "3",
        "type": "t_mapping(t_uint8,t_array(t_uint8)dyn_storage)"
      },
      {
        "astId": 276,
        "contract": "contracts/Swap.sol:Swap",
        "label": "ExchangeMarket",
        "offset": 0,
        "slot": "4",
        "type": "t_mapping(t_uint8,t_struct(Market)255_storage)"
      },
      {
        "astId": 278,
        "contract": "contracts/Swap.sol:Swap",
        "label": "tokenIndex",
        "offset": 0,
        "slot": "5",
        "type": "t_uint8"
      },
      {
        "astId": 280,
        "contract": "contracts/Swap.sol:Swap",
        "label": "marketIndex",
        "offset": 1,
        "slot": "5",
        "type": "t_uint8"
      }
    ],
    "types": {
      "t_address": {
        "encoding": "inplace",
        "label": "address",
        "numberOfBytes": "20"
      },
      "t_array(t_uint256)dyn_storage": {
        "base": "t_uint256",
        "encoding": "dynamic_array",
        "label": "uint256[]",
        "numberOfBytes": "32"
      },
      "t_array(t_uint8)dyn_storage": {
        "base": "t_uint8",
        "encoding": "dynamic_array",
        "label": "uint8[]",
        "numberOfBytes": "32"
      },
      "t_mapping(t_address,t_mapping(t_uint8,t_uint256))": {
        "encoding": "mapping",
        "key": "t_address",
        "label": "mapping(address => mapping(uint8 => uint256))",
        "numberOfBytes": "32",
        "value": "t_mapping(t_uint8,t_uint256)"
      },
      "t_mapping(t_uint256,t_struct(Order)236_storage)": {
        "encoding": "mapping",
        "key": "t_uint256",
        "label": "mapping(uint256 => struct Swap.Order)",
        "numberOfBytes": "32",
        "value": "t_struct(Order)236_storage"
      },
      "t_mapping(t_uint8,t_array(t_uint8)dyn_storage)": {
        "encoding": "mapping",
        "key": "t_uint8",
        "label": "mapping(uint8 => uint8[])",
        "numberOfBytes": "32",
        "value": "t_array(t_uint8)dyn_storage"
      },
      "t_mapping(t_uint8,t_struct(Market)255_storage)": {
        "encoding": "mapping",
        "key": "t_uint8",
        "label": "mapping(uint8 => struct Swap.Market)",
        "numberOfBytes": "32",
        "value": "t_struct(Market)255_storage"
      },
      "t_mapping(t_uint8,t_struct(OrderBook)249_storage)": {
        "encoding": "mapping",
        "key": "t_uint8",
        "label": "mapping(uint8 => struct Swap.OrderBook)",
        "numberOfBytes": "32",
        "value": "t_struct(OrderBook)249_storage"
      },
      "t_mapping(t_uint8,t_struct(Token)227_storage)": {
        "encoding": "mapping",
        "key": "t_uint8",
        "label": "mapping(uint8 => struct Swap.Token)",
        "numberOfBytes": "32",
        "value": "t_struct(Token)227_storage"
      },
      "t_mapping(t_uint8,t_uint256)": {
        "encoding": "mapping",
        "key": "t_uint8",
        "label": "mapping(uint8 => uint256)",
        "numberOfBytes": "32",
        "value": "t_uint256"
      },
      "t_string_storage": {
        "encoding": "bytes",
        "label": "string",
        "numberOfBytes": "32"
      },
      "t_struct(Market)255_storage": {
        "encoding": "inplace",
        "label": "struct Swap.Market",
        "members": [
          {
            "astId": 254,
            "contract": "contracts/Swap.sol:Swap",
            "label": "Orders",
            "offset": 0,
            "slot": "0",
            "type": "t_mapping(t_uint8,t_struct(OrderBook)249_storage)"
          }
        ],
        "numberOfBytes": "32"
      },
      "t_struct(Order)236_storage": {
        "encoding": "inplace",
        "label": "struct Swap.Order",
        "members": [
          {
            "astId": 229,
            "contract": "contracts/Swap.sol:Swap",
            "label": "quantity",
            "offset": 0,
            "slot": "0",
            "type": "t_uint256"
          },
          {
            "astId": 231,
            "contract": "contracts/Swap.sol:Swap",
            "label": "price",
            "offset": 0,
            "slot": "1",
            "type": "t_uint256"
          },
          {
            "astId": 233,
            "contract": "contracts/Swap.sol:Swap",
            "label": "timestamp",
            "offset": 0,
            "slot": "2",
            "type": "t_uint256"
          },
          {
            "astId": 235,
            "contract": "contracts/Swap.sol:Swap",
            "label": "user",
            "offset": 0,
            "slot": "3",
            "type": "t_address"
          }
        ],
        "numberOfBytes": "128"
      },
      "t_struct(OrderBook)249_storage": {
        "encoding": "inplace",
        "label": "struct Swap.OrderBook",
        "members": [
          {
            "astId": 238,
            "contract": "contracts/Swap.sol:Swap",
            "label": "orderIndex",
            "offset": 0,
            "slot": "0",
            "type": "t_uint256"
          },
          {
            "astId": 243,
            "contract": "contracts/Swap.sol:Swap",
            "label": "orders",
            "offset": 0,
            "slot": "1",
            "type": "t_mapping(t_uint256,t_struct(Order)236_storage)"
          },
          {
            "astId": 245,
            "contract": "contracts/Swap.sol:Swap",
            "label": "ordersCount",
            "offset": 0,
            "slot": "2",
            "type": "t_uint256"
          },
          {
            "astId": 248,
            "contract": "contracts/Swap.sol:Swap",
            "label": "ordersQueue",
            "offset": 0,
            "slot": "3",
            "type": "t_array(t_uint256)dyn_storage"
          }
        ],
        "numberOfBytes": "128"
      },
      "t_struct(Token)227_storage": {
        "encoding": "inplace",
        "label": "struct Swap.Token",
        "members": [
          {
            "astId": 224,
            "contract": "contracts/Swap.sol:Swap",
            "label": "contractAddress",
            "offset": 0,
            "slot": "0",
            "type": "t_address"
          },
          {
            "astId": 226,
            "contract": "contracts/Swap.sol:Swap",
            "label": "symbolName",
            "offset": 0,
            "slot": "1",
            "type": "t_string_storage"
          }
        ],
        "numberOfBytes": "64"
      },
      "t_uint256": {
        "encoding": "inplace",
        "label": "uint256",
        "numberOfBytes": "32"
      },
      "t_uint8": {
        "encoding": "inplace",
        "label": "uint8",
        "numberOfBytes": "1"
      }
    }
  }
}