{
  "address": "0xCf7Ed3AccA5a467e9e704C703E8D87F634fB0Fc9",
  "abi": [
    {
      "inputs": [],
      "stateMutability": "nonpayable",
      "type": "constructor"
    },
    {
      "anonymous": false,
      "inputs": [
        {
          "indexed": false,
          "internalType": "uint256",
          "name": "marketIndex",
          "type": "uint256"
        },
        {
          "indexed": false,
          "internalType": "string",
          "name": "symbolName",
          "type": "string"
        },
        {
          "indexed": false,
          "internalType": "uint256",
          "name": "timestamp",
          "type": "uint256"
        }
      ],
      "name": "LogAddMarket",
      "type": "event"
    },
    {
      "anonymous": false,
      "inputs": [
        {
          "indexed": false,
          "internalType": "uint256",
          "name": "tokenIndex",
          "type": "uint256"
        },
        {
          "indexed": false,
          "internalType": "string",
          "name": "symbolName",
          "type": "string"
        },
        {
          "indexed": false,
          "internalType": "address",
          "name": "EC20TokenAddress",
          "type": "address"
        },
        {
          "indexed": false,
          "internalType": "uint256",
          "name": "timestamp",
          "type": "uint256"
        }
      ],
      "name": "LogAddToken",
      "type": "event"
    },
    {
      "anonymous": false,
      "inputs": [
        {
          "indexed": false,
          "internalType": "string",
          "name": "symbolName1",
          "type": "string"
        },
        {
          "indexed": false,
          "internalType": "string",
          "name": "symbolName2",
          "type": "string"
        },
        {
          "indexed": false,
          "internalType": "uint256",
          "name": "price",
          "type": "uint256"
        },
        {
          "indexed": false,
          "internalType": "uint256",
          "name": "amount",
          "type": "uint256"
        },
        {
          "indexed": false,
          "internalType": "address",
          "name": "buyer",
          "type": "address"
        },
        {
          "indexed": false,
          "internalType": "uint256",
          "name": "timestamp",
          "type": "uint256"
        }
      ],
      "name": "LogBuyToken",
      "type": "event"
    },
    {
      "anonymous": false,
      "inputs": [
        {
          "indexed": false,
          "internalType": "string",
          "name": "symbolName1",
          "type": "string"
        },
        {
          "indexed": false,
          "internalType": "string",
          "name": "symbolName2",
          "type": "string"
        },
        {
          "indexed": false,
          "internalType": "uint256",
          "name": "orderIndex",
          "type": "uint256"
        },
        {
          "indexed": false,
          "internalType": "address",
          "name": "buyer",
          "type": "address"
        },
        {
          "indexed": false,
          "internalType": "uint256",
          "name": "timestamp",
          "type": "uint256"
        }
      ],
      "name": "LogCancelBuyOrder",
      "type": "event"
    },
    {
      "anonymous": false,
      "inputs": [
        {
          "indexed": false,
          "internalType": "string",
          "name": "symbolName1",
          "type": "string"
        },
        {
          "indexed": false,
          "internalType": "string",
          "name": "symbolName2",
          "type": "string"
        },
        {
          "indexed": false,
          "internalType": "uint256",
          "name": "orderIndex",
          "type": "uint256"
        },
        {
          "indexed": false,
          "internalType": "address",
          "name": "seller",
          "type": "address"
        },
        {
          "indexed": false,
          "internalType": "uint256",
          "name": "timestamp",
          "type": "uint256"
        }
      ],
      "name": "LogCancelSellOrder",
      "type": "event"
    },
    {
      "anonymous": false,
      "inputs": [
        {
          "indexed": false,
          "internalType": "string",
          "name": "symbolName1",
          "type": "string"
        },
        {
          "indexed": false,
          "internalType": "string",
          "name": "symbolName2",
          "type": "string"
        },
        {
          "indexed": false,
          "internalType": "uint256",
          "name": "price",
          "type": "uint256"
        },
        {
          "indexed": false,
          "internalType": "uint256",
          "name": "amount",
          "type": "uint256"
        },
        {
          "indexed": false,
          "internalType": "address",
          "name": "buyer",
          "type": "address"
        },
        {
          "indexed": false,
          "internalType": "uint256",
          "name": "timestamp",
          "type": "uint256"
        }
      ],
      "name": "LogCreateBuyOrder",
      "type": "event"
    },
    {
      "anonymous": false,
      "inputs": [
        {
          "indexed": false,
          "internalType": "string",
          "name": "symbolName1",
          "type": "string"
        },
        {
          "indexed": false,
          "internalType": "string",
          "name": "symbolName2",
          "type": "string"
        },
        {
          "indexed": false,
          "internalType": "uint256",
          "name": "price",
          "type": "uint256"
        },
        {
          "indexed": false,
          "internalType": "uint256",
          "name": "amount",
          "type": "uint256"
        },
        {
          "indexed": false,
          "internalType": "address",
          "name": "seller",
          "type": "address"
        },
        {
          "indexed": false,
          "internalType": "uint256",
          "name": "timestamp",
          "type": "uint256"
        }
      ],
      "name": "LogCreateSellOrder",
      "type": "event"
    },
    {
      "anonymous": false,
      "inputs": [
        {
          "indexed": false,
          "internalType": "string",
          "name": "symbolName",
          "type": "string"
        },
        {
          "indexed": false,
          "internalType": "address",
          "name": "accountAddress",
          "type": "address"
        },
        {
          "indexed": false,
          "internalType": "uint256",
          "name": "amount",
          "type": "uint256"
        },
        {
          "indexed": false,
          "internalType": "uint256",
          "name": "timestamp",
          "type": "uint256"
        }
      ],
      "name": "LogDepositToken",
      "type": "event"
    },
    {
      "anonymous": false,
      "inputs": [
        {
          "indexed": false,
          "internalType": "string",
          "name": "symbolName1",
          "type": "string"
        },
        {
          "indexed": false,
          "internalType": "string",
          "name": "symbolName2",
          "type": "string"
        },
        {
          "indexed": false,
          "internalType": "uint256",
          "name": "price",
          "type": "uint256"
        },
        {
          "indexed": false,
          "internalType": "uint256",
          "name": "orderIndex",
          "type": "uint256"
        },
        {
          "indexed": false,
          "internalType": "uint256",
          "name": "amount",
          "type": "uint256"
        },
        {
          "indexed": false,
          "internalType": "uint256",
          "name": "timestamp",
          "type": "uint256"
        }
      ],
      "name": "LogFulfilBuyOrder",
      "type": "event"
    },
    {
      "anonymous": false,
      "inputs": [
        {
          "indexed": false,
          "internalType": "string",
          "name": "symbolName1",
          "type": "string"
        },
        {
          "indexed": false,
          "internalType": "string",
          "name": "symbolName2",
          "type": "string"
        },
        {
          "indexed": false,
          "internalType": "uint256",
          "name": "price",
          "type": "uint256"
        },
        {
          "indexed": false,
          "internalType": "uint256",
          "name": "orderIndex",
          "type": "uint256"
        },
        {
          "indexed": false,
          "internalType": "uint256",
          "name": "amount",
          "type": "uint256"
        },
        {
          "indexed": false,
          "internalType": "uint256",
          "name": "timestamp",
          "type": "uint256"
        }
      ],
      "name": "LogFulfilSellOrder",
      "type": "event"
    },
    {
      "anonymous": false,
      "inputs": [
        {
          "indexed": false,
          "internalType": "string",
          "name": "symbolName1",
          "type": "string"
        },
        {
          "indexed": false,
          "internalType": "string",
          "name": "symbolName2",
          "type": "string"
        },
        {
          "indexed": false,
          "internalType": "uint256",
          "name": "price",
          "type": "uint256"
        },
        {
          "indexed": false,
          "internalType": "uint256",
          "name": "amount",
          "type": "uint256"
        },
        {
          "indexed": false,
          "internalType": "address",
          "name": "buyer",
          "type": "address"
        },
        {
          "indexed": false,
          "internalType": "uint256",
          "name": "timestamp",
          "type": "uint256"
        }
      ],
      "name": "LogSellToken",
      "type": "event"
    },
    {
      "anonymous": false,
      "inputs": [
        {
          "indexed": false,
          "internalType": "string",
          "name": "symbolName",
          "type": "string"
        },
        {
          "indexed": false,
          "internalType": "address",
          "name": "accountAddress",
          "type": "address"
        },
        {
          "indexed": false,
          "internalType": "uint256",
          "name": "amount",
          "type": "uint256"
        },
        {
          "indexed": false,
          "internalType": "uint256",
          "name": "timestamp",
          "type": "uint256"
        }
      ],
      "name": "LogWithdrawToken",
      "type": "event"
    },
    {
      "anonymous": false,
      "inputs": [
        {
          "indexed": true,
          "internalType": "address",
          "name": "previousOwner",
          "type": "address"
        },
        {
          "indexed": true,
          "internalType": "address",
          "name": "newOwner",
          "type": "address"
        }
      ],
      "name": "OwnershipTransferred",
      "type": "event"
    },
    {
      "inputs": [
        {
          "internalType": "string",
          "name": "symbolName",
          "type": "string"
        },
        {
          "internalType": "uint8",
          "name": "_tokenIndex",
          "type": "uint8"
        }
      ],
      "name": "addMarket",
      "outputs": [],
      "stateMutability": "nonpayable",
      "type": "function"
    },
    {
      "inputs": [
        {
          "internalType": "string",
          "name": "symbolName",
          "type": "string"
        },
        {
          "internalType": "address",
          "name": "EC20TokenAddress",
          "type": "address"
        }
      ],
      "name": "addToken",
      "outputs": [],
      "stateMutability": "nonpayable",
      "type": "function"
    },
    {
      "inputs": [
        {
          "internalType": "string",
          "name": "buyTokenSymbol",
          "type": "string"
        },
        {
          "internalType": "string",
          "name": "sellTokenSymbol",
          "type": "string"
        },
        {
          "internalType": "uint256",
          "name": "orderIndex",
          "type": "uint256"
        }
      ],
      "name": "cancelBuyOrder",
      "outputs": [],
      "stateMutability": "nonpayable",
      "type": "function"
    },
    {
      "inputs": [
        {
          "internalType": "string",
          "name": "buyTokenSymbol",
          "type": "string"
        },
        {
          "internalType": "string",
          "name": "sellTokenSymbol",
          "type": "string"
        },
        {
          "internalType": "uint256",
          "name": "orderIndex",
          "type": "uint256"
        }
      ],
      "name": "cancelSellOrder",
      "outputs": [],
      "stateMutability": "nonpayable",
      "type": "function"
    },
    {
      "inputs": [
        {
          "internalType": "string",
          "name": "symbolName",
          "type": "string"
        },
        {
          "internalType": "uint256",
          "name": "amount",
          "type": "uint256"
        }
      ],
      "name": "depositToken",
      "outputs": [
        {
          "internalType": "uint256",
          "name": "tokenBalance",
          "type": "uint256"
        }
      ],
      "stateMutability": "nonpayable",
      "type": "function"
    },
    {
      "inputs": [],
      "name": "getAllMarkets",
      "outputs": [
        {
          "internalType": "string[]",
          "name": "",
          "type": "string[]"
        },
        {
          "internalType": "string[]",
          "name": "",
          "type": "string[]"
        }
      ],
      "stateMutability": "view",
      "type": "function"
    },
    {
      "inputs": [],
      "name": "getAllTokenBalanceForUser",
      "outputs": [
        {
          "internalType": "string[]",
          "name": "",
          "type": "string[]"
        },
        {
          "internalType": "uint256[]",
          "name": "",
          "type": "uint256[]"
        }
      ],
      "stateMutability": "view",
      "type": "function"
    },
    {
      "inputs": [],
      "name": "getAllTokens",
      "outputs": [
        {
          "internalType": "string[]",
          "name": "",
          "type": "string[]"
        },
        {
          "internalType": "address[]",
          "name": "",
          "type": "address[]"
        }
      ],
      "stateMutability": "view",
      "type": "function"
    },
    {
      "inputs": [
        {
          "internalType": "string",
          "name": "buyTokenSymbol",
          "type": "string"
        },
        {
          "internalType": "string",
          "name": "sellTokenSymbol",
          "type": "string"
        }
      ],
      "name": "getBuyOrderBook",
      "outputs": [
        {
          "internalType": "uint256[]",
          "name": "",
          "type": "uint256[]"
        },
        {
          "internalType": "uint256[]",
          "name": "",
          "type": "uint256[]"
        },
        {
          "internalType": "uint256[]",
          "name": "",
          "type": "uint256[]"
        }
      ],
      "stateMutability": "view",
      "type": "function"
    },
    {
      "inputs": [
        {
          "internalType": "string",
          "name": "buyTokenSymbol",
          "type": "string"
        },
        {
          "internalType": "string",
          "name": "sellTokenSymbol",
          "type": "string"
        }
      ],
      "name": "getMarketIndex",
      "outputs": [
        {
          "internalType": "uint8",
          "name": "",
          "type": "uint8"
        }
      ],
      "stateMutability": "view",
      "type": "function"
    },
    {
      "inputs": [],
      "name": "getOpenOrdersForUser",
      "outputs": [
        {
          "internalType": "uint256[]",
          "name": "",
          "type": "uint256[]"
        },
        {
          "internalType": "string[]",
          "name": "",
          "type": "string[]"
        },
        {
          "internalType": "string[]",
          "name": "",
          "type": "string[]"
        },
        {
          "internalType": "string[]",
          "name": "",
          "type": "string[]"
        },
        {
          "internalType": "uint256[]",
          "name": "",
          "type": "uint256[]"
        },
        {
          "internalType": "uint256[]",
          "name": "",
          "type": "uint256[]"
        },
        {
          "internalType": "uint8",
          "name": "",
          "type": "uint8"
        }
      ],
      "stateMutability": "view",
      "type": "function"
    },
    {
      "inputs": [
        {
          "internalType": "string",
          "name": "sellTokenSymbol",
          "type": "string"
        },
        {
          "internalType": "string",
          "name": "buyTokenSymbol",
          "type": "string"
        }
      ],
      "name": "getSellOrderBook",
      "outputs": [
        {
          "internalType": "uint256[]",
          "name": "",
          "type": "uint256[]"
        },
        {
          "internalType": "uint256[]",
          "name": "",
          "type": "uint256[]"
        },
        {
          "internalType": "uint256[]",
          "name": "",
          "type": "uint256[]"
        }
      ],
      "stateMutability": "view",
      "type": "function"
    },
    {
      "inputs": [
        {
          "internalType": "string",
          "name": "symbolName",
          "type": "string"
        }
      ],
      "name": "getTokenAddress",
      "outputs": [
        {
          "internalType": "address",
          "name": "",
          "type": "address"
        }
      ],
      "stateMutability": "view",
      "type": "function"
    },
    {
      "inputs": [
        {
          "internalType": "string",
          "name": "symbolName",
          "type": "string"
        }
      ],
      "name": "getTokenBalanceForUser",
      "outputs": [
        {
          "internalType": "uint256",
          "name": "",
          "type": "uint256"
        }
      ],
      "stateMutability": "view",
      "type": "function"
    },
    {
      "inputs": [
        {
          "internalType": "string",
          "name": "symbolName",
          "type": "string"
        }
      ],
      "name": "getTokenIndex",
      "outputs": [
        {
          "internalType": "uint8",
          "name": "",
          "type": "uint8"
        }
      ],
      "stateMutability": "view",
      "type": "function"
    },
    {
      "inputs": [
        {
          "internalType": "string",
          "name": "symbolName",
          "type": "string"
        }
      ],
      "name": "hasToken",
      "outputs": [
        {
          "internalType": "bool",
          "name": "",
          "type": "bool"
        }
      ],
      "stateMutability": "view",
      "type": "function"
    },
    {
      "inputs": [],
      "name": "owner",
      "outputs": [
        {
          "internalType": "address",
          "name": "",
          "type": "address"
        }
      ],
      "stateMutability": "view",
      "type": "function"
    },
    {
      "inputs": [],
      "name": "renounceOwnership",
      "outputs": [],
      "stateMutability": "nonpayable",
      "type": "function"
    },
    {
      "inputs": [
        {
          "internalType": "address",
          "name": "newOwner",
          "type": "address"
        }
      ],
      "name": "transferOwnership",
      "outputs": [],
      "stateMutability": "nonpayable",
      "type": "function"
    },
    {
      "inputs": [
        {
          "internalType": "string",
          "name": "symbolName",
          "type": "string"
        },
        {
          "internalType": "uint256",
          "name": "amount",
          "type": "uint256"
        }
      ],
      "name": "withdrawToken",
      "outputs": [
        {
          "internalType": "uint256",
          "name": "tokenBalance",
          "type": "uint256"
        }
      ],
      "stateMutability": "nonpayable",
      "type": "function"
    }
  ],
  "transactionHash": "0x01809f0d9d604c9dc04611b2dc8457c2cf923cd55a5d096531c6ea0105e9c827",
  "args": [],
  "numDeployments": 1,
  "solcInputHash": "b4b0af02ea243bb917eca0b64852b3ae",
  "bytecode": "0x60806040523480156200001157600080fd5b5062000032620000266200007060201b60201c565b6200007860201b60201c565b6000600660006101000a81548160ff021916908360ff1602179055506000600660016101000a81548160ff021916908360ff1602179055506200013c565b600033905090565b60008060009054906101000a900473ffffffffffffffffffffffffffffffffffffffff169050816000806101000a81548173ffffffffffffffffffffffffffffffffffffffff021916908373ffffffffffffffffffffffffffffffffffffffff1602179055508173ffffffffffffffffffffffffffffffffffffffff168173ffffffffffffffffffffffffffffffffffffffff167f8be0079c531659141344cd1fd0a4f28419497f9722a3daafe3b4186f6b6457e060405160405180910390a35050565b614b90806200014c6000396000f3fe608060405234801561001057600080fd5b506004361061012c5760003560e01c80638ea00818116100ad578063c409123611610071578063c40912361461034a578063c97a413a1461037a578063cedd00b1146103aa578063dc1d94c5146103da578063f2fde38b146103fe5761012c565b80638ea00818146102915780638fb2742c146102c1578063a8854979146102f3578063b0772d0b1461030f578063b0b22c2c1461032e5761012c565b80635f968767116100f45780635f968767146101ea5780636409d48d1461021a578063715018a6146102395780638883b10c146102435780638da5cb5b146102735761012c565b806320977b49146101315780632a5c792a1461014d5780632bcc76031461016c57806333ad57e4146101885780634bb5d232146101b8575b600080fd5b61014b60048036038101906101469190613869565b61041a565b005b610155610798565b604051610163929190613b25565b60405180910390f35b61018660048036038101906101819190613b95565b610a24565b005b6101a2600480360381019061019d9190613bf1565b610c05565b6040516101af9190613c5c565b60405180910390f35b6101d260048036038101906101cd9190613c77565b610dd3565b6040516101e193929190613dad565b60405180910390f35b61020460048036038101906101ff9190613df9565b6111a6565b6040516102119190613e51565b60405180910390f35b61022261122f565b604051610230929190613e6c565b60405180910390f35b6102416114fd565b005b61025d60048036038101906102589190613df9565b611511565b60405161026a9190613c5c565b60405180910390f35b61027b611579565b6040516102889190613eb2565b60405180910390f35b6102ab60048036038101906102a69190613df9565b6115a2565b6040516102b89190613ee8565b60405180910390f35b6102db60048036038101906102d69190613c77565b61165c565b6040516102ea93929190613dad565b60405180910390f35b61030d60048036038101906103089190613869565b611a2f565b005b610317611d6d565b604051610325929190613f03565b60405180910390f35b61034860048036038101906103439190613f66565b6120cd565b005b610364600480360381019061035f9190613df9565b612387565b6040516103719190613eb2565b60405180910390f35b610394600480360381019061038f9190613bf1565b6123ed565b6040516103a19190613c5c565b60405180910390f35b6103c460048036038101906103bf9190613c77565b6125a6565b6040516103d19190613e51565b60405180910390f35b6103e2612709565b6040516103f59796959493929190613fc2565b60405180910390f35b6104186004803603810190610413919061405b565b6133fb565b005b610423836115a2565b61042c57600080fd5b610435826115a2565b61043e57600080fd5b600061044a84846125a6565b90506000610457846111a6565b90506000600560008460ff1660ff168152602001908152602001600020600001600201541161048557600080fd5b60008060006001600560008760ff1660ff168152602001908152602001600020600001600201546104b691906140b7565b67ffffffffffffffff8111156104cf576104ce613708565b5b6040519080825280602002602001820160405280156104fd5781602001602082028036833780820191505090505b50905060008060005b600560008960ff1660ff1681526020019081526020016000206000016002015481101561066157600560008960ff1660ff168152602001908152602001600020600001600301818154811061055e5761055d6140eb565b5b906000526020600020015489036105e45760019550600560008960ff1660ff16815260200190815260200160002060000160010160008a8152602001908152602001600020600101549250600560008960ff1660ff16815260200190815260200160002060000160010160008a815260200190815260200160002060000154915061064e565b600560008960ff1660ff1681526020019081526020016000206000016003018181548110610615576106146140eb565b5b9060005260206000200154848681518110610633576106326140eb565b5b602002602001018181525050848061064a9061411a565b9550505b80806106599061411a565b915050610506565b508461066c57600080fd5b600560008860ff1660ff168152602001908152602001600020600001600201600081548092919061069c90614162565b919050555082600560008960ff1660ff16815260200190815260200160002060000160030190805190602001906106d49291906135c8565b5080826106e1919061418b565b600360003373ffffffffffffffffffffffffffffffffffffffff1673ffffffffffffffffffffffffffffffffffffffff16815260200190815260200160002060008860ff1660ff168152602001908152602001600020600082825461074691906141cd565b925050819055507f9a61c2300d2dd6e5e6c4d4860206d72177034372cf558a91f14cce7c88fb38dc8a8a8a334260405161078495949392919061424b565b60405180910390a150505050505050505050565b60608060006001600660009054906101000a900460ff166107b991906142ac565b60ff1667ffffffffffffffff8111156107d5576107d4613708565b5b60405190808252806020026020018201604052801561080857816020015b60608152602001906001900390816107f35790505b50905060006001600660009054906101000a900460ff1661082991906142ac565b60ff1667ffffffffffffffff81111561084557610844613708565b5b6040519080825280602002602001820160405280156108735781602001602082028036833780820191505090505b5090506000600190505b600660009054906101000a900460ff1660ff168160ff1611610a1757600160008260ff1660ff16815260200190815260200160002060010180546108c090614310565b80601f01602080910402602001604051908101604052809291908181526020018280546108ec90614310565b80156109395780601f1061090e57610100808354040283529160200191610939565b820191906000526020600020905b81548152906001019060200180831161091c57829003601f168201915b50505050508360018361094c91906142ac565b60ff16815181106109605761095f6140eb565b5b6020026020010181905250600160008260ff1660ff16815260200190815260200160002060000160009054906101000a900473ffffffffffffffffffffffffffffffffffffffff16826001836109b691906142ac565b60ff16815181106109ca576109c96140eb565b5b602002602001019073ffffffffffffffffffffffffffffffffffffffff16908173ffffffffffffffffffffffffffffffffffffffff16815250508080610a0f90614341565b91505061087d565b5081819350935050509091565b610a2c61347e565b600660019054906101000a900460ff1660ff166001600660019054906101000a900460ff16610a5b919061436a565b60ff161015610a6957600080fd5b6000600190505b600660009054906101000a900460ff1660ff168160ff161015610bb6576006600181819054906101000a900460ff1680929190610aac90614341565b91906101000a81548160ff021916908360ff160217905550506000600267ffffffffffffffff811115610ae257610ae1613708565b5b604051908082528060200260200182016040528015610b105781602001602082028036833780820191505090505b5090508281600081518110610b2857610b276140eb565b5b602002602001019060ff16908160ff16815250508181600181518110610b5157610b506140eb565b5b602002602001019060ff16908160ff16815250508060046000600660019054906101000a900460ff1660ff1660ff1681526020019081526020016000209080519060200190610ba1929190613615565b50508080610bae90614341565b915050610a70565b507f8877b3481be0c4a9d298c35f0e291fd2f61a153f7d22354a14c44c8266a5a754600660019054906101000a900460ff168342604051610bf9939291906143da565b60405180910390a15050565b6000610c10836115a2565b610c1957600080fd5b610c2283611511565b82610c2c85611511565b610c3691906141cd565b1015610c4157600080fd5b6000610c4c846111a6565b905082600360003373ffffffffffffffffffffffffffffffffffffffff1673ffffffffffffffffffffffffffffffffffffffff16815260200190815260200160002060008360ff1660ff1681526020019081526020016000206000828254610cb491906141cd565b9250508190555060011515600260008360ff1660ff16815260200190815260200160002060009054906101000a900473ffffffffffffffffffffffffffffffffffffffff1673ffffffffffffffffffffffffffffffffffffffff166323b872dd3330876040518463ffffffff1660e01b8152600401610d3593929190614418565b6020604051808303816000875af1158015610d54573d6000803e3d6000fd5b505050506040513d601f19601f82011682018060405250810190610d78919061447b565b151514610d8457600080fd5b7f4dbc01516018d27f28f32ddd20595428f662140f1fff79b754484578ac27fc1984338542604051610db994939291906144a8565b60405180910390a1610dca84611511565b91505092915050565b60608060606000610de486866125a6565b90506000600560008360ff1660ff1681526020019081526020016000206004016002015467ffffffffffffffff811115610e2157610e20613708565b5b604051908082528060200260200182016040528015610e4f5781602001602082028036833780820191505090505b5090506000600560008460ff1660ff1681526020019081526020016000206004016002015467ffffffffffffffff811115610e8d57610e8c613708565b5b604051908082528060200260200182016040528015610ebb5781602001602082028036833780820191505090505b5090506000600560008560ff1660ff1681526020019081526020016000206004016002015467ffffffffffffffff811115610ef957610ef8613708565b5b604051908082528060200260200182016040528015610f275781602001602082028036833780820191505090505b5090506000600190505b600560008660ff1660ff168152602001908152602001600020600401600201548111611191576000600560008760ff1660ff1681526020019081526020016000206004016001016000600560008960ff1660ff168152602001908152602001600020600401600301600185610fa691906140b7565b81548110610fb757610fb66140eb565b5b906000526020600020015481526020019081526020016000206040518060a00160405290816000820154815260200160018201548152602001600282015481526020016003820160009054906101000a900473ffffffffffffffffffffffffffffffffffffffff1673ffffffffffffffffffffffffffffffffffffffff1673ffffffffffffffffffffffffffffffffffffffff1681526020016003820160149054906101000a900460f01b7dffffffffffffffffffffffffffffffffffffffffffffffffffffffffffff19167dffffffffffffffffffffffffffffffffffffffffffffffffffffffffffff1916815250509050600560008760ff1660ff1681526020019081526020016000206004016003016001836110d691906140b7565b815481106110e7576110e66140eb565b5b90600052602060002001548560018461110091906140b7565b81518110611111576111106140eb565b5b60200260200101818152505080602001518460018461113091906140b7565b81518110611141576111406140eb565b5b60200260200101818152505080600001518360018461116091906140b7565b81518110611171576111706140eb565b5b6020026020010181815250505080806111899061411a565b915050610f31565b50828282965096509650505050509250925092565b600080600190505b600660009054906101000a900460ff1660ff168160ff161161122457600160008260ff1660ff1681526020019081526020016000206001016040516111f39190614597565b6040518091039020838051906020012003611211578091505061122a565b808061121c90614341565b9150506111ae565b50600090505b919050565b60608060006001600660009054906101000a900460ff1661125091906142ac565b60ff1667ffffffffffffffff81111561126c5761126b613708565b5b60405190808252806020026020018201604052801561129f57816020015b606081526020019060019003908161128a5790505b50905060006001600660009054906101000a900460ff166112c091906142ac565b60ff1667ffffffffffffffff8111156112dc576112db613708565b5b60405190808252806020026020018201604052801561130a5781602001602082028036833780820191505090505b5090506000600190505b600660009054906101000a900460ff1660ff168160ff16116114f057600160008260ff1660ff168152602001908152602001600020600101805461135790614310565b80601f016020809104026020016040519081016040528092919081815260200182805461138390614310565b80156113d05780601f106113a5576101008083540402835291602001916113d0565b820191906000526020600020905b8154815290600101906020018083116113b357829003601f168201915b5050505050836001836113e391906142ac565b60ff16815181106113f7576113f66140eb565b5b60200260200101819052506114af600160008360ff1660ff168152602001908152602001600020600101805461142c90614310565b80601f016020809104026020016040519081016040528092919081815260200182805461145890614310565b80156114a55780601f1061147a576101008083540402835291602001916114a5565b820191906000526020600020905b81548152906001019060200180831161148857829003601f168201915b5050505050611511565b826001836114bd91906142ac565b60ff16815181106114d1576114d06140eb565b5b60200260200101818152505080806114e890614341565b915050611314565b5081819350935050509091565b61150561347e565b61150f60006134fc565b565b6000600360003373ffffffffffffffffffffffffffffffffffffffff1673ffffffffffffffffffffffffffffffffffffffff168152602001908152602001600020600061155d846111a6565b60ff1660ff168152602001908152602001600020549050919050565b60008060009054906101000a900473ffffffffffffffffffffffffffffffffffffffff16905090565b600080600190505b600660009054906101000a900460ff1660ff168160ff161161165157600160008260ff1660ff1681526020019081526020016000206001016040516020016115f29190614651565b60405160208183030381529060405280519060200120836040516020016116199190614699565b604051602081830303815290604052805190602001200361163e576001915050611657565b808061164990614341565b9150506115aa565b50600090505b919050565b6060806060600061166d86866125a6565b90506000600560008360ff1660ff1681526020019081526020016000206000016002015467ffffffffffffffff8111156116aa576116a9613708565b5b6040519080825280602002602001820160405280156116d85781602001602082028036833780820191505090505b5090506000600560008460ff1660ff1681526020019081526020016000206000016002015467ffffffffffffffff81111561171657611715613708565b5b6040519080825280602002602001820160405280156117445781602001602082028036833780820191505090505b5090506000600560008560ff1660ff1681526020019081526020016000206000016002015467ffffffffffffffff81111561178257611781613708565b5b6040519080825280602002602001820160405280156117b05781602001602082028036833780820191505090505b5090506000600190505b600560008660ff1660ff168152602001908152602001600020600001600201548111611a1a576000600560008760ff1660ff1681526020019081526020016000206000016001016000600560008960ff1660ff16815260200190815260200160002060000160030160018561182f91906140b7565b815481106118405761183f6140eb565b5b906000526020600020015481526020019081526020016000206040518060a00160405290816000820154815260200160018201548152602001600282015481526020016003820160009054906101000a900473ffffffffffffffffffffffffffffffffffffffff1673ffffffffffffffffffffffffffffffffffffffff1673ffffffffffffffffffffffffffffffffffffffff1681526020016003820160149054906101000a900460f01b7dffffffffffffffffffffffffffffffffffffffffffffffffffffffffffff19167dffffffffffffffffffffffffffffffffffffffffffffffffffffffffffff1916815250509050600560008760ff1660ff16815260200190815260200160002060000160030160018361195f91906140b7565b815481106119705761196f6140eb565b5b90600052602060002001548560018461198991906140b7565b8151811061199a576119996140eb565b5b6020026020010181815250508060200151846001846119b991906140b7565b815181106119ca576119c96140eb565b5b6020026020010181815250508060000151836001846119e991906140b7565b815181106119fa576119f96140eb565b5b602002602001018181525050508080611a129061411a565b9150506117ba565b50828282965096509650505050509250925092565b611a38836115a2565b611a4157600080fd5b611a4a826115a2565b611a5357600080fd5b6000611a5f84846125a6565b90506000611a6c846111a6565b90506000600560008460ff1660ff1681526020019081526020016000206004016002015411611a9a57600080fd5b60008060006001600560008760ff1660ff16815260200190815260200160002060040160020154611acb91906140b7565b67ffffffffffffffff811115611ae457611ae3613708565b5b604051908082528060200260200182016040528015611b125781602001602082028036833780820191505090505b509050600080600090505b600560008860ff1660ff16815260200190815260200160002060040160020154811015611c4257600560008860ff1660ff1681526020019081526020016000206004016003018181548110611b7557611b746140eb565b5b90600052602060002001548803611bc55760019450600560008860ff1660ff1681526020019081526020016000206004016001016000898152602001908152602001600020600001549150611c2f565b600560008860ff1660ff1681526020019081526020016000206004016003018181548110611bf657611bf56140eb565b5b9060005260206000200154838581518110611c1457611c136140eb565b5b6020026020010181815250508380611c2b9061411a565b9450505b8080611c3a9061411a565b915050611b1d565b5083611c4d57600080fd5b600560008760ff1660ff1681526020019081526020016000206004016002016000815480929190611c7d90614162565b919050555081600560008860ff1660ff1681526020019081526020016000206004016003019080519060200190611cb59291906135c8565b5080600360003373ffffffffffffffffffffffffffffffffffffffff1673ffffffffffffffffffffffffffffffffffffffff16815260200190815260200160002060008760ff1660ff1681526020019081526020016000206000828254611d1c91906141cd565b925050819055507fc6a6416b415d06b5cea3ff17e447ceb010fa4d602523d17f25cfbc54656a28d08989893342604051611d5a95949392919061424b565b60405180910390a1505050505050505050565b60608060006001600660019054906101000a900460ff16611d8e91906142ac565b60ff1667ffffffffffffffff811115611daa57611da9613708565b5b604051908082528060200260200182016040528015611ddd57816020015b6060815260200190600190039081611dc85790505b50905060006001600660019054906101000a900460ff16611dfe91906142ac565b60ff1667ffffffffffffffff811115611e1a57611e19613708565b5b604051908082528060200260200182016040528015611e4d57816020015b6060815260200190600190039081611e385790505b5090506000600190505b600660019054906101000a900460ff1660ff168160ff16116120c05760016000600460008460ff1660ff168152602001908152602001600020600081548110611ea357611ea26140eb565b5b90600052602060002090602091828204019190069054906101000a900460ff1660ff1660ff1681526020019081526020016000206001018054611ee590614310565b80601f0160208091040260200160405190810160405280929190818152602001828054611f1190614310565b8015611f5e5780601f10611f3357610100808354040283529160200191611f5e565b820191906000526020600020905b815481529060010190602001808311611f4157829003601f168201915b505050505083600183611f7191906142ac565b60ff1681518110611f8557611f846140eb565b5b602002602001018190525060016000600460008460ff1660ff168152602001908152602001600020600181548110611fc057611fbf6140eb565b5b90600052602060002090602091828204019190069054906101000a900460ff1660ff1660ff168152602001908152602001600020600101805461200290614310565b80601f016020809104026020016040519081016040528092919081815260200182805461202e90614310565b801561207b5780601f106120505761010080835404028352916020019161207b565b820191906000526020600020905b81548152906001019060200180831161205e57829003601f168201915b50505050508260018361208e91906142ac565b60ff16815181106120a2576120a16140eb565b5b602002602001018190525080806120b890614341565b915050611e57565b5081819350935050509091565b6120d561347e565b6120de826115a2565b1561211e576040517f08c379a0000000000000000000000000000000000000000000000000000000008152600401612115906146fc565b60405180910390fd5b600660009054906101000a900460ff1660ff166001600660009054906101000a900460ff1661214d919061436a565b60ff161015612191576040517f08c379a000000000000000000000000000000000000000000000000000000000815260040161218890614768565b60405180910390fd5b6006600081819054906101000a900460ff16809291906121b090614341565b91906101000a81548160ff021916908360ff160217905550508160016000600660009054906101000a900460ff1660ff1660ff16815260200190815260200160002060010190816122019190614915565b508060016000600660009054906101000a900460ff1660ff1660ff16815260200190815260200160002060000160006101000a81548173ffffffffffffffffffffffffffffffffffffffff021916908373ffffffffffffffffffffffffffffffffffffffff16021790555060016000600660009054906101000a900460ff1660ff1660ff16815260200190815260200160002060000160009054906101000a900473ffffffffffffffffffffffffffffffffffffffff1660026000600660009054906101000a900460ff1660ff1660ff16815260200190815260200160002060006101000a81548173ffffffffffffffffffffffffffffffffffffffff021916908373ffffffffffffffffffffffffffffffffffffffff1602179055507f1723c709bc871c32c420d3c2d2837cdd4bef40c574088c1d055e1f4f609d2377600660009054906101000a900460ff1683834260405161236294939291906149e7565b60405180910390a161238382600660009054906101000a900460ff16610a24565b5050565b6000612392826115a2565b61239b57600080fd5b60006123a6836111a6565b9050600160008260ff1660ff16815260200190815260200160002060000160009054906101000a900473ffffffffffffffffffffffffffffffffffffffff16915050919050565b60006123f8836115a2565b61240157600080fd5b61240a83611511565b82111561241657600080fd5b6000612421846111a6565b905082600360003373ffffffffffffffffffffffffffffffffffffffff1673ffffffffffffffffffffffffffffffffffffffff16815260200190815260200160002060008360ff1660ff168152602001908152602001600020600082825461248991906140b7565b9250508190555060011515600260008360ff1660ff16815260200190815260200160002060009054906101000a900473ffffffffffffffffffffffffffffffffffffffff1673ffffffffffffffffffffffffffffffffffffffff1663a9059cbb33866040518363ffffffff1660e01b8152600401612508929190614a33565b6020604051808303816000875af1158015612527573d6000803e3d6000fd5b505050506040513d601f19601f8201168201806040525081019061254b919061447b565b15151461255757600080fd5b7fc0a144e0d9af86fa328820e6f7f9e66f6e2a7248ff06a92aa13dc1f01e26934f8433854260405161258c94939291906144a8565b60405180910390a161259d84611511565b91505092915050565b600080600190505b600660019054906101000a900460ff1660ff168160ff16116126fd5760016000600460008460ff1660ff1681526020019081526020016000206000815481106125fa576125f96140eb565b5b90600052602060002090602091828204019190069054906101000a900460ff1660ff1660ff16815260200190815260200160002060010160405161263e9190614597565b604051809103902084805190602001201480156126dc575060016000600460008460ff1660ff168152602001908152602001600020600181548110612686576126856140eb565b5b90600052602060002090602091828204019190069054906101000a900460ff1660ff1660ff1681526020019081526020016000206001016040516126ca9190614597565b60405180910390208380519060200120145b156126ea5780915050612703565b80806126f590614341565b9150506125ae565b50600090505b92915050565b606080606080606080600080601467ffffffffffffffff8111156127305761272f613708565b5b60405190808252806020026020018201604052801561275e5781602001602082028036833780820191505090505b5090506000601467ffffffffffffffff81111561277e5761277d613708565b5b6040519080825280602002602001820160405280156127b157816020015b606081526020019060019003908161279c5790505b5090506000601467ffffffffffffffff8111156127d1576127d0613708565b5b60405190808252806020026020018201604052801561280457816020015b60608152602001906001900390816127ef5790505b5090506000601467ffffffffffffffff81111561282457612823613708565b5b60405190808252806020026020018201604052801561285757816020015b60608152602001906001900390816128425790505b5090506000601467ffffffffffffffff81111561287757612876613708565b5b6040519080825280602002602001820160405280156128a55781602001602082028036833780820191505090505b5090506000601467ffffffffffffffff8111156128c5576128c4613708565b5b6040519080825280602002602001820160405280156128f35781602001602082028036833780820191505090505b509050600080600190505b600660019054906101000a900460ff1660ff168160ff16116133d5576000600190505b600560008360ff1660ff168152602001908152602001600020600401600201548111612e6d576000600560008460ff1660ff1681526020019081526020016000206004016001016000600560008660ff1660ff16815260200190815260200160002060040160030160018561299691906140b7565b815481106129a7576129a66140eb565b5b906000526020600020015481526020019081526020016000206040518060a00160405290816000820154815260200160018201548152602001600282015481526020016003820160009054906101000a900473ffffffffffffffffffffffffffffffffffffffff1673ffffffffffffffffffffffffffffffffffffffff1673ffffffffffffffffffffffffffffffffffffffff1681526020016003820160149054906101000a900460f01b7dffffffffffffffffffffffffffffffffffffffffffffffffffffffffffff19167dffffffffffffffffffffffffffffffffffffffffffffffffffffffffffff19168152505090503373ffffffffffffffffffffffffffffffffffffffff16816060015173ffffffffffffffffffffffffffffffffffffffff1603612e59578380612adc90614341565b945050600560008460ff1660ff168152602001908152602001600020600401600301600183612b0b91906140b7565b81548110612b1c57612b1b6140eb565b5b90600052602060002001548a600186612b3591906142ac565b60ff1681518110612b4957612b486140eb565b5b60200260200101818152505060016000600460008660ff1660ff168152602001908152602001600020600081548110612b8557612b846140eb565b5b90600052602060002090602091828204019190069054906101000a900460ff1660ff1660ff1681526020019081526020016000206001018054612bc790614310565b80601f0160208091040260200160405190810160405280929190818152602001828054612bf390614310565b8015612c405780601f10612c1557610100808354040283529160200191612c40565b820191906000526020600020905b815481529060010190602001808311612c2357829003601f168201915b505050505089600186612c5391906142ac565b60ff1681518110612c6757612c666140eb565b5b602002602001018190525060016000600460008660ff1660ff168152602001908152602001600020600181548110612ca257612ca16140eb565b5b90600052602060002090602091828204019190069054906101000a900460ff1660ff1660ff1681526020019081526020016000206001018054612ce490614310565b80601f0160208091040260200160405190810160405280929190818152602001828054612d1090614310565b8015612d5d5780601f10612d3257610100808354040283529160200191612d5d565b820191906000526020600020905b815481529060010190602001808311612d4057829003601f168201915b505050505088600186612d7091906142ac565b60ff1681518110612d8457612d836140eb565b5b60200260200101819052506040518060400160405280600481526020017f73656c6c0000000000000000000000000000000000000000000000000000000081525087600186612dd391906142ac565b60ff1681518110612de757612de66140eb565b5b6020026020010181905250806020015186600186612e0591906142ac565b60ff1681518110612e1957612e186140eb565b5b602002602001018181525050806000015185600186612e3891906142ac565b60ff1681518110612e4c57612e4b6140eb565b5b6020026020010181815250505b508080612e659061411a565b915050612921565b506000600190505b600560008360ff1660ff1681526020019081526020016000206000016002015481116133c1576000600560008460ff1660ff1681526020019081526020016000206000016001016000600560008660ff1660ff168152602001908152602001600020600001600301600185612eea91906140b7565b81548110612efb57612efa6140eb565b5b906000526020600020015481526020019081526020016000206040518060a00160405290816000820154815260200160018201548152602001600282015481526020016003820160009054906101000a900473ffffffffffffffffffffffffffffffffffffffff1673ffffffffffffffffffffffffffffffffffffffff1673ffffffffffffffffffffffffffffffffffffffff1681526020016003820160149054906101000a900460f01b7dffffffffffffffffffffffffffffffffffffffffffffffffffffffffffff19167dffffffffffffffffffffffffffffffffffffffffffffffffffffffffffff19168152505090503373ffffffffffffffffffffffffffffffffffffffff16816060015173ffffffffffffffffffffffffffffffffffffffff16036133ad57838061303090614341565b945050600560008460ff1660ff16815260200190815260200160002060000160030160018361305f91906140b7565b815481106130705761306f6140eb565b5b90600052602060002001548a60018661308991906142ac565b60ff168151811061309d5761309c6140eb565b5b60200260200101818152505060016000600460008660ff1660ff1681526020019081526020016000206000815481106130d9576130d86140eb565b5b90600052602060002090602091828204019190069054906101000a900460ff1660ff1660ff168152602001908152602001600020600101805461311b90614310565b80601f016020809104026020016040519081016040528092919081815260200182805461314790614310565b80156131945780601f1061316957610100808354040283529160200191613194565b820191906000526020600020905b81548152906001019060200180831161317757829003601f168201915b5050505050896001866131a791906142ac565b60ff16815181106131bb576131ba6140eb565b5b602002602001018190525060016000600460008660ff1660ff1681526020019081526020016000206001815481106131f6576131f56140eb565b5b90600052602060002090602091828204019190069054906101000a900460ff1660ff1660ff168152602001908152602001600020600101805461323890614310565b80601f016020809104026020016040519081016040528092919081815260200182805461326490614310565b80156132b15780601f10613286576101008083540402835291602001916132b1565b820191906000526020600020905b81548152906001019060200180831161329457829003601f168201915b5050505050886001866132c491906142ac565b60ff16815181106132d8576132d76140eb565b5b60200260200101819052506040518060400160405280600381526020017f62757900000000000000000000000000000000000000000000000000000000008152508760018661332791906142ac565b60ff168151811061333b5761333a6140eb565b5b602002602001018190525080602001518660018661335991906142ac565b60ff168151811061336d5761336c6140eb565b5b60200260200101818152505080600001518560018661338c91906142ac565b60ff16815181106133a05761339f6140eb565b5b6020026020010181815250505b5080806133b99061411a565b915050612e75565b5080806133cd90614341565b9150506128fe565b50868686868686869d509d509d509d509d509d509d505050505050505090919293949596565b61340361347e565b600073ffffffffffffffffffffffffffffffffffffffff168173ffffffffffffffffffffffffffffffffffffffff1603613472576040517f08c379a000000000000000000000000000000000000000000000000000000000815260040161346990614ace565b60405180910390fd5b61347b816134fc565b50565b6134866135c0565b73ffffffffffffffffffffffffffffffffffffffff166134a4611579565b73ffffffffffffffffffffffffffffffffffffffff16146134fa576040517f08c379a00000000000000000000000000000000000000000000000000000000081526004016134f190614b3a565b60405180910390fd5b565b60008060009054906101000a900473ffffffffffffffffffffffffffffffffffffffff169050816000806101000a81548173ffffffffffffffffffffffffffffffffffffffff021916908373ffffffffffffffffffffffffffffffffffffffff1602179055508173ffffffffffffffffffffffffffffffffffffffff168173ffffffffffffffffffffffffffffffffffffffff167f8be0079c531659141344cd1fd0a4f28419497f9722a3daafe3b4186f6b6457e060405160405180910390a35050565b600033905090565b828054828255906000526020600020908101928215613604579160200282015b828111156136035782518255916020019190600101906135e8565b5b50905061361191906136bc565b5090565b82805482825590600052602060002090601f016020900481019282156136ab5791602002820160005b8382111561367c57835183826101000a81548160ff021916908360ff160217905550926020019260010160208160000104928301926001030261363e565b80156136a95782816101000a81549060ff021916905560010160208160000104928301926001030261367c565b505b5090506136b891906136bc565b5090565b5b808211156136d55760008160009055506001016136bd565b5090565b6000604051905090565b600080fd5b600080fd5b600080fd5b600080fd5b6000601f19601f8301169050919050565b7f4e487b7100000000000000000000000000000000000000000000000000000000600052604160045260246000fd5b613740826136f7565b810181811067ffffffffffffffff8211171561375f5761375e613708565b5b80604052505050565b60006137726136d9565b905061377e8282613737565b919050565b600067ffffffffffffffff82111561379e5761379d613708565b5b6137a7826136f7565b9050602081019050919050565b82818337600083830152505050565b60006137d66137d184613783565b613768565b9050828152602081018484840111156137f2576137f16136f2565b5b6137fd8482856137b4565b509392505050565b600082601f83011261381a576138196136ed565b5b813561382a8482602086016137c3565b91505092915050565b6000819050919050565b61384681613833565b811461385157600080fd5b50565b6000813590506138638161383d565b92915050565b600080600060608486031215613882576138816136e3565b5b600084013567ffffffffffffffff8111156138a05761389f6136e8565b5b6138ac86828701613805565b935050602084013567ffffffffffffffff8111156138cd576138cc6136e8565b5b6138d986828701613805565b92505060406138ea86828701613854565b9150509250925092565b600081519050919050565b600082825260208201905092915050565b6000819050602082019050919050565b600081519050919050565b600082825260208201905092915050565b60005b8381101561395a57808201518184015260208101905061393f565b60008484015250505050565b600061397182613920565b61397b818561392b565b935061398b81856020860161393c565b613994816136f7565b840191505092915050565b60006139ab8383613966565b905092915050565b6000602082019050919050565b60006139cb826138f4565b6139d581856138ff565b9350836020820285016139e785613910565b8060005b85811015613a235784840389528151613a04858261399f565b9450613a0f836139b3565b925060208a019950506001810190506139eb565b50829750879550505050505092915050565b600081519050919050565b600082825260208201905092915050565b6000819050602082019050919050565b600073ffffffffffffffffffffffffffffffffffffffff82169050919050565b6000613a8c82613a61565b9050919050565b613a9c81613a81565b82525050565b6000613aae8383613a93565b60208301905092915050565b6000602082019050919050565b6000613ad282613a35565b613adc8185613a40565b9350613ae783613a51565b8060005b83811015613b18578151613aff8882613aa2565b9750613b0a83613aba565b925050600181019050613aeb565b5085935050505092915050565b60006040820190508181036000830152613b3f81856139c0565b90508181036020830152613b538184613ac7565b90509392505050565b600060ff82169050919050565b613b7281613b5c565b8114613b7d57600080fd5b50565b600081359050613b8f81613b69565b92915050565b60008060408385031215613bac57613bab6136e3565b5b600083013567ffffffffffffffff811115613bca57613bc96136e8565b5b613bd685828601613805565b9250506020613be785828601613b80565b9150509250929050565b60008060408385031215613c0857613c076136e3565b5b600083013567ffffffffffffffff811115613c2657613c256136e8565b5b613c3285828601613805565b9250506020613c4385828601613854565b9150509250929050565b613c5681613833565b82525050565b6000602082019050613c716000830184613c4d565b92915050565b60008060408385031215613c8e57613c8d6136e3565b5b600083013567ffffffffffffffff811115613cac57613cab6136e8565b5b613cb885828601613805565b925050602083013567ffffffffffffffff811115613cd957613cd86136e8565b5b613ce585828601613805565b9150509250929050565b600081519050919050565b600082825260208201905092915050565b6000819050602082019050919050565b613d2481613833565b82525050565b6000613d368383613d1b565b60208301905092915050565b6000602082019050919050565b6000613d5a82613cef565b613d648185613cfa565b9350613d6f83613d0b565b8060005b83811015613da0578151613d878882613d2a565b9750613d9283613d42565b925050600181019050613d73565b5085935050505092915050565b60006060820190508181036000830152613dc78186613d4f565b90508181036020830152613ddb8185613d4f565b90508181036040830152613def8184613d4f565b9050949350505050565b600060208284031215613e0f57613e0e6136e3565b5b600082013567ffffffffffffffff811115613e2d57613e2c6136e8565b5b613e3984828501613805565b91505092915050565b613e4b81613b5c565b82525050565b6000602082019050613e666000830184613e42565b92915050565b60006040820190508181036000830152613e8681856139c0565b90508181036020830152613e9a8184613d4f565b90509392505050565b613eac81613a81565b82525050565b6000602082019050613ec76000830184613ea3565b92915050565b60008115159050919050565b613ee281613ecd565b82525050565b6000602082019050613efd6000830184613ed9565b92915050565b60006040820190508181036000830152613f1d81856139c0565b90508181036020830152613f3181846139c0565b90509392505050565b613f4381613a81565b8114613f4e57600080fd5b50565b600081359050613f6081613f3a565b92915050565b60008060408385031215613f7d57613f7c6136e3565b5b600083013567ffffffffffffffff811115613f9b57613f9a6136e8565b5b613fa785828601613805565b9250506020613fb885828601613f51565b9150509250929050565b600060e0820190508181036000830152613fdc818a613d4f565b90508181036020830152613ff081896139c0565b9050818103604083015261400481886139c0565b9050818103606083015261401881876139c0565b9050818103608083015261402c8186613d4f565b905081810360a08301526140408185613d4f565b905061404f60c0830184613e42565b98975050505050505050565b600060208284031215614071576140706136e3565b5b600061407f84828501613f51565b91505092915050565b7f4e487b7100000000000000000000000000000000000000000000000000000000600052601160045260246000fd5b60006140c282613833565b91506140cd83613833565b92508282039050818111156140e5576140e4614088565b5b92915050565b7f4e487b7100000000000000000000000000000000000000000000000000000000600052603260045260246000fd5b600061412582613833565b91507fffffffffffffffffffffffffffffffffffffffffffffffffffffffffffffffff820361415757614156614088565b5b600182019050919050565b600061416d82613833565b9150600082036141805761417f614088565b5b600182039050919050565b600061419682613833565b91506141a183613833565b92508282026141af81613833565b915082820484148315176141c6576141c5614088565b5b5092915050565b60006141d882613833565b91506141e383613833565b92508282019050808211156141fb576141fa614088565b5b92915050565b600082825260208201905092915050565b600061421d82613920565b6142278185614201565b935061423781856020860161393c565b614240816136f7565b840191505092915050565b600060a08201905081810360008301526142658188614212565b905081810360208301526142798187614212565b90506142886040830186613c4d565b6142956060830185613ea3565b6142a26080830184613c4d565b9695505050505050565b60006142b782613b5c565b91506142c283613b5c565b9250828203905060ff8111156142db576142da614088565b5b92915050565b7f4e487b7100000000000000000000000000000000000000000000000000000000600052602260045260246000fd5b6000600282049050600182168061432857607f821691505b60208210810361433b5761433a6142e1565b5b50919050565b600061434c82613b5c565b915060ff820361435f5761435e614088565b5b600182019050919050565b600061437582613b5c565b915061438083613b5c565b9250828201905060ff81111561439957614398614088565b5b92915050565b6000819050919050565b60006143c46143bf6143ba84613b5c565b61439f565b613833565b9050919050565b6143d4816143a9565b82525050565b60006060820190506143ef60008301866143cb565b81810360208301526144018185614212565b90506144106040830184613c4d565b949350505050565b600060608201905061442d6000830186613ea3565b61443a6020830185613ea3565b6144476040830184613c4d565b949350505050565b61445881613ecd565b811461446357600080fd5b50565b6000815190506144758161444f565b92915050565b600060208284031215614491576144906136e3565b5b600061449f84828501614466565b91505092915050565b600060808201905081810360008301526144c28187614212565b90506144d16020830186613ea3565b6144de6040830185613c4d565b6144eb6060830184613c4d565b95945050505050565b600081905092915050565b60008190508160005260206000209050919050565b6000815461452181614310565b61452b81866144f4565b94506001821660008114614546576001811461455b5761458e565b60ff198316865281151582028601935061458e565b614564856144ff565b60005b8381101561458657815481890152600182019150602081019050614567565b838801955050505b50505092915050565b60006145a38284614514565b915081905092915050565b600081905092915050565b60008190508160005260206000209050919050565b600081546145db81614310565b6145e581866145ae565b94506001821660008114614600576001811461461557614648565b60ff1983168652811515820286019350614648565b61461e856145b9565b60005b8381101561464057815481890152600182019150602081019050614621565b838801955050505b50505092915050565b600061465d82846145ce565b915081905092915050565b600061467382613920565b61467d81856145ae565b935061468d81856020860161393c565b80840191505092915050565b60006146a58284614668565b915081905092915050565b7f546f6b656e20616c726561647920657869737473000000000000000000000000600082015250565b60006146e6601483614201565b91506146f1826146b0565b602082019050919050565b60006020820190508181036000830152614715816146d9565b9050919050565b7f546f6b656e20496e646578206f766572666c6f77000000000000000000000000600082015250565b6000614752601483614201565b915061475d8261471c565b602082019050919050565b6000602082019050818103600083015261478181614745565b9050919050565b60006020601f8301049050919050565b600082821b905092915050565b6000600883026147d57fffffffffffffffffffffffffffffffffffffffffffffffffffffffffffffffff82614798565b6147df8683614798565b95508019841693508086168417925050509392505050565b600061481261480d61480884613833565b61439f565b613833565b9050919050565b6000819050919050565b61482c836147f7565b61484061483882614819565b8484546147a5565b825550505050565b600090565b614855614848565b614860818484614823565b505050565b5b818110156148845761487960008261484d565b600181019050614866565b5050565b601f8211156148c95761489a816145b9565b6148a384614788565b810160208510156148b2578190505b6148c66148be85614788565b830182614865565b50505b505050565b600082821c905092915050565b60006148ec600019846008026148ce565b1980831691505092915050565b600061490583836148db565b9150826002028217905092915050565b61491e82613920565b67ffffffffffffffff81111561493757614936613708565b5b6149418254614310565b61494c828285614888565b600060209050601f83116001811461497f576000841561496d578287015190505b61497785826148f9565b8655506149df565b601f19841661498d866145b9565b60005b828110156149b557848901518255600182019150602085019450602081019050614990565b868310156149d257848901516149ce601f8916826148db565b8355505b6001600288020188555050505b505050505050565b60006080820190506149fc60008301876143cb565b8181036020830152614a0e8186614212565b9050614a1d6040830185613ea3565b614a2a6060830184613c4d565b95945050505050565b6000604082019050614a486000830185613ea3565b614a556020830184613c4d565b9392505050565b7f4f776e61626c653a206e6577206f776e657220697320746865207a65726f206160008201527f6464726573730000000000000000000000000000000000000000000000000000602082015250565b6000614ab8602683614201565b9150614ac382614a5c565b604082019050919050565b60006020820190508181036000830152614ae781614aab565b9050919050565b7f4f776e61626c653a2063616c6c6572206973206e6f7420746865206f776e6572600082015250565b6000614b24602083614201565b9150614b2f82614aee565b602082019050919050565b60006020820190508181036000830152614b5381614b17565b905091905056fea2646970667358221220c60131c4b855ea8ba111da87d79613b55abfc0558f1a43163ecc699ad03ae36364736f6c63430008110033",
  "devdoc": {
    "kind": "dev",
    "methods": {
      "owner()": {
        "details": "Returns the address of the current owner."
      },
      "renounceOwnership()": {
        "details": "Leaves the contract without owner. It will not be possible to call `onlyOwner` functions anymore. Can only be called by the current owner. NOTE: Renouncing ownership will leave the contract without an owner, thereby removing any functionality that is only available to the owner."
      },
      "transferOwnership(address)": {
        "details": "Transfers ownership of the contract to a new account (`newOwner`). Can only be called by the current owner."
      }
    },
    "version": 1
  },
  "userdoc": {
    "kind": "user",
    "methods": {},
    "version": 1
  },
  "storageLayout": {
    "storage": [
      {
        "astId": 7,
        "contract": "contracts/Swap.sol:Swap",
        "label": "_owner",
        "offset": 0,
        "slot": "0",
        "type": "t_address"
      },
      {
        "astId": 262,
        "contract": "contracts/Swap.sol:Swap",
        "label": "tokenInfo",
        "offset": 0,
        "slot": "1",
        "type": "t_mapping(t_uint8,t_struct(Token)226_storage)"
      },
      {
        "astId": 267,
        "contract": "contracts/Swap.sol:Swap",
        "label": "tokens",
        "offset": 0,
        "slot": "2",
        "type": "t_mapping(t_uint8,t_contract(IERC20)193)"
      },
      {
        "astId": 273,
        "contract": "contracts/Swap.sol:Swap",
        "label": "tokenBalanceForAddress",
        "offset": 0,
        "slot": "3",
        "type": "t_mapping(t_address,t_mapping(t_uint8,t_uint256))"
      },
      {
        "astId": 278,
        "contract": "contracts/Swap.sol:Swap",
        "label": "buyToSell",
        "offset": 0,
        "slot": "4",
        "type": "t_mapping(t_uint8,t_array(t_uint8)dyn_storage)"
      },
      {
        "astId": 283,
        "contract": "contracts/Swap.sol:Swap",
        "label": "ExchangeMarket",
        "offset": 0,
        "slot": "5",
        "type": "t_mapping(t_uint8,t_struct(Market)257_storage)"
      },
      {
        "astId": 285,
        "contract": "contracts/Swap.sol:Swap",
        "label": "tokenIndex",
        "offset": 0,
        "slot": "6",
        "type": "t_uint8"
      },
      {
        "astId": 287,
        "contract": "contracts/Swap.sol:Swap",
        "label": "marketIndex",
        "offset": 1,
        "slot": "6",
        "type": "t_uint8"
      }
    ],
    "types": {
      "t_address": {
        "encoding": "inplace",
        "label": "address",
        "numberOfBytes": "20"
      },
      "t_array(t_uint256)dyn_storage": {
        "base": "t_uint256",
        "encoding": "dynamic_array",
        "label": "uint256[]",
        "numberOfBytes": "32"
      },
      "t_array(t_uint8)dyn_storage": {
        "base": "t_uint8",
        "encoding": "dynamic_array",
        "label": "uint8[]",
        "numberOfBytes": "32"
      },
      "t_bytes2": {
        "encoding": "inplace",
        "label": "bytes2",
        "numberOfBytes": "2"
      },
      "t_contract(IERC20)193": {
        "encoding": "inplace",
        "label": "contract IERC20",
        "numberOfBytes": "20"
      },
      "t_mapping(t_address,t_mapping(t_uint8,t_uint256))": {
        "encoding": "mapping",
        "key": "t_address",
        "label": "mapping(address => mapping(uint8 => uint256))",
        "numberOfBytes": "32",
        "value": "t_mapping(t_uint8,t_uint256)"
      },
      "t_mapping(t_uint256,t_struct(Order)237_storage)": {
        "encoding": "mapping",
        "key": "t_uint256",
        "label": "mapping(uint256 => struct Swap.Order)",
        "numberOfBytes": "32",
        "value": "t_struct(Order)237_storage"
      },
      "t_mapping(t_uint8,t_array(t_uint8)dyn_storage)": {
        "encoding": "mapping",
        "key": "t_uint8",
        "label": "mapping(uint8 => uint8[])",
        "numberOfBytes": "32",
        "value": "t_array(t_uint8)dyn_storage"
      },
      "t_mapping(t_uint8,t_contract(IERC20)193)": {
        "encoding": "mapping",
        "key": "t_uint8",
        "label": "mapping(uint8 => contract IERC20)",
        "numberOfBytes": "32",
        "value": "t_contract(IERC20)193"
      },
      "t_mapping(t_uint8,t_struct(Market)257_storage)": {
        "encoding": "mapping",
        "key": "t_uint8",
        "label": "mapping(uint8 => struct Swap.Market)",
        "numberOfBytes": "32",
        "value": "t_struct(Market)257_storage"
      },
      "t_mapping(t_uint8,t_struct(Token)226_storage)": {
        "encoding": "mapping",
        "key": "t_uint8",
        "label": "mapping(uint8 => struct Swap.Token)",
        "numberOfBytes": "32",
        "value": "t_struct(Token)226_storage"
      },
      "t_mapping(t_uint8,t_uint256)": {
        "encoding": "mapping",
        "key": "t_uint8",
        "label": "mapping(uint8 => uint256)",
        "numberOfBytes": "32",
        "value": "t_uint256"
      },
      "t_string_storage": {
        "encoding": "bytes",
        "label": "string",
        "numberOfBytes": "32"
      },
      "t_struct(Market)257_storage": {
        "encoding": "inplace",
        "label": "struct Swap.Market",
        "members": [
          {
            "astId": 253,
            "contract": "contracts/Swap.sol:Swap",
            "label": "buyOrderBook",
            "offset": 0,
            "slot": "0",
            "type": "t_struct(OrderBook)250_storage"
          },
          {
            "astId": 256,
            "contract": "contracts/Swap.sol:Swap",
            "label": "sellOrderBook",
            "offset": 0,
            "slot": "4",
            "type": "t_struct(OrderBook)250_storage"
          }
        ],
        "numberOfBytes": "256"
      },
      "t_struct(Order)237_storage": {
        "encoding": "inplace",
        "label": "struct Swap.Order",
        "members": [
          {
            "astId": 228,
            "contract": "contracts/Swap.sol:Swap",
            "label": "quantity",
            "offset": 0,
            "slot": "0",
            "type": "t_uint256"
          },
          {
            "astId": 230,
            "contract": "contracts/Swap.sol:Swap",
            "label": "price",
            "offset": 0,
            "slot": "1",
            "type": "t_uint256"
          },
          {
            "astId": 232,
            "contract": "contracts/Swap.sol:Swap",
            "label": "timestamp",
            "offset": 0,
            "slot": "2",
            "type": "t_uint256"
          },
          {
            "astId": 234,
            "contract": "contracts/Swap.sol:Swap",
            "label": "user",
            "offset": 0,
            "slot": "3",
            "type": "t_address"
          },
          {
            "astId": 236,
            "contract": "contracts/Swap.sol:Swap",
            "label": "status",
            "offset": 20,
            "slot": "3",
            "type": "t_bytes2"
          }
        ],
        "numberOfBytes": "128"
      },
      "t_struct(OrderBook)250_storage": {
        "encoding": "inplace",
        "label": "struct Swap.OrderBook",
        "members": [
          {
            "astId": 239,
            "contract": "contracts/Swap.sol:Swap",
            "label": "orderIndex",
            "offset": 0,
            "slot": "0",
            "type": "t_uint256"
          },
          {
            "astId": 244,
            "contract": "contracts/Swap.sol:Swap",
            "label": "orders",
            "offset": 0,
            "slot": "1",
            "type": "t_mapping(t_uint256,t_struct(Order)237_storage)"
          },
          {
            "astId": 246,
            "contract": "contracts/Swap.sol:Swap",
            "label": "ordersCount",
            "offset": 0,
            "slot": "2",
            "type": "t_uint256"
          },
          {
            "astId": 249,
            "contract": "contracts/Swap.sol:Swap",
            "label": "ordersQueue",
            "offset": 0,
            "slot": "3",
            "type": "t_array(t_uint256)dyn_storage"
          }
        ],
        "numberOfBytes": "128"
      },
      "t_struct(Token)226_storage": {
        "encoding": "inplace",
        "label": "struct Swap.Token",
        "members": [
          {
            "astId": 223,
            "contract": "contracts/Swap.sol:Swap",
            "label": "contractAddress",
            "offset": 0,
            "slot": "0",
            "type": "t_address"
          },
          {
            "astId": 225,
            "contract": "contracts/Swap.sol:Swap",
            "label": "symbolName",
            "offset": 0,
            "slot": "1",
            "type": "t_string_storage"
          }
        ],
        "numberOfBytes": "64"
      },
      "t_uint256": {
        "encoding": "inplace",
        "label": "uint256",
        "numberOfBytes": "32"
      },
      "t_uint8": {
        "encoding": "inplace",
        "label": "uint8",
        "numberOfBytes": "1"
      }
    }
  }
}